:1000000080370020E5AA0000E1AA0000E1AA000074
:1000100000000000000000000000000000000000E0
:10002000000000000000000000000000E1AA000045
:100030000000000000000000E1AA0000E1AA0000AA
:10004000E1AA0000E1AA0000AD400000F19D00001F
:10005000E1AA0000E1AA0000E1AA0000E1AA000074
:10006000459D0000559D0000659D0000759D0000A8
:10007000859D0000959D0000E1AA0000E1AA000016
:10008000E1AA0000DD970000ED970000FD97000059
:100090000D9800001D98000015010000E1AA000065
:1000A000E1AA0000E1AA0000319E0000E1AA0000E0
:1000B0000000000010B5064C2378002B07D1054B3B
:1000C000002B02D0044800E000BF0123237010BDC4
:1000D000E00100200000000060880100084B10B51E
:1000E000002B03D00749084800E000BF0748036819
:1000F000002B00D110BD064B002BFBD09847F9E731
:1001000000000000E4010020608801006088010018
:100110000000000070B52E4B1C6823689A795D7949
:10012000154001222A4210D09A7161698B1C6361CB
:1001300023689B8C9BB20B80238B013B9BB2238358
:10014000002B1FD0637F002B30D104232B4205D01E
:1001500022689371E27E023B13420CD102232B42B0
:1001600008D022689371E27E0233134202D0A27E4D
:10017000134217D170BDA27E1342EFD02000E36876
:100180009847EBE721680A71217F0529DDD12377A4
:10019000E37E1A42D9D0A37E1A42D6D02000A368AB
:1001A0009847D2E7236920009847E3E72268D3798C
:1001B0005BB2002BC9DB138C002BFCD10221137E18
:1001C0000B4313762268138C002BFCD1BDE7C0468D
:1001D00018080020044B8000C3580120002B00D0D9
:1001E00070471E30FCE7C0460402002010B52A28E4
:1001F0000BD8AA4B80001B589F46A94BA94898478B
:10020000A94BAA481860AA4B984710BDA44BA9480F
:100210009847A948A44B1860A54B9847F5E7A04B11
:10022000A6489847A648A04B1860A14B9847ECE712
:10023000A44BA5489847E8E7A449994BA448984798
:10024000E3E7A04BA3489847A348974B1860984B07
:100250009847DAE79B4BA1489847A14BA1481978EA
:100260008F4B9847A048904B1860914B9847CCE72C
:10027000944B9E4898479A4B9A481978884B9847D0
:100280009B48894B18608A4B9847BEE78D4B99482D
:100290009847BAE78B4B984898479848824B186024
:1002A000834B9847B1E7964B9847AEE7854B954807
:1002B000984795487C4B18607D4B9847A5E7814B44
:1002C000924898479248784B1860794B98479CE73A
:1002D0007C4B904898479048734B1860744B9847F4
:1002E00093E7784B8D4898478D486F4B1860704B5B
:1002F00098478AE7734B8B4898478B486A4B18603E
:100300006B4B984781E76F4B884898478848664B06
:100310001860674B984778E76A4B86489847864845
:10032000614B1860624B98476FE7664B834898476C
:1003300083485D4B18605E4B984766E7614B6B489E
:100340009847674B67481978554B98477D48564BF7
:100350001860574B984758E75A4B7B4898477B485B
:10036000514B1860524B98474FE7564B7848984787
:1003700078484D4B18604E4B984746E7514B7648AE
:1003800098477648484B1860494B98473DE74D4B96
:10039000734898477348444B1860454B984734E777
:1003A000484B7148984771483F4B1860404B9847FD
:1003B0002BE7444B6E4898476E483B4B18603C4BCC
:1003C000984722E73F4B6C4898476C48364B18607B
:1003D000374B984719E73B4B694898476948324B78
:1003E0001860334B984710E7364B67489847674883
:1003F0002D4B18602E4B984707E7324B64489847BF
:100400006448294B18602A4B9847FEE62D4B6248FA
:1004100098476248244B1860254B9847F5E6294BCE
:100420005F4898475F48204B1860214B9847ECE69F
:10043000244B5D4898475D481B4B18601C4B984700
:10044000E3E6204B5A4898475A48174B1860184B18
:100450009847DAE61B4B584898475848124B1860A3
:10046000134B9847D1E6174B5548984755480E4BC4
:1004700018600F4B9847C8E6124B534898475348AB
:10048000094B18600A4B9847BFE60E4B50489847F7
:100490005048054B1860064B9847B6E6B06001001F
:1004A000CD4B01009467010000020020D8670100D5
:1004B00075310000646701007C670100446701003A
:1004C00054670100E94C0100886501007465010072
:1004D00080650100506501006865010084640100C9
:1004E0001D08002028640100C0640100F0630100C1
:1004F0003C640100E4640100287E01007C6101008D
:10050000D12C000094630100A86301005C6101002C
:100510006C610100B0620100C06201001865010059
:100520003865010084610100946101000C620100E2
:1005300024620100F8650100106601006C6301008F
:10054000806301005C640100806601009466010024
:10055000D0650100E4650100046701002467010023
:10056000AC660100C0660100D4660100EC660100C3
:100570004062010050620100F86201001C6301004A
:100580004463010058630100D0620100E46201008D
:100590006066010070660100C0630100D86301005D
:1005A000806201009862010098650100B465010055
:1005B000286601004466010060620100706201006B
:1005C000EC610100FC610100CC610100DC61010013
:1005D000A4610100B8610100F8B53B4BDE469B46C3
:1005E000574645464E4601235A46E0B5374D1370EF
:1005F0004A1E374B010028009847364B364898472B
:10060000364B290036489A469847364C2800A04772
:100610000104090C3448D0472B78202B31D0280016
:10062000A0470004000C281801380378202B28D09C
:100630002E4B2800190098462D4B994698472D4E71
:10064000306000283ED000242B4FA300F8504146D4
:100650000020C8470134E4B230600028F5D13B687F
:1006600026491800264C9846A047002825D0254941
:100670004046A047002809D1234B98475B46187095
:1006800004E001235A461B4E1B4F137028001F4CD9
:100690001F4A0021A0471C2200213800A047002348
:1006A0001C483360D0475B4618781B4B98473CBCCE
:1006B00090469946A246AB46F8BD184B98475B4614
:1006C0001870E3E70C4FCAE71D080020300800202F
:1006D000354A0100E94C010000680100CD4B0100E2
:1006E00034680100615001004C680100247401006D
:1006F000BD500100FC0100200402002064680100DC
:100700003D50010068680100D92E00006B4A0100CD
:10071000260200006C680100ED010000C90D000018
:10072000002070470B4B10B518701A230A4C237029
:100730000A4B984708280CD1F821094A13780B4036
:10074000834330390B4013700022064B1A701D236F
:10075000237010BD2C0800201D08002015EF00009C
:10076000400B00202D080020022370B5124C0320FE
:100770002370124B98471F2803D0012301202370B8
:1007800070BD172323700E4B0E499E680E4D30002E
:10079000A84700280BD00D493000A84703001720B8
:1007A000002BEDD100200A4B98472078E8E70F3066
:1007B000074B98472078E3E71D080020D50100008B
:1007C000040200206C6A01003D500100746A0100BF
:1007D0002507000010B5074B07489847074B984777
:1007E000002803D01322064B1A7010BD2122044B9F
:1007F0001A70FAE7E94C0100587301002D5B000004
:100800001D08002010B5074B07489847074B98472D
:10081000002803D01322064B1A7010BD2222044B6D
:100820001A70FAE7E94C01009C720100295A000095
:100830001D080020F0B583B06B465C1D274D2200DB
:1008400000210720A8476B469E1D3200002106208C
:10085000A8476B46DF1D3A0000210820A847204D1D
:1008600021782048A84739781F48A84731781F4881
:10087000A84724231E4D2B702378052B29D81D4A09
:100880009B00D3589F461C4B18691C4B9847672800
:100890000CD90C230C202B7003B0F0BD164B18693B
:1008A000164B9847BE23FF339842F2D82420F3E733
:1008B000114B1869114B9847E728EAD82420EBE739
:1008C0000D4B18690D4B984703002420672BE3D983
:1008D000DFE70A230A202B70DEE7C04699C9000033
:1008E000CD4B0100247601003C76010050760100DA
:1008F0001D080020846801000402002061500100EE
:10090000F8B5164F164BE622002138009847154BD4
:1009100000241D69144E0CE0AA18373B52781B01C5
:10092000DBB2402A16D9373AD2B29B183B55013474
:10093000E4B22800B047400884420ED26200D2B22E
:10094000AB5C402BE8D8AA18303B52781B01DBB2D5
:10095000402AE8D8303AD2B2E7E7F8BD580A00207A
:100960006B4A0100040200206150010070B5154B74
:10097000154C05006360154B1869154B9847154BCE
:1009800040081B78207223702000134B6570984735
:1009900008280CD0092806D0112800D070BD2922C3
:1009A0000E4B1A70FAE728220C4B1A70F6E71D223C
:1009B0000A4B0B481A700B4B19684A1C1A600A4BF9
:1009C0009847EBE7580A0020200800200402002086
:1009D00061500100410B002029B600001D080020D5
:1009E000906B010028020020CD4B0100F0B5C646F7
:1009F00000B5424B82B00520984701231F2804D040
:100A0000180002B004BC9046F0BD3D4D3D49AE68B3
:100A10003D4C3000A04700281BD13C4B1A781823CE
:100A2000002AEDD03A4B1870EB681A78002A1FD0D4
:100A30000024384E042703E001341A5D002A17D041
:100A4000B047EB681A5D801842781742F4D104234E
:100A5000D6E731493000A04706230028D0D12B4BE0
:100A60001A781823002ACBD00122294B1A70DBE711
:100A700018002A4B9847431E9BB20400DE2B0CD86B
:100A8000274B286998470723C207B9D4254B9847B5
:100A9000242807D0244B1B78B2E7244B24489847DE
:100AA0000423ADE72B691B78002B12D044230027C9
:100AB000184E984603E00137DB5D002B09D0B047A4
:100AC00041462B69DA5D801842781142F3D10B233D
:100AD00096E7184B9847154B1748984701AA0021ED
:100AE000164B0A2098470199154B16489847164B04
:100AF000E0B298470C4B1B7882E7C046D501000056
:100B000004020020A86B01003D5001002D080020C8
:100B1000410B0020E1490100106C01004146010039
:100B200061500100350800001D080020E94C01005B
:100B3000B06B010001090000C46B010099C90000FD
:100B4000CD4B0100F86B01006D0900000300083B6C
:100B5000DBB210B50D2B46D8254A9B00D3589F46D3
:100B60002448254B984710BD234B24489847FAE763
:100B7000214B234898471822224B1A70F3E71E4B4B
:100B800021489847EFE71C4B2048984719221D4BF6
:100B90001A70E8E7184B1E489847E4E7164B1D48C3
:100BA00098472822174B1A70DDE7134B1A489847CD
:100BB000D9E7114B19489847D5E70F4B1848984784
:100BC000D1E70D4B174898471748184B1860184B3A
:100BD0009847C8E7084B174898471748134B1860C1
:100BE000134B9847BFE70100034B14489847BAE7F7
:100BF0009C680100B4750100CD4B010094740100A4
:100C0000E87401001D08002008750100207501002E
:100C100038750100587501006C7501008875010078
:100C200098750100A8740100C87401002402002016
:100C300075310000C8750100EC7501000C760100EB
:100C4000F0B5C646192300B52C4C050082B02370C0
:100C50001920012903D002B004BC9046F0BD002643
:100C6000274B28489847284B284F1E606B463D70FD
:100C7000591D274D33200E70A8476B463D20991D06
:100C80000E70A847234E19203100A847082801D02C
:100C90001A20E0E73378012B25D01F491F48204E4A
:100CA000B047204B062019009846A8470828EFD1E6
:100CB00043461B78002B18D01B491C48B0476B4695
:100CC000DD1D012329002B700820194B9847297836
:100CD0001848B0473878184B9847082807D0174B62
:100CE00098472078B7E71649D8E71649E5E7164848
:100CF000B0471D231D202370ADE7C0461D0800200E
:100D0000E94C0100DC690100280200201C080020D9
:100D1000DDE900003E0B0020D0690100186A0100E7
:100D2000CD4B0100420B0020D4690100246A010070
:100D3000DDFB0000306A0100CDC200004D0B000059
:100D4000CC690100D8690100546A0100F8B5164B5E
:100D5000164E1F7805233370154B16499D68164CA7
:100D60002800A047002811D014492800A0470028D7
:100D700000D0F8BD3821124B3940383918704B4239
:100D80005941104BC9B298473070F2E70721012250
:100D90000B4B394007391A704B4259410130C9B2E7
:100DA000084B98473070E4E7400B00201D080020F6
:100DB000040200204C7301003D50010050730100FB
:100DC0001C080020410C0000F8B52D482D4B984719
:100DD00002232D4F2D4E7D682D4928002D4C337058
:100DE000A047002823D02C492800A04700281AD06B
:100DF0002A492800A047002807D118233370284B20
:100E000018301B78012B22D0F8BD26492800A047B6
:100E100000280FD024492800A04700280ED1234BDA
:100E200098473070F0E7224B98473078ECE7214B39
:100E30009847E9E7204B98473070E5E702201F4BC1
:100E400098471F2807D0012301203370DCE71C4B93
:100E500098473070D8E77D681A492800A0470028D5
:100E60000AD019492800A047002801D03078CBE7E4
:100E7000164B98473078C7E7154B98473078C3E74B
:100E8000EC720100E94C0100040200201D08002062
:100E9000207301003D500100247301002C730100F8
:100EA0002D08002030730100347301006907000031
:100EB0004D0D00002920000035190000D50100006B
:100EC000ED0900003C7301004473010005080000B7
:100ED000D507000070B582B0314C01AE3148A04753
:100EE000320000211920304DA8473048A047337800
:100EF000012B47D0042B48D02D48A0472D4B1B7801
:100F0000002B31D0012B43D02B48A0472B4B1B7813
:100F1000012B31D0002B32D02948A0476B465E1DF3
:100F2000320000212320A84733780F2B33D0002B29
:100F300016D02448244B98476B469E1D3200002152
:100F40000820A84731782148A0476B46DE1D3200B3
:100F500000210720A84731781D48A04702B070BD86
:100F6000194B1C489847E7E71B48A0471248A04781
:100F7000124B1B78012BCDD11848A047CCE718485D
:100F8000A047C9E71748A047B6E71748A047B3E707
:100F90001648A047B8E70C4B15489847CCE7C04621
:100FA000CD4B01009873010099C90000C87301007E
:100FB000EC7301001C08002010740100410B00209C
:100FC0004474010060740100E94C01006C7401007C
:100FD000807401005874010000740100287401003D
:100FE00034740100D4730100E0730100087401003F
:100FF00050740100F0B5C64600B582B0FF236A46C2
:101000000021D37023200332304DA847304EB04723
:10101000304C314B2078984708280BD02F4B304864
:101020009847304B30481860304B984702B004BCAA
:101030009046F0BD6B462278DB789A42EED10023D1
:101040000193B04701AA00212020A8472848234D3A
:10105000A8470120274901220B78274E034302208D
:10106000DBB203430420DBB203430820DBB20343BB
:101070001020DBB20343202003430B70019B32702E
:101080001A401BD11D483270A8471D48A847154B70
:101090001C48164F98461860B8473378002B10D17B
:1010A000194843461860B84723780F2B0BD0002B04
:1010B00001D11648A847164B9847B7E71548A847E7
:1010C000E3E71548EDE71548A847F4E799C900009C
:1010D000455A00002C08002015EF0000E94C0100E3
:1010E000506B010024020020646B01007531000088
:1010F000946A0100400B00202D080020D06A0100F6
:10110000E86A01000C6B0100886A0100406B010075
:10111000D50E0000B86A01007C6A0100306B010046
:1011200070B5174B984717491748184B98471849F7
:10113000184B194898471948194CA047194B18786B
:10114000194B9847194B9847002800D170BD184B90
:101150009847184D184B2A000021232098472B78D8
:10116000002B09D00F2B04D01448A047144B9847EC
:10117000ECE71448A047F9E71348A047F6E7C04654
:10118000454F0000CD1100006914000051B400006B
:1011900074650100CD4B0100F8710100107201006F
:1011A000E94C01002C08002015EF0000E559000073
:1011B000455A00000000002099C90000907201000B
:1011C000F50F0000407201006872010010B582B096
:1011D00008281DD00022234B1A70102830D0182860
:1011E00037D01B280BD02048204CA047204B21484B
:1011F0001860214B98472148A04702B010BD1B4CF6
:101200001F48A0471F481A4B18601B4B9847F2E72E
:101210000122144B154C1C481A70A0471B48144B54
:101220001860154B984701AA194B002102209847D6
:1012300001991848A047184B9847184B9847DAE788
:1012400017480B4B18600C4B9847084C1548A047A3
:10125000D1E7064C1448A0471448054B1860064BCC
:101260009847C8E72D080020BC710100CD4B010054
:1012700024020020886A010075310000D07101004D
:1012800094710100AC7101002871010068650100D2
:1012900099C90000407101002D5B0000D50E0000CF
:1012A00054710100647101007C71010088710100BA
:1012B000F0B5D64646464F46C0B5514C0B7BA544CB
:1012C0008F68504C4E68504A002102A89846A047AB
:1012D0004D4A00218CA8A0474C484D4CA0473B7874
:1012E000002B00D187E04346002B07D18B23DB0086
:1012F0009D441CBC90469946A246F0BD454B464DC8
:10130000196846484A1C1A60A84739784448A847D3
:1013100041464448A84731004348A8476B46434EDE
:10132000991C1F20B0476B460E20D91CB0476B4656
:1013300002213F485956A8476B4603213D4859565C
:10134000A8473D48A0473D48A84701235B42434486
:101350009946002B09D00024394E3B1901345978A5
:101360003000E4B2A8474C45F7DB364B0A209847DB
:10137000354B3A78354902A8994698474346012BA0
:101380003CD0FF239A462E4E7C1C8CAD47442278DD
:1013900031002800C84753462278681C12011A40C1
:1013A00031000134C8470235BC42F0D18CAA9446C2
:1013B000274B43445B0063440A2201A91A80254D50
:1013C0008CA80A80A8478CA90200234C02A8A04739
:1013D0006B466A46DB7892785BB252B21F498CA8A2
:1013E000C8478CA8A8478CA9020002A8A04702A859
:1013F0001B4B98477AE71B48A04774E78CABDBE7A9
:10140000A8FBFFFF6B4A010026020000E86F010005
:10141000E94C010020020020CD4B01003C7001008E
:10142000607001008070010098700100EDFA00000A
:10143000AC700100C0700100D4700100F4700100B4
:101440000C710100014C0100614F010000710100AD
:10145000FFFFFF7F615001006F500100107101001C
:10146000753100001870010070B50B7805000C0094
:10147000042B0AD0022B00D070BD637B1E2B00D939
:101480003EE1A34A9B00D3589F460B791E2B00D9FF
:101490003AE1A04A9B00D3589F469F4B9F489847EC
:1014A0009F48A04B1860A04B9847E5E79A4B9F4890
:1014B0009847E1E7984B9E489847DDE7964B9D4853
:1014C0009847D9E7944B9C489847D5E7924B9B485F
:1014D0009847D1E7904B9A489847CDE78E4B99486B
:1014E0009847C9E721002800974B9847C4E78A4BE3
:1014F00096489847C0E7884B95489847BCE7864B85
:1015000094489847B8E7844B93489847B4E7824B90
:10151000924898479248834B1860834B9847ABE7B3
:101520007D4B90489847A7E77B4B8F4898478F485B
:101530007C4B18607C4B98479EE7774B8C489847CC
:101540008C48784B1860784B984795E7724B8A48DF
:1015500098478A48734B1860734B98478CE76E4BDB
:101560008748984787486F4B18606F4B984783E7C9
:10157000694B8548984785486A4B18606A4B98477D
:101580007AE7654B8248984776E7634B81489847EE
:1015900072E7614B804898478048624B1860624B05
:1015A000984769E75C4B7E4898477E485D4B1860DA
:1015B0005D4B984760E7584B7B4898477B48594BB1
:1015C0001860594B984757E7534B7948984753E76A
:1015D0007848794B98470122784B79481A70514BDB
:1015E0001860514B98474C4E7648B047237841E7F6
:1015F000494E4E48B047F7E7474E4D48B047F3E7EE
:10160000454E4C48B047EFE7434E4B48B047EBE7F9
:10161000414E4248B0474248424B1860424B9847BF
:10162000E2E73D4E6248B047DEE73B4E6648B047D2
:10163000DAE7394E5748B047D6E7374E5648B047F5
:101640006248384B1860384B9847CDE7324E5448C3
:10165000B0475F48334B1860334B9847C4E72E4E72
:101660005148B04751482F4B18602F4B9847BBE764
:10167000294E3248B047B7E7274E3148B047B3E765
:10168000254E3048B047AFE75248A2E7224E2F48D8
:10169000B047A9E7204E2E48B047A5E71E4E2D487B
:1016A000B047A1E71C4E2C48B0479DE71A4E2B4887
:1016B000B04799E7184E2B48B04795E7164E2A4891
:1016C000B04791E7144E2A48B0472A48154B186096
:1016D000154B984788E7104E2748B04784E70E4ED1
:1016E0003D48B0473D480F4B18600F4B98477BE78C
:1016F000094E2548B04777E7074E2548B04773E7BE
:10170000054B37489847B7E6034E3648B0476BE776
:10171000D468010050690100CD4B0100DC6E01006E
:10172000F06E01002402002075310000586C0100A9
:101730006C6C0100846C01009C6C0100BC6C0100AD
:10174000D46C0100F06C0100B1120000086D0100C2
:101750001C6D0100346D0100506D0100706D0100C1
:10176000386F0100906D0100AC6D0100546F0100F5
:10177000C06D010054710100D86D0100646F01005B
:10178000746F0100846F0100006E0100906F010012
:10179000246E0100406E0100586E0100B46F01001C
:1017A000806E0100C86F0100A06E0100B46E0100E0
:1017B000C46E0100386C0100E94C01002D080020C6
:1017C0002C6C0100186F0100AC6C01006C6E010004
:1017D000906E0100146C0100E46D0100F46D0100D5
:1017E000D86F0100046F0100F0B5C64600B5144D76
:1017F00080462B691A78002A12D00024114F042643
:1018000003E001341A5D002A0AD0B8472B691A5D3B
:10181000801842781642F4D1122004BC9046F0BDE4
:101820001800094B98474346FF2118700140074BA9
:101830000748984743461B780F2BEDD81F20ECE74D
:1018400004020020E149010041460100CD4B0100A6
:10185000FC790100F8B50400094E0A480D00B047B4
:10186000002D0AD0013DEDB20135074F65192178F1
:1018700038000134B047AC42F9D10448B047F8BD54
:10188000CD4B0100F0790100F4790100686C010092
:10189000F0B5D6464F4646468246C0B58AB01F4B85
:1018A0000D002322002101A898475346002B32D077
:1018B000013BDBB201339846FF2300249946184FC1
:1018C000184EA84401AB2A7818193900B0474B4686
:1018D0002A78601C12011A4001AB9C463900604412
:1018E00002340135B047E4B2A845EBD15346580065
:1018F00001AB9C46C0B260446A460B4B69461380FC
:101900000A4B984701A80A4B98470AB01CBC90465E
:101910009946A246F0BD01A8EEE7C0466B4A010019
:101920000C710100614F01000A0D000051500100CF
:1019300075310000F0B5C64600B5CD488EB0CD4E2D
:10194000B0470223CC4C23222370002105A8CB4BA7
:1019500098470320CA4DA8471F2814D0012323709D
:101960000420A8471F2800D196E0012323700520FA
:10197000A8471F2800D1A0E00123012023700EB04A
:1019800004BC9046F0BDBF4BBF499B68BF4F1800D9
:101990009846B847002800D198E0BD494046B8476E
:1019A000002800D1A5E0BB494046B847002800D137
:1019B0000AE1B9494046B847002800D108E1B749D3
:1019C0004046B847002800D111E1B5494046B84724
:1019D000002800D10EE1B3494046B847002800D1A5
:1019E0000CE1B1494046B847002800D1A3E0AF4917
:1019F0004046B847002800D131E1AD494046B847DC
:101A0000002800D1C4E1AB494046B847002800D1C6
:101A1000D0E1A9494046B847002800D1E2E1A749F2
:101A20004046B847002800D1E9E1A5494046B847FB
:101A3000002800D1EFE1A3494046B847002800D173
:101A4000F5E1A1494046B847002800D1FBE19F4994
:101A50004046B847002800D101E29D494046B847BA
:101A6000002800D108E29B494046B847002800D131
:101A70000BE299494046B847002800D070E701AC16
:101A8000002122001330954B984721789448954BBC
:101A900098472278944924E07A4F9449B8687B4B60
:101AA0009847002800D062E7F86806229049914BD9
:101AB000984700282CD0022061E7724F8E49B86801
:101AC000724DA847002844D0207858E701AA002189
:101AD000824B0230984701998848824B9847019A77
:101AE000874905A8874B984705A8874B98471E202C
:101AF00045E7002101AA0530784B9847102101A83D
:101B0000824B9847102001A9814B98471E2036E749
:101B100001AC22000021714B1520984722790199D0
:101B2000704B7C4898472279019B7B4905A8754CEE
:101B3000A04705A8D9E701AC684B22000021063078
:101B400098472378002B00D048E17448B047744888
:101B5000CBE7FC6858492000A847002860D07149AD
:101B60002000A847002800D1F0E06F492000A847D6
:101B70000028A0D16B46D81C6C4B9847122800D186
:101B8000FDE66B4602AAD91C1B20544B98471A232A
:101B9000082801D01800F2E601AB0F251C796B462E
:101BA00025402409D9782A00230061484D4EB047CA
:101BB00023002A00584905A8524CA04705A8524BBB
:101BC00098471E231800DAE601AA0021043093E7A3
:101BD000002101AA0130414B9847082101A84B4B35
:101BE0009847082001A94A4B98471E20C7E601AA3A
:101BF0000021F0E701AA002103307DE701AC374B5B
:101C000022000021193098472378012B00D12FE1C1
:101C100005A8042B00D068E74648B047464864E76B
:101C20006B46D81C414B9847122800D1A7E66B465B
:101C300002AAD91C1C20294B98471A230828A9D18D
:101C40006B463E481A7AD978264B98476B461B7AE2
:101C5000002B00D12AE13A48B0473A48AFE701AC3F
:101C60000021220008301D4B9847217836480EE7A6
:101C7000A0760100E94C01001D0800206B4A01001C
:101C8000D501000004020020CC7601003D50010087
:101C9000F0760100F8760100007701000877010076
:101CA0001077010018770100507701007877010064
:101CB00094770100C4770100DC770100047801000B
:101CC000287801004C7801006C78010088780100C8
:101CD000A8780100C8780100EC78010099C90000DB
:101CE000F4780100CD4B010044780100287901000F
:101CF0006C6A01009950010050790100D47601000E
:101D0000E8760100614F01007531000055180000B0
:101D1000911800002C7901004879010064770100D6
:101D200084760100A8790100CC790100E917000050
:101D3000D4790100387701007076010054790100F0
:101D4000787901007C760100807701006B46D81C11
:101D50005A4B9847122800D111E66B4601AAD91CAC
:101D60001A20574B98471A23082800D012E76B46D1
:101D7000019AD9785348544B9847019A5349544B88
:101D800005A8984705A8534B98471E231800F6E569
:101D900001AC4B4B220000212330984723780F2BB6
:101DA00000D17FE005A8002B00D09EE64A48B0474E
:101DB0004A489AE601AC22000021414B073098477F
:101DC00021784748404B984722784049404B05A826
:101DD000984705A83F4B98471E20D0E54148B0479B
:101DE000414882E601AA0021354B20309847019AEC
:101DF0003E481100344B9847019A3D49E6E701AC53
:101E0000220000212E4B21309847217839482E4B53
:101E100098472278D9E701AC002122001830284BDE
:101E2000984721883448284B98472288CDE701AC51
:101E300022000021224B2230984721782F48224B44
:101E400098472278C1E701AC220000211C4B1730D3
:101E5000984721782A481C4B98472278B5E701AC6F
:101E6000002122000C30164B984721882548DAE7DC
:101E70002548B047254838E601AC002122001E3035
:101E80000F4B984721882248CDE701AC0C4B22002C
:101E90000021163098472378002B0BD11D48B047FE
:101EA0001D4822E61D48B0471D481EE61D48B047A4
:101EB000194884E61C48B0470B4816E6E9170000AD
:101EC00099C90000B0790100CD4B010044780100B0
:101ED000614F010075310000B07701009876010074
:101EE000C8770100547701007C760100E477010097
:101EF000FC7701000C780100307801005478010073
:101F00007078010094780100207701006476010068
:101F1000B4780100DC780100847601009C77010030
:101F20008C76010090790100CC780100F0B5C646AE
:101F300000B5144D80462B691A78002A12D000246F
:101F4000114F042603E001341A5D002A0AD0B84775
:101F50002B691A5D801842781642F4D1122004BC15
:101F60009046F0BD1800094B98474346FF21187072
:101F70000140074B0748984743461B780F2BEDD885
:101F80001F20ECE704020020E14901004146010066
:101F9000CD4B0100FC790100F0B54F46D6464646D0
:101FA000C0B50700012909D0022932D01A4E1B48BA
:101FB000B0471CBC90469946A246F0BD10239A46F5
:101FC000174B01259946174B0024134E984611E0F4
:101FD00037395B5D0901C9B2402B17D9373BDBB2FA
:101FE000C918C9B2395540460134B047E3B2023589
:101FF0005345DCD24B46DB686200D15C4029E7D810
:1020000030395B5D0901C9B2402BE7D8303BDBB208
:10201000E6E708239A46D3E7CD4B0100686C010040
:1020200004020020107A0100F0B5DE4645464E4617
:102030005746E0B5CA4895B0CA4DA8470023CA4CD8
:102040001022002108A80193A047102200210CA80B
:10205000A0470822002102A8A0470822002104A8C6
:10206000A0471022002110A8A0470223BF4E042041
:102070003370BF4B984698471F281AD00123BD4C98
:10208000BD4F33700520C0471F2800D198E00123C1
:102090003370A3689A46B9495046B847002800D122
:1020A000B0E0307815B03CBC90469946A246AB46AD
:1020B000F0BDB04CB249A368AF4F18009A46B8477C
:1020C0008146002800D1AEE0AE495046B84781466F
:1020D000002800D1C3E0AC495046B84781460028EB
:1020E00000D122E1A9495046B847002800D1C5E1F6
:1020F000A7495046B847002800D1F6E1A549504607
:10210000B8478146002800D155E2A3495046B84758
:102110008146002800D172E2A0495046B847814666
:10212000002800D1B5E09E495046B84781460028B6
:1021300000D1A0E29B495046B8478146002800D113
:10214000ECE299495046B8478146002800D184E323
:1021500096495046B847002800D1B6E39449504606
:10216000B8478146002800D1EAE392495046B84773
:102170008146002801D100F07FFC8F495046B847C6
:102180008146002800D07DE7E3681A78002A01D153
:1021900000F046FD894E442708E001229446E144C0
:1021A0004A469A5C002A01D100F03AFDB0474A46FF
:1021B000E3689A5C801842781742EED1032071E7F9
:1021C000A3687F4918009A46B8478146002800D086
:1021D00061E7E3681A78002A00D19DE10423002713
:1021E000764E984604E00137DA5D002A00D193E18B
:1021F000B0474146E368DA5D801842781142F2D177
:102200000A204FE7022306303370C0471F285AD0F8
:10221000012333700720C0471F2800D1DEE00123CF
:10222000012033703EE7E7683B78002B00D104E1E2
:102230004423624E984607E001239C46E1444B4606
:10224000FB5C002B00D1F8E0B0474B464246E76804
:10225000FB5CC01843781A42EED1032022E7E36802
:102260001A78002A00D11CE1544E442707E00122CD
:102270009446E1444A469A5C002A00D111E1B047F5
:102280004A46E3689A5C801842781742EFD10320EF
:1022900008E7E3681A78002A00D1C3E2474E042712
:1022A00007E001229446E1444A469A5C002A00D1A4
:1022B000B8E2B0474A46E3689A5C80184278174211
:1022C000EFD10F20EEE6E3683E4918009A46B84782
:1022D0008146002800D1E8E13B495046B847002834
:1022E00098D16B46D81C394B9847122800D1D9E6B3
:1022F00006AB9A466B4652466469DB783449200047
:102300001370B847002800D0D1E30123524613715F
:10231000304B51461C20984703001A20082B00D050
:10232000C0E62D48A8471D20BCE6E3681A78002ABD
:1023300000D11BE1214E442707E001229446E144ED
:102340004A469A5C002A00D110E1B0474A46E36849
:102350009A5C801842781742EFD10320A2E6C0466B
:10236000187A0100E94C01006B4A01001D080020A9
:10237000D5010000040200203D5001005079010009
:10238000CC760100F0760100F876010018770100A4
:1023900050770100C477010078770100EC780100E4
:1023A0006C7801002878010088780100C878010065
:1023B000007701000877010010770100E149010072
:1023C00028790100A8790100DC7701002D1F0000A9
:1023D000D4690100DDE90000B07D0100D349E06867
:1023E000B847002800D05CE66B46D81CD04B984715
:1023F000122800D156E606AB9A466B465246DB7869
:1024000027001370CB4B9846CB4B9B4604217B692E
:1024100000261A788946002A05D1E6E201369A5D3F
:10242000002A00D1E1E2C04749467B699A5D8018E5
:1024300042781142F2D10A2034E63800BF4B984767
:10244000082800D0BAE610220021BD4B380098477A
:10245000BC4B01000190BC48984701A90220BB4B2E
:102460009847082801D01A201CE60121B84AB9482B
:1024700013780B431370A8471D2013E6E468B64990
:102480002000B847002800D0ADE00123B3490B700D
:102490001920AE4B98470828E5D1B148A8471D2020
:1024A00000E61800A54B9847202800D086E6A54BEB
:1024B000AC489847E468AC4B20009847AB4B010010
:1024C0002000984701210CA8A94B98470CA905208A
:1024D0009E4B98470828C6D1A648A84702239C4A85
:1024E0001D2011780B431370DCE5E168A248954B81
:1024F0009847E468A1492000B847002800D096E03A
:1025000001239F490B700620904B98470828AAD1B9
:102510009C48A8471D20C5E51800874B9B46984757
:10252000FF21C3B29A46874B014097489846984787
:102530005346052B00D963E623691A78002A00D197
:1025400048E17C4E042707E001229446E1444A46D4
:102550009A5C002A00D13DE1B0474A4623699A5C63
:10256000801842781742EFD115209BE51800734B75
:102570009847202800D021E6724B84489847E468A9
:10258000794B20009847794B0100200098470121A2
:1025900008A8774B984708A904206C4B984708284F
:1025A00000D060E704236A4A794811780B4313701E
:1025B000A8471D2076E5E3681A78002A42D05D4ED0
:1025C000042706E001229446E1444A469A5C002A28
:1025D00038D0B0474A46E3689A5C80184278174280
:1025E000F0D10A205EE56B492000B84703000D20BA
:1025F000002B00D056E5594904330B7048E7E368D7
:102600001A78002A72D04B4E042706E00122944625
:10261000E1444A469A5C002A68D0B0474A46E368DB
:102620009A5C801842781742F0D108203AE55A495E
:102630002000B84703000920002B00D032E55049A4
:102640000B7060E718003C4B9847FF21534C01404A
:1026500020703C4B4C4898472378052B00D9CFE598
:1026600021000720394B9847082800D0FBE64C484A
:10267000A8471D2016E5E3681A78002A00D107E173
:102680002C4E042707E001229446E1444A469A5C16
:10269000002A00D1FCE0B0474A46E3689A5C801803
:1026A00042781742EFD10E20FCE46B46981C204B79
:1026B0009847122800D1F5E463691A78002A00D1FE
:1026C00059E11C4E042707E001229446E1444A46A2
:1026D0009A5C002A00D14EE1B0474A4663699A5C91
:1026E000801842781742EFD11420DBE41800124B17
:1026F0009847FF212B4C01402070124B2A489847E5
:1027000023780A2B91D821000820104B98470828DD
:1027100000D0A8E62548A8471D20C3E4E3681A783E
:10272000002A00D1EFE0034E042549E0CC790100F6
:102730002D1F0000E14901004146010061500100E8
:10274000AD530100CD4B0100D4760100DDE900005E
:10275000400B0020487A0100D07A01003E0B002097
:10276000D87A0100687A0100D55301005150010068
:10277000991F00007C7A0100FC7A0100D4690100F5
:10278000420B0020107B0100387B01009C7A010085
:10279000B07A0100D47A0100D8690100430B00200F
:1027A0004C7B0100440B00206C7B01007C7B010012
:1027B00001229446E1444A469A5C002A00D1A2E0F4
:1027C000B0474A46E3689A5C801842781542EFD1D8
:1027D000102067E41800D84701000400DA48C04719
:1027E0006B46DE1C3200D94B0021232098473378FA
:1027F000002B00D0EDE0D64BD64AE31816209342CA
:1028000000D94FE4534606A90B711520D24B06940C
:10281000984703001A20082B00D043E4CF48A8476C
:102820001D203FE41800CE4B984706AC20800004E2
:10283000010CCC4BCC4898472388FF2B00D940E5AE
:10284000C54B21001320984703001A20082B00D005
:1028500028E4C648A8471D2024E4E3681A78002A23
:1028600000D1ECE0C24E042507E001229446E14489
:102870004A469A5C002A00D1E1E0B0474A46E36844
:102880009A5C801842781542EFD11120FFF70AFCBC
:102890001800B34B984706AC20800004010CB14BE4
:1028A000B44898472388FF2B00D9FCE6AA4B2100A7
:1028B0001720984703001A20082B01D0FFF7F2FBDE
:1028C000AD48A8471D20FFF7EDFBE468AB492000A9
:1028D000B847002800D0F6E006AB9A4601235246DE
:1028E00013709D4B51461620984703001A20082B61
:1028F00001D0FFF7D7FB5346A1481978994B984769
:102900001D20FFF7CFFB1800954B9847954C010011
:1029100006909C48A0479C4B069A9A4200D957E7DC
:102920008D4B06A91820984703001A20082B01D0C8
:10293000FFF7B8FB06999548A0471D20FFF7B2FBAB
:10294000E3681A78002A00D1CAE0894E442707E0DC
:1029500001229446E1444A469A5C002A00D1BFE035
:10296000B0474A46E3689A5C801842781742EFD134
:102970000320FFF797FB1800794B9847794B01002C
:102980000400834898476B46DE1C32006F4B0021E1
:10299000232098473378002B00D0C8E06C4B6D4A59
:1029A000E3181620934201D9FFF77CFB6B469B7816
:1029B00006A90B701A20684B4C60984703001A2038
:1029C000082B01D0FFF76EFB7248A8471D20FFF7C8
:1029D00069FB0F2B00D015E76F4B704AE3181620E8
:1029E000934200D80EE7FFF75DFB1800D847FF21A0
:1029F000060001405B4B6A48F6B29847052E01D9A4
:102A0000FFF7FEFB674B04379F4200D0FEE460698E
:102A1000D8470600A069D8475346000130431871D3
:102A200051464D4B1B20984703001A20082B01D01C
:102A3000FFF738FB5C48A8471D20FFF733FB180061
:102A4000474B9847474C010006905848A0474E4BCB
:102A5000069A9A4200D918E73F4B06A90C209847DE
:102A600003001A20082B01D0FFF71CFB06995048E1
:102A7000A0471D20FFF716FBE3681A78002A00D153
:102A8000A8E03B4E442707E001229446E1444A4631
:102A90009A5C002A00D19DE0B0474A46E3689A5C00
:102AA000801842781742EFD10320FFF7FBFA414923
:102AB0002000B84703000920002B01D0FFF7F2FAED
:102AC0005246137124E43B492000B8470300092013
:102AD000002B01D0FFF7E6FA06AA9246137000E732
:102AE0001800354B98470600102801D0FFF766FB09
:102AF0001C4B32489847E468314B20009847314BD3
:102B0000010020009847022104A82F4B984704A9F0
:102B10000120114B9847082800D0A4E42B4B2C48E7
:102B20001A7816431E70A8471D20FFF7BBFA0F2B1B
:102B300000D03BE7184B194AE3181620934200D8FF
:102B400034E7FFF7AFFAC046487D010099C900009D
:102B500040AA8FCCC0CF6A00DDE90000607D010093
:102B600041460100CD4B01009C7B0100BC7B010074
:102B7000E1490100007C0100187C0100D4690100DA
:102B8000A87C01003C7C0100FFFF0000587C010094
:102B90004C7D0100887D0100C02571CC80841E0021
:102BA000387B01000C020020D47D01007C7C0100F8
:102BB000907C0100D869010061500100C47C0100D3
:102BC000D553010051500100991F0000400B002017
:102BD000D07C01001800264B9847102801D0FFF741
:102BE000EDFA244B24489847E468244B200098478A
:102BF000234B010020009847022102A8214B98474F
:102C000002A90020204B9847082800D02BE41F4B36
:102C10001A78104318701E48A8471D20FFF742FA83
:102C20001800134B98470600202801D0FFF7C6FA7A
:102C3000104B18489847E468104B20009847104BF9
:102C4000010020009847012110A80E4B984710A9B9
:102C500003200D4B9847082801D0FFF704FC0B4BCD
:102C60000D481A7816431E70A8471D20FFF71AFA60
:102C700061500100CD4B0100F07C0100D5530100F3
:102C800051500100991F0000DDE90000400B0020B9
:102C9000FC7C01001C7D0100287D010010B50400B2
:102CA000054B9847054B98472100054B0548984729
:102CB0000548064B984710BD4D940000B9320000FE
:102CC000CD4B0100FC7D0100107E0100753100003C
:102CD00070B50126224B88B01B6801AD0193214BD2
:102CE00000200393204B2E719847002816D0002314
:102CF00004AC6670A670210010201C4E2370B047F3
:102D000011202100B0471A4B98471A4B98472800CA
:102D1000194B9847002810D008B070BD174B1848C1
:102D2000984704A80200174B32CB32C21988118091
:102D30009B789370144B9847EEE7144B9847144BCD
:102D4000984722000F4B23CB23C219882000118003
:102D50009B7893700C4B9847084B0E489847DBE7DD
:102D6000480B00209D2C000099F1000075A3000085
:102D7000013400008D9400002D900000E94C01000A
:102D80002C7E0100407E0100753100004D94000052
:102D9000B93200001C7E0100F8B5174DAB681B78F6
:102DA000002B10D00024154F042603E001341B5DD6
:102DB000002B08D0B847AB681A5D801842781642DD
:102DC000F4D11B20F8BD0E4B0320984703000120CF
:102DD0001F2BF7D10B4BA86898470B4C01002060C4
:102DE0000A4B0B4898470B4A236894460A4A6344A7
:102DF0009342E6D81C20E5E704020020E1490100E7
:102E0000D501000041460100480B0020CD4B0100D8
:102E1000EC7E010018FCFFFFC8BBCE0710B59AB0CE
:102E200037220D490D4B6846984768460C4CA04721
:102E30000C4A0D490D4B0DA898470DA8A047262216
:102E40000B4B1A70BFF34F8F0A4A0B4BDA60BFF37C
:102E50004F8FC046FDE7C046B47E0100354A0100F1
:102E6000753100007465010080650100614F01004B
:102E70001D0800200400FA0500ED00E000B50E4B2F
:102E80008FB098680D490E4B98470223002802D056
:102E900018000FB000BD0B4B0330984701231F28CB
:102EA000F6D1094A09490A4B01A89847094B01A8DC
:102EB00098472623ECE7C04604020020B07E0100BC
:102EC0003D500100D50100007465010080650100DE
:102ED000614F010075310000F0B5C646214B00B5C9
:102EE0002148984698470223204F214D7E6821496A
:102EF0003000214C2B70A047002813D01F49300010
:102F0000A04700280AD002201D4B98471F280DD04B
:102F1000012301202B7004BC9046F0BD194B98474B
:102F20002870F8E7184B98472870F4E77E6817492F
:102F30003000A047002806D015493000A0470028DF
:102F400009D02878E7E7134B9847002805D01A23C3
:102F50001A202B70DFE7104B98471048C0470E4BE4
:102F60009847C046E94C0100507E01000402002051
:102F70001D080020847E01003D50010030730100D7
:102F8000D50100007D2E0000992D00008C7E0100EF
:102F900034730100295A00001D2E00009C7E0100A0
:102FA000802370B5304CDB05FF226363002358217A
:102FB000A287C13AA3540132A3543E3A625401316C
:102FC00062545932A3540132A3548822520322641A
:102FD0006022A3540132A354002215396352A36323
:102FE000E3656366A366E3662367A3644F33E25435
:102FF000033BE2540433E254033BE25431390133DE
:10300000E1540333E254E1235B0263651748184B34
:10301000984780235B032364164B26006366164B98
:10302000164DA36601235B42E36623673436842191
:103030003200C9052000A8470028F8D12568104BA8
:10304000280098471F2318401E3B83400D4A1360F9
:103050002268D369002BFCD102222B680A48134353
:103060002B600A4B984770BD4C0B0020007F01007D
:10307000CD4B01000300040003000500653400008F
:10308000159D000000E100E0187F0100E94C0100FF
:10309000F0B55746DE464E464546E0B52B4CA544B6
:1030A0006B469E1D2A4B00249B462A4B02AF9A4634
:1030B0000CE00134A4B2BB54274B284D9946284B51
:1030C0009846C84743461B689868A8473100584649
:1030D000D0470028F0D1234A944232D833880A2BB3
:1030E00013D02200202BE4D1391901390978202985
:1030F000DFD101231C4A13708D239B009D443CBCEF
:1031000090469946A246AB46F0BD0023164A2100E0
:1031100013703800154B9847124A0021144B3800A1
:1031200098470D4B0024994698470D4B0B4D9846F8
:103130001B689868A84731005846D0470028CDD072
:10314000BFE7002138000A4B9847D2E7CCFDFFFFCC
:103150004C0B0020E5370000554F0000B947010037
:1031600010000020260200001D080020D9050000E4
:103170006B4A010010B5044B04009847210082B24D
:10318000024B0348984710BD6150010051380000C0
:103190004C0B0020F0B5C6460C0000B59046002848
:1031A00012D1002A0DDD0A4E0A4D8F182100306819
:1031B0002B6801349847BC42F8D1404604BC904685
:1031C000F0BD00239846F8E701235B429846F4E7F8
:1031D000C80B0020C00B0020F0B5C646013800B572
:1031E0000E001500022810D80024002A0FD00A4B28
:1031F0000A4F984602E00134A54208D04346315DAB
:1032000018683B6898470028F5DA012464422000DA
:1032100004BC9046F0BDC046C80B0020C40B002083
:10322000F0B583B06B469C1D002306000F00054DD2
:10323000238021003000A8470028FAD123883B7062
:1032400003B0F0BDE537000070B50600034D8CB249
:1032500021003000A8470028FAD170BDC137000016
:1032600030B583B06B46DC1D012221000D4B0E48AA
:10327000984772B6BFF35F8F00200C4925780C4A3F
:103280000B780C4C1070E5549B2B08D001330B705D
:1032900001231370BFF35F8F62B603B030BD0870B7
:1032A000F6E7C046093900002C020020FC0200208D
:1032B0000C00002060020020F0B591B06946FF22AA
:1032C00080230A8101252422DB05009300238D54ED
:1032D00001328D5401328B5401328B5405328B54A0
:1032E00001328B548B72CB720B8201930A9305933C
:1032F00013238B7680235B030393314B00220C93C3
:10330000304B314C0D9301235B420E930F93E1231D
:103310005B0208932D4BCA760A760A774A764A777B
:103320001C602B4A2B4B2C491A602C4A2C4B20003A
:103330001A606A462B4B98472B4F2C4E3B68002156
:103340009868B0473B6800215868B0472668284B0A
:10335000300098471F2318408540264B1D60226887
:10336000D369002BFCD102223368134333602368F6
:10337000DA69002AFCD18022596852020A435A6055
:103380000122E271DA69002AFCD1DA69002AFCD153
:103390008022596892020A435A600122A271DA69B6
:1033A000002AFCD114490120144B984704220A4BEF
:1033B0009A75104BFD32FF321A6011B0F0BDC04655
:1033C00002001000020011002C020020C80B002097
:1033D00049320000C40B00200004004221320000EA
:1033E000C00B00206534000010000020F54D0100E6
:1033F000159D000000E100E061320000D19C00005A
:1034000070B5134C134B2568280098471F231840AC
:103410001E3B8022834010498B502268D369002BC9
:10342000FCD102222B6893432B602368DA69002ABF
:10343000FCD15968094801405960E271DA69002AF3
:10344000FCD15968064801405960A27170BDC04660
:103450002C020020159D000000E100E0FFFFFEFFB0
:10346000FFFFFDFFF0B54546DE464E465746E0B548
:103470000500C54B91B02960080099460C009046A4
:1034800098470300052800D102E106000700123624
:103490000122216805200A4206D011B03CBC9046AA
:1034A0009946A246AB46F0BD216817308907F4D48F
:1034B000052B00D134E1BA40B44BD9690A43DA6133
:1034C0002D274346DB5D0AA9F6B20B703000B04BE6
:1034D00098473000AF4B984743460021D85DAE4B2C
:1034E00098474346DB7A42466B712423D35CAB7129
:1034F0002523D35CEB71D37E2B72137F6B722B6809
:1035000018009A46C847052800D107E11230002369
:103510000CAE338043461A8A80230292DB019A4222
:1035200000D108E100D8F0E0C023029ADB019A4202
:1035300000D1B0E080231B029A4200D0F6E00323C2
:1035400009930023089343461B684246039343466E
:10355000DB68049343465B69059343461B7E0693F1
:103560002623D35C079353689B46002B00D1B8E019
:1035700080235B059B4500D0B1E02723D25C00236C
:10358000002A00D1F3E04246527E002A03D0424690
:103590005146927E8A7352469381049A039B029FFE
:1035A0001343059A13435A4613431F43069B42464F
:1035B0001B021F43079B5B071F432723D35C002B82
:1035C00001D104331F43434642465B7E127F9B0278
:1035D000520213434246527F4146120213432422B1
:1035E0008A5C5204134325228A5C120413438A7AAC
:1035F000C97A0A431A43434619891000FF2900D1AA
:103600009EE080235B041F4308432C214346595C02
:10361000002903D1614B9B789B0701D580231F4371
:103620002A68D369002BFCD1534658602A68D369B5
:10363000002BFCD1524608A917604B73CB738B73D8
:103640004346186B5B6B8022736043469B6B00277D
:10365000B3604346DB6B0A73F360514B0C909B469F
:10366000504BF9B29A4600280FD0431C05D008AB46
:103670001873000CC0B20BA9D0470137042F0FD02C
:10368000BB00F058F9B20028EFD12000D847ECE792
:1036900018260127FCE608230993073B089352E705
:1036A00000230022EB85EB602B616B61AB61EB616A
:1036B0002B62AB626B62AB853033EA540133EA5460
:1036C0000133EA540133EA542868C8470400364BF2
:1036D00036499847364BA400E5500020DDE600232C
:1036E00051E727234246D35C002B32D04146404667
:1036F000099B32000093896A089B006A2D4FB847E6
:10370000002800D0C9E633883DE780239B019A4218
:103710000CD1102309930F3B089314E71820F6E609
:10372000BA401A4B196A0A431A62C9E61023099370
:103730000023089307E7082309930023089302E76F
:103740004346DB7E002B00D15FE78023DB041F4371
:103750005BE7136AC0B21F00174B9847099B010033
:1037600000933200089B3800124FB847C8E7434621
:103770001B6AC0B21F00104B9847320001000F4B6C
:1037800038009847BCE7C046E94400000004004008
:103790007DA900000DA900005D430000002000414C
:1037A000A543000081AA0000D19C0000B9390000A7
:1037B000D41100209D410000A1A900007541000026
:1037C000C2791C23002A01D118007047C28D173B13
:1037D000002AF9D1026811850221137E1942FCD01A
:1037E0000023F1E710B5827903001C20002A00D1E4
:1037F00010BD9A8D1738002AFAD11B6804321C7E3E
:103800002242F5D0588BC0B2840605D0022404426F
:1038100006D05C831A20EBE71B8D00200B80E7E7C6
:10382000024202D05A831E20E2E70122024202D065
:103830005A831320DCE71022104202D05A83422020
:10384000D6E720221042E7D05A834120D0E7C04675
:10385000F0B5D6464F4646461723C0B5002A05D1D7
:1038600018001CBC90469946A246F0BDC4790533A9
:10387000002CF5D0013A93B29A4602239C46214B84
:103880000027012598460468237E1D4207D11D4B61
:1038900002E0013B002B33D0227E1542F9D046795D
:1038A0007B1C9BB2CA5D012E23D092B291461F00B1
:1038B000C379002B09D0C38D002B06D14B4602687B
:1038C00013856646137E1E42FBD05646013EB3B2B8
:1038D0009A464345D8D1237E9B0708D456460221F9
:1038E00002E0013E002E0BD0227E1142F9D00023CF
:1038F000B6E7CB5C02371B021343BFB29946D7E74A
:103900001223ADE7FFFF0000F0B54E464546DE4608
:103910005746E0B5804683B089461720002A06D175
:1039200003B03CBC90469946A246AB46F0BD434628
:103930009B790530002BF3D043461D6800239A463F
:103940006B469F1D1A4B04249B46013A96B22B7E70
:103950001C4207D1174B02E0013B002B25D02A7EE9
:103960001442F9D00023390040463B80D847002854
:10397000D6D15346591C8BB24A4651469C463B8889
:10398000535442465279012A06D0E246013E094B81
:10399000B6B29E42DBD1C3E75246023292B29246A1
:1039A00061464A461B0A5354F0E71220B8E7C04666
:1039B000E5370000FFFF0000F8B5624B8000C558F6
:1039C0002C68E369002BFCD1237EA67D31221E40AA
:1039D0003023AF5CEB5C1F400123334219D0EA8DEA
:1039E000002A4DD0AA6A511C1378A9626979DBB20A
:1039F000012900D175E09BB2DB05DB0D2385EB8D42
:103A0000013B9BB2EB85002B03D1013323750133BE
:103A1000A3750223334205D0002223753133EA54C3
:103A2000FB073BD40423334212D0AA8D002A25D0B1
:103A3000638BDBB21A0735D53722134035D002220B
:103A40001A4254D01A213223E95462837B0759D495
:103A50001023334203D0237523763B4216D1202313
:103A6000334203D0237523763B0713D40823334214
:103A700003D023752376BB0604D4F8BD2375E7E78E
:103A80002375C6E72B6A28009847F6E72800EB69FC
:103A90009847E4E72800AB699847E7E72800EB6818
:103AA0009847BFE73F221340C9D1238D696ADB05E0
:103AB000DB0DDAB20A706A6A511C69626979012900
:103AC00029D0AB8D013B9BB2AB85002BC0D104222A
:103AD00022752E32AB54BB07BAD528002B69984704
:103AE000B6E75178023209020B43AA6284E7042246
:103AF0001A420BD101221A4213D013213223E95466
:103B00006283A3E728006B699847A1E71E2132234F
:103B1000E95462839AE71B0A53706B6A01336B6244
:103B2000CFE710221A4204D042213223E9546283A3
:103B30008CE720221A4200D188E741213223E95440
:103B4000628383E7D411002001230F220370002336
:103B5000427143708370C37003718371C3710372C8
:103B60007047C0460221026813680B431360704718
:103B700030B5D37801600371537843711379837141
:103B8000137894789B02E402234354781579240235
:103B90002343D4786D01A40023431D439479D37942
:103BA000A4035B031C43137A52791B031C43F023C9
:103BB00012041B031340022223430C682B432242AE
:103BC00001D10B6030BD03244C710568EC710568B0
:103BD0002C6894432C600B6001680B681A430A60E0
:103BE000F0E7C046802370B5044C9B01E5692B4388
:103BF000E36101230B60024B984770BD0004004055
:103C0000713B0000437970B5022B11D8094A9B0023
:103C10009D58002D0CD00022AD004D190668931C54
:103C2000B44610C99B0063445C6001328D42F5D1FB
:103C300070BDC0463C7F01000023026810B51372BE
:103C400042680F4B13400F4A93420AD00379032B6B
:103C50000ED00C001034036804C99A638C42FAD168
:103C600010BD03680A689A6303684A689A63F7E7B5
:103C70008379023B012BECD803680A689A63EFE76B
:103C8000FF00FF0003000100002302681372426876
:103C90000F4B13400F4A93420AD00379032B0ED0E7
:103CA0000A00103203689B6B08C18A42FAD1704740
:103CB00003689B6B0B6003689B6B4B60F7E7837932
:103CC000023B012BECD803689B6B0B60EFE7C0460F
:103CD000FF00FF000300010002210120054B1A78BC
:103CE0000A431A705A681142FCD15A681042F9D13D
:103CF0007047C0460024004002210120054B1A787D
:103D00008A431A705A681142FCD15A681042F9D19C
:103D10007047C04600240040802310B5114A9B0024
:103D2000516901200B43012153610F4B1A780A435B
:103D30001A7001315A681142FCD15A681042F9D107
:103D400010211A780A431A70084B002219004031DA
:103D500004C39942FCD10822054B1A60054B9847D1
:103D600010BDC0460004004000240040CC0B0020E1
:103D700000E100E0D93C0000012200230272013280
:103D8000036043608372C27243727047F0B51E4B8A
:103D900083B00C0005009847002301A94B70CB703D
:103DA000237920780B70237A8B70184B9847002169
:103DB0001F2D00D816490722A37A2A409200E77ADD
:103DC000002B01D008231F430F26974096403A004E
:103DD000EB089B00CB18D869B0430243DA61637AE1
:103DE0008A69002B0AD10123AB40DB431B041B0C67
:103DF00013408B61074B984703B0F0BD0123AB40E4
:103E000013438B61F6E7C046F93C000081AA00002D
:103E100000240040D93C00000421084B02681960CE
:103E200001680B69002BFCD1022113880B4313801E
:103E300002681369002BFCD17047C04600E100E026
:103E400010B580220424094903688C5001680A696E
:103E5000002AFCD10221064A1A819A811A888A43D3
:103E60001A8002681369002BFCD110BD00E100E04C
:103E7000FF81FFFF70B50A4B0400056898470023D7
:103E80002268A386E3861369002BFCD101222B88CC
:103E900013432B8022681369002BFCD170BDC046F0
:103EA000413E000010B502681369002BFCD1037974
:103EB000002B0AD0012B02D01723180010BD9161EE
:103EC00002681369002BFCD1F7E7034C1723A142CA
:103ED000F3D889B21183F3E7FFFF0000026813698A
:103EE000002BFCD10379002B04D00020012B00D142
:103EF00090697047108B80B2FBE7C04630B504680C
:103F00002369002BFCD10379002B0FD0012B02D0A9
:103F10001A23180030BD1633012AFAD8083292004D
:103F2000115102681369002BFCD1F2E71723022A12
:103F3000EFD8044DA942ECD8103289B25200115387
:103F4000EFE7C046FFFF0000802370B51500204A50
:103F5000016051695B000B435361052204001D4B56
:103F60001A611D4B9847AB7823711C4B1C602B7951
:103F70002988DB0322680B439BB21380AB78002BAC
:103F800013D01720012B0FD113889BB21380EB782D
:103F9000002B03D0802113880B431380A9680022D3
:103FA00020000F4B9847002070BD04211388172074
:103FB0000B431380EB78002BF6D10022A968084E42
:103FC0002000B047E96801222000B0470020EBE75D
:103FD0000004004000100040753E00000C0C002062
:103FE000FD3E00000A2A01D0072A0BD8931C9B0033
:103FF000195001239340818E0B439BB2838600238B
:10400000180070470379002B05D0012B05D116331A
:10401000092AF5D8EAE70A2AE8D91723F0E7C046C3
:1040200030B504680A2917D0072910D901230A00DE
:104030001D00083A95402A02C0258B40AD002A4059
:1040400062811A00C38E13439BB2C38630BD012226
:104050008A4093B26381F5E78022024BD2006381EC
:10406000F0E7C0460080FFFF30B504680A2915D08C
:1040700007290ED901230A001D00083A95402A029B
:10408000C0258B40AD002A402281C28E9A43C28651
:1040900030BD01238B409AB22281F6E7024B238187
:1040A0008023DB00F1E7C0460080FFFFF0B5464605
:1040B000D6464F46C0B52D4B1B689A4652461F68E0
:1040C000DB8E928E1A40BB897E8990461E4033B2A9
:1040D000002B30DBFF23334220D0FE3B00259946E6
:1040E00004E0A4B20135BC81082D12D04C46AC408E
:1040F0003442F6D043464A462B411A42F1D052464A
:10410000AB1C9B009B58A4B201359847BC81082D7D
:10411000ECD11CBC90469946A246F0BD80235B00C2
:104120001E420ED01A4202D053469B6A9847802303
:104130005B00BB81EDE713005B050CD40C4BBB812E
:10414000E7E780239B001E42E3D01A4209D1802377
:104150009B00BB81DDE753461B6B9847044BBB813B
:10416000D7E75346DB6A9847F1E7C0460C0C0020BE
:104170000080FFFF10B5490840230024814202D28D
:10418000180010BD1C00631C091A9BB28842F9D9A3
:104190004023FF2CF4D814800023F1E7F0B55746F4
:1041A000DE464E46454604008A46E0B587B0039297
:1041B00010AA117840224C43544507D9100007B08B
:1041C0003CBC90469946A246AB46F0BD002B3ED182
:1041D0000200614C08000021A04700238346012013
:1041E000564699469A460027002200233F218446DE
:1041F00023E0644684402000644692185B418C4072
:10420000A0461C0013000093019423005C46044266
:1042100003D0644614432200019B9F420BD801D176
:10422000964208D84C4645462C4355460543921BBA
:10423000BB41A146AA46013910D3202040420818AC
:10424000D7D520206446401AC4402000D4E700227D
:10425000012B07D0039B1A800022AFE74B465A423E
:10426000120CF7E70A0000233B4C0021A047002373
:104270000D00012198460400002200233F268C46B1
:10428000674692185B41B7405146009201930F4236
:1042900003D0604610430200019B9D4207D801D124
:1042A000944204D841463943121BAB418846013E33
:1042B000E6D2802340229B01984500D97EE75346F1
:1042C0005B0F9B465346DB001900012000238A4602
:1042D00041460493002200233F2781460094019524
:1042E000059123E04846884080464946B9408C46BF
:1042F000564664465D46264044462C4092185B4133
:10430000264302D04C46144322000098019999425A
:104310000AD801D1904207D800980199121A8B410E
:104320006046049901430491013F09D32021494289
:104330007918D7D520214846C91BC8408046D4E704
:10434000059B9846DA00049B9A1A4346D2B2520360
:104350001A4392B27EE7C046D119010030B50E4C27
:1043600083B023780500002B06D0002904D16378A0
:1043700083420FD01D200BE001A91120074B0D70C7
:1043800098471120064B9847012300206570237041
:1043900003B030BD0020FBE7000300207DA9000032
:1043A0000DA90000364B984240D00AD9354B9842AF
:1043B00018D0354B98422FD0344B984218D000205B
:1043C00070478423DB0598421CD0314B9842F6D1CC
:1043D00001293BD0002937D0022933D00329EED15F
:1043E0002C48EDE702292BD00329E8D12A48E7E73A
:1043F00001293BD0002937D0022933D00329DED14F
:104400002648DDE7012939D0002935D0022927D0F7
:104410000329D4D12248D3E701291FD000291BD07A
:10442000022917D00329CAD11E48C9E7012921D082
:1044300000291DD002290BD00329C0D11A48BFE79B
:104440001A48BDE71A48BBE70320B9E71948B7E7A0
:104450001948B5E71948B3E71948B1E71948AFE774
:104460001948ADE71948ABE71948A9E71948A7E784
:104470001948A5E71948A3E71948A1E719489FE794
:10448000000800420010004200040043000C0042FB
:104490000004004203001F0003000F00030013008C
:1044A000030007000300190003000B0003000E00C7
:1044B00003001E000300010003000A0003001800AF
:1044C000030016000300170003000600030012009B
:1044D000030010000300110003000800030009009E
:1044E000030004000300050070B586B06946094B5F
:1044F0006A4670CB70C170CB70C1002399005158CF
:10450000814205D00133062BF8D1002006B070BDE2
:10451000D8B2FBE7487F010070B586B001AA110050
:10452000084B70CB70C130CB30C10023990051587B
:10453000814205D00133052BF8D1002006B070BDB3
:10454000D8B2FBE7887F0100F0B54E464546574696
:10455000DE46E0B5CA4B8FB004AD884691461900DF
:104560002A00070051C951C211C911C20024A2007A
:10457000AA58904561D00134052CF8D10022934609
:1045800092461B2202AE327072700132B270F2702B
:10459000013232712A00143313CB13C213CB13C26E
:1045A00013CB13C21B6813600023BB60FB603B612D
:1045B0007B613B767B765B46B24A9B009F504346CD
:1045C0004A463B603423D35CBB76D378082B0DD0AE
:1045D0003B7143461A680123052013420BD00FB0EC
:1045E0003CBC90469946A246AB46F0BD52461720C9
:1045F000D207F4D4ECE74246D17A022217300A42BD
:10460000EDD1414609680A40E9D14946097C0029B3
:1046100000D00DE14B461B7F002B00D0F6E05B463F
:104620005A00531C9B00E9585B46DB00EB5C042BF3
:104630000BD895489B00C3589F46E2B29246A346CA
:104640009FE79248036A194301624B46DB78082BC7
:1046500000D1F9E04B466A461B78694613705B4609
:10466000F45C8B4B200098478A4B200098474B46C0
:104670004A46DB78D27913434A46928813434A4626
:10468000527A002A02D08022520213434A46927A7A
:10469000002A02D08022920213434A46D27A002A8C
:1046A00002D08022520313434A46127B002A02D0D2
:1046B0008022920313434A46517892788901D201AD
:1046C00011433A6819431369002BFCD14346196022
:1046D0003A681369002BFCD14B4642469B79137311
:1046E0004B46597B4B1E99414B469B7B8900002BC7
:1046F00001D0012319433A681369002BFCD14246CB
:10470000FF331371002905D03A681369002BFCD1DF
:10471000434659714B4642461B7A53733A681369B4
:10472000002BFCD13B79042B1ED0082B41D0172045
:10473000002B00D053E71369002BFCD14B464246B7
:104740001B8D93823A681369002BFCD14B4642467D
:104750005B8D93833A681369002BFCD14B4642462C
:104760009B8D0020D3833AE71369002BFCD14A4686
:104770002833D35C424613753A681369002BFCD189
:104780004A462933D35C4246D3763A681369002BF4
:10479000FCD14A462A33D35C424613773A68136900
:1047A000002BFCD14A462B33D35C42460020537782
:1047B00015E71369002BFCD14A464346926A5A61B9
:1047C0003A681369002BFCD14A464346D26ADA6143
:1047D0003A681369002BFCD14B4642461B6B002004
:1047E0001362FCE62948C3691943C1612DE7274BD1
:1047F000586A0143596228E7244883691943816153
:1048000023E722484369194341611EE7002201A9B9
:10481000CA7024204A460123121812788B700A703D
:104820004B7020224B469B1818781B4B9847F6E696
:1048300001A9CA704A468B704B704B46127E187D98
:10484000154B0A709847E5E65346032B00D901E75C
:10485000D31C02329200AA5C9B00EB58042A00D9B8
:10486000F8E60E4992008A58974608490A6A1343A7
:104870000B62EFE60549CA691343CB61EAE6C0461D
:10488000887F0100BC110020607F0100000400400F
:104890007DA900000DA9000081AA0000747F01001D
:1048A00007498A6913438B61D4E605494A69134372
:1048B0004B61CFE6024A516A0B435362CAE6C046D7
:1048C0000004004002681369002BFCD113710168D9
:1048D0000B69002BFCD18033537102681369002BE4
:1048E000FCD10379042B0AD0082B06D00020002B22
:1048F00000D07047908A80B2FBE75069F9E7107DDD
:10490000C0B2F6E710B504682369002BFCD1037927
:10491000042B1ED0082B10D0002B02D01723180018
:1049200010BD17230129FAD8837E92B2002B1CD028
:10493000183149000A530023F1E717230129EED863
:10494000837E002B1BD1063189006418626000232E
:10495000E5E717230129E2D8837ED2B2002B0AD0E3
:10496000611830310A700023D9E70C31490064180E
:10497000A2800023D3E7641822770023CFE70C310D
:1049800089000A510023CAE770B500281FD1114CD5
:104990000530257DED0700D470BD2020FF30208339
:1049A0004908002B11D0002000255E1E49000C880C
:1049B000A4B25455AE4202D95519240A6C70023083
:1049C00080B2050002318342F1D80020E4E70820DC
:1049D0004042E1E700400041F0B5DE4657464E4612
:1049E0004546E0B5C5B0002872D19BB29B46FF2377
:1049F000019199435B468946002B57D004AB5B1A63
:104A00000293384B384F9A46384B039298464B46A0
:104A10004C464E460133FF33009304AB9C46A51B26
:104A20006544402229002000B8470528F9D0002815
:104A30004ED1009B40349C42EFD1B146A6420FD2EA
:104A40005B46002B0AD033005946019A9A422FD078
:104A500001339C4239D00029F8D1019200239B46B2
:104A6000234B98474D462800D0470528FBD0002807
:104A70002ED123002C00994604AB9C462E1B664485
:104A8000402231002800C0470528F9D000281FD156
:104A900040354D45F0D1174B9847029B013BFF3BFA
:104AA0000293009B99465B46002BB0D1002011E099
:104AB000039D029E28780139B0542800013301304B
:104AC000013289B203909C42C5D18B460192C7E75F
:104AD0000820404245B03CBC90469946A246AB46B1
:104AE000F0BDC046C1A1000049A1000061A00000C6
:104AF000CDA2000009A3000000B583B0002810D1AA
:104B00006B461870084B6A465B686B46D870187124
:104B10005870022368469370044B9847002003B0F6
:104B200000BD08204042FAE700400041099F000014
:104B300010B5014B984710BD35AE000010B5014BC4
:104B4000984710BDEDAD000010B50248024B9847E4
:104B500080B210BD480C0020C54800001021034B56
:104B60001A6811725A7E8A435A767047480C0020A0
:104B700070B510250A4C23689D721800094B9847A0
:104B80001F22094B1B5C1A4001239340074A136004
:104B90001022637E1343637623685D7270BDC04646
:104BA000480C002019450000C47F010000E100E02E
:104BB0000121034B1A6811725A7E8A435A76704754
:104BC000480C0020064B1A681369002BFCD1022107
:104BD00033331372937213688B4313607047C0466C
:104BE000480C002010B5020000210248024B9847F3
:104BF00010BDC046480C00200549000082B0EFF30C
:104C000010835A425341019372B6BFF35F8F002263
:104C1000024B1A700198C0B202B070470C0000201D
:104C2000002805D00122034B1A70BFF35F8F62B6D4
:104C30007047C0460C00002000210023314A70B5A7
:104C40001170D17091805161916111625162118531
:104C50009185343153549371D3715370937013729F
:104C600053729372D37213739373537313741377D2
:104C70000123254C5B4253852449254B200098474E
:104C800000222449244D2000A84702222349200065
:104C9000A847234B20689847224B01211A5C1F2309
:104CA00013400A009A40204B1A600122637E13438E
:104CB0002268637651721369002BFCD102211368BC
:104CC00000200B431360194B9847194EB047194900
:104CD000194B9847194D041CA847B047184B011CA5
:104CE000201C9847FC21174B89059847002805D0C0
:104CF000FE21201C8905144B9847041C201CA84742
:104D0000C0B270BD100C0020480C002000200042F2
:104D1000494500003D4B000049970000314B000021
:104D200019450000C47F010000E100E0A1A80000D7
:104D3000AD29010000247449751F0100251A0100E6
:104D4000952501007D190100511C0100F8B5DE46D2
:104D500057464E4645469346E0B5002902D1831F8B
:104D6000012B2CD907231C00012698462F4B044009
:104D700001209A460E40984743B2994643464A4618
:104D8000070005000340D20F96420BD0002B2DD117
:104D9000274B98467825002E23D13D40290001203D
:104DA000C0470023A3420AD0002C0ED05B46012B43
:104DB00025D0F8212940214301201D4B98473CBCB8
:104DC00090469946A246AB46F8BDF821184B2940BB
:104DD000012098475B46012BF1D10120154B9847E4
:104DE000EDE74B4680211D400D43D7E743460100C8
:104DF00099430F4BC9B2012098469847CAE7412012
:104E0000D047002E0ED130210143C9B2084E4120B7
:104E1000B047F821294021430120B0470120064B2B
:104E20009847CCE7CF210140F0E7C04679950000D4
:104E30003595000015970000D99E000000B50E4B77
:104E400083B0122098470D4BDA8A002A06D01B69DE
:104E5000002B03D00A4A1278920605D402211220B0
:104E6000084B984703B000BD01A92020984701983E
:104E7000054B9847F2E7C04679950000640C002086
:104E80007A1700203595000031FE0000F8B5CE46B7
:104E90004746102480B5002700201B4B98471B4B2A
:104EA00098471B4B01220121002098469847194B37
:104EB000FF21112099469847012201210520C04772
:104EC000154E164D0120B0472C20A84701237F0026
:104ED0001840013C3843E4B287B2002CF2D1104BA9
:104EE00000209847012201210020C047FF21122005
:104EF000C84700211120C8470A4B984738000CBC0E
:104F000090469946F8BDC046ED0601009D0B010094
:104F10004D4D000035950000159700007995000073
:104F200015080100D10B010010B5054B040011203C
:104F300098474008C0B240422080002010BDC046C3
:104F40007995000010B51020014B984710BDC04660
:104F5000C14F0000F0B5C64600B5154D2B881F2B7C
:104F600000D9FEE7012301269846124F2B88002B1B
:104F70001AD000242B8823411E4206D10134052C6F
:104F8000F4D02B8823411E42F8D0B8474246A240B5
:104F90002B88A40093432B80074B9847074BE3587B
:104FA00098472B88002BE4D104BC9046F0BDC04646
:104FB00002030020319700003D970000CC7F0100E4
:104FC00010B50400044B9847044B18882043188000
:104FD000034B984710BDC0463197000002030020E4
:104FE0003D970000024B188843425841C0B27047B9
:104FF0000203002070B50400FF2818D0144B2401D0
:105000001B68144B1D88144B9847144B2D04E25811
:105010002843101A124A90420CD81C19637B002BAB
:1050200004D1FF2806D90F4B98420AD970BD0E4B08
:105030009847FBE701220D4B01201A700C4B984753
:10504000F4E70C4B80B2984701236373EEE7C04648
:10505000640E0020600E0020B9AC0000D00C0020CF
:10506000FEFFFF7FFFFF000005AD0000620E002085
:10507000C14F000061AD000010B5124A124813681C
:105080000168FF2B16D0114C114A236809015118F1
:105090000B7303601B01D318FF22187B1A730D4A90
:1050A00020601378013BDBB21370002B01D00A4B58
:1050B000984710BDFF29E6D1044C236813600360B4
:1050C000034AE7E7080300200C0300201003002038
:1050D000D00C002014030020F54F0000F0B5D64698
:1050E0004F464646C0B5050082B0EFF310825342EA
:1050F0005341019372B6BFF35F8F00224C4B1A707D
:105100009846019B99464B4B1978002935D14A4F57
:105110003B78002B15D0494A3B781668DBB29246A3
:10512000F1B2002B0DD0A9423DD0454C02E0954292
:105130003BD011000A01013BA218DBB2127B002B0D
:10514000F5D140480168CAB2FF2A0BD03C4C9542C9
:1051500003D11AE09D4218D01A001301E3181B7BFB
:10516000FF2BF7D1FF234A4613425ED1152002B030
:105170001CBC90469946A246F0BD2F4F1A703B7852
:10518000002BC5D0304B9847C2E7A94234D02E013E
:10519000A319187B1301E31818732C4B19688D425F
:1051A00014D11A6012E02900254CAE4233D02E00F3
:1051B0002B01E3181B7B090161180B73FF223601D9
:1051C000A3191A733B78013BDBB23B7000234A46BC
:1051D000A4196360A3606373FF33134201D10820F5
:1051E000C5E70123012241460A70BFF35F8F62B613
:1051F000002BBBD00820BAE7144B1A68914205D0A7
:10520000090163181B7B0E000360DFE7FF220E011C
:105210001A600260DAE70E4B98473301E318187BF7
:10522000534618600B4B9847C8E70023DAE7C0469F
:105230000C000020620E0020140300201003002048
:10524000D00C002008030020795000000C0300203F
:1052500005AD0000F54F000010B5054B1B78002B85
:1052600005D00122034B01201A70034B984710BD53
:1052700014030020620E0020C14F0000F0B5224A46
:1052800083B01188138801339BB21380994203D9EC
:105290001E490B6801330B60EFF3108359424B41F9
:1052A000019372B6BFF35F8F0023194C194D237021
:1052B0002B68019EFF2B05D0174F1B01F918497B66
:1052C000002909D0FF23334204D0FE3B2370BFF3F3
:1052D0005F8F62B603B0F0BDD8591388020C9A42B2
:1052E000F0D180B2FF2807D90C4B98472B681B01DF
:1052F000FF1801237B73E5E70122094B01201A7097
:10530000084B9847DEE7C046600E0020640E002080
:105310000C00002010030020D00C002061AD000024
:10532000620E0020C14F000000230C4AFF211370C1
:105330000B4A13700B4AFF3313600B4A13600B4A7E
:1053400013600B4B002218009130FF3019721A6065
:1053500010338342FAD1074B1A70704714030020B0
:10536000620E002010030020080300200C03002020
:10537000D40C0020040300200023134A10B513703E
:10538000124AFF211370124AFF331360114A13604F
:10539000114A1360114B002218009130FF3019722E
:1053A0001A6010338342FAD10D4B1A700D4B1A60FC
:1053B0000D4B1A800D4B98470D480E4B98470E48E1
:1053C0000E4B984710BDC04614030020620E00200B
:1053D00010030020080300200C030020D40C002040
:1053E00004030020640E0020600E0020CDAD0000FC
:1053F0007D52000051AE0000595200005DAE000029
:1054000070B5054B1C68054B1D88054B98472D044E
:105410002843210070BDC046640E0020600E0020AD
:10542000B9AC000070B5084C050023781420182B87
:1054300008D8064B984723782B7001332370044B10
:105440009847082070BDC046040300203197000033
:105450003D970000F0B54E464546DE465746E0B55E
:10546000040085B00E0090469946182822D8002BDB
:1054700020D0634D0701EB195B681520002B06D087
:1054800005B03CBC90469946A246AB46F0BD5D4B8C
:105490001B685D4B188803049A465C4B984753463B
:1054A00018434346002B07D13300594AFF3B3618B7
:1054B000934209D90A20E3E7012BFBD13300FF3BDC
:1054C000181A534B9842F5D8EFF3108253425341C8
:1054D000039372B6BFF35F8F00224E4B1A70039B8B
:1054E00001934D4B197800295CD14C4B98464A46A4
:1054F000EB195A600E9AEE519A6000225A73434695
:1055000042461B780133DBB21370454B9B461B6848
:105510009A46FF2B66D06A46137013789C46434622
:105520001B78002B64D06346FF2B57D05346FF22D5
:105530001A401201AB583B48F31A002181468342BE
:105540005BD843460097A046484605E02201AF5885
:10555000F71B874233D8A446AA18147B01311A7866
:10556000C9B2914227D2FF2CF0D1444698466346F7
:105570004046009F01310278C9B29142FAD31B0123
:10558000EB181C73FF23ED192B73FF23019A0820DE
:10559000134200D174E71F4AFE3B1370BFF35F8FC5
:1055A00062B66DE71A701D4B98461B78002B9ED093
:1055B0001D4B98479BE74446009F6346DFE720006A
:1055C0004446009F0023EF19AA183873537382458D
:1055D00008D063461B01ED182C73D6E7FF2300218A
:1055E0004046C7E75B4620001C60104B9847CCE75D
:1055F00053466A4613701378C1E76046E2E7C04637
:10560000D00C0020640E0020600E0020B9AC000019
:1056100000FFFF7F0C000020620E0020140300201A
:1056200010030020FEFFFF7F79500000F54F0000BF
:1056300003010348C0184068431E9841C0B2704738
:10564000D00C002070B50E4B00011A185268002AC9
:105650000ED0C5580B4B1B680B4B1C880B4B984747
:1056600024042043854205D3094B281A984200D9C7
:10567000002070BD064B013D281A9842F8D8F8E783
:10568000D00C0020640E0020600E0020B9AC000099
:10569000FEFFFF7F10B5054B1868FF2802D10120DF
:1056A000404210BD024BC0B29847FAE710030020F9
:1056B00045560000F0B50D4B83B01B680500DCB209
:1056C000182C01D903B0F0BD094A1B01D3185E683C
:1056D0009F682000074B98470828F3D100973300B4
:1056E000002229002000044CA047EBE71003002013
:1056F000D00C0020DD50000055540000F0B5DE460F
:1057000057464E464546E0B5334B83B01B68334B96
:105710001B88334B9847EFF3108253425341009359
:1057200072B6BFF35F8F00222E4D2F4B2A70009C64
:105730001978002904D01A702C4B1B78002B47D104
:10574000FF2323423ED12A4B2A4C9B462A4B9846A4
:1057500001230022FF209C4601E0002F25D1236871
:10576000FF2B28D0EFF310814B424B41019372B6CF
:10577000BFF35F8F2A70019B994623681B015B442E
:10578000197B9E685F68B24618735A609A605A73B4
:105790002160FF290CD04B461842DED063462B70A7
:1057A000BFF35F8F62B6002FD9D05046B847CFE71E
:1057B00043461960EFE703B03CBC90469946A246C9
:1057C000AB46F0BDFE3B2B70BFF35F8F62B6BAE70E
:1057D0000A4B9847B4E7C046640E0020600E0020D4
:1057E000B9AC00000C000020620E00201403002061
:1057F000D00C0020080300200C030020795000008A
:1058000010B5024B9847002010BDC046FD56000061
:1058100010B50A23182802D8024B98470300180035
:1058200010BDC046DD50000070B5064B1C68064B2D
:105830001D88064B98472D04054B284311C3054B83
:10584000984770BD640E0020600E0020B9AC0000C7
:105850001803002045AD000070B5234B1C685D683F
:105860000019694118605960204B020C1960204BE7
:10587000204C1A80204D22782B78002A17D0002245
:10588000FF2B0FD000221D4E80B21B01F1580132B8
:10589000091AF1502178F318D2B21B7B914206D934
:1058A000FF2BF2D101322378D2B29A42FAD3144BB1
:1058B00098471448144B9847144B15489847237839
:1058C000002B09D02868FF2806D0C0B2114B98479A
:1058D000FE2802D9104B984770BD01220F4B0120C2
:1058E0001A700F4B9847F7E718030020640E00204A
:1058F000600E00201403002010030020D00C0020B4
:10590000CDAD00007D52000051AE00005DAE000044
:105910005952000045560000B5560000620E0020A6
:10592000C14F000070B5084C050023781420012BEE
:1059300000D970BD054B984723782B700133237035
:10594000034B98470820F4E7050300203197000037
:105950003D970000C3000348C018026843680A600E
:105960004B607047C00C00200A684B68C1000248B9
:105970004018026043607047C00C002010B5034B14
:1059800098470022024B1A7010BDC0462D600000DF
:105990002003002070B50F4B1A780023002A06D18F
:1059A0000D4A040115192E790533002E01D1180076
:1059B00070BDA258002AFAD0AC68002CF7D00C2891
:1059C000F5D8043B5354054A1354054B012098471E
:1059D0000023ECE720030020780E0020680E002052
:1059E0008D5D000070B50D4B1B78002B14D1002489
:1059F0000B4D0C4E2B79002B09D02B68002B06D0B9
:105A0000AB68002B03D02000B047002805D001343C
:105A1000E4B210350D2CEDD1012070BD2003002023
:105A2000780E00209562000010B5044B1B78002B07
:105A300001D1034B9847002010BDC0462003002031
:105A4000B1620000F0B5D6464F464646C0B5314B70
:105A5000C2B01B780020002B56D198462E4B2F4DFC
:105A60009A462F4B99462C79002C45D02B68002B59
:105A700042D0AE68002E3FD080220021520002A802
:105A8000D047284B08229C466444E40031196E46F6
:105A90006846C847B379F27902A9D2180532404660
:105AA000214B984700282FD12B7900246F46002BDB
:105AB00005D11DE001342B79E4B2A34218D9AB68BB
:105AC000E1009C46300061440822C84715236B441E
:105AD0009C46F9793E0061440B79002BEAD18A7823
