:1000000090390020F1D00000EDD00000EDD00000CC
:1000100000000000000000000000000000000000E0
:10002000000000000000000000000000EDD0000013
:100030000000000000000000EDD00000EDD0000046
:10004000EDD00000EDD00000D5640000C1C3000079
:10005000EDD00000EDD00000EDD00000EDD00000AC
:1000600015C3000025C3000035C3000045C30000D0
:1000700055C3000065C30000EDD00000EDD00000C6
:10008000EDD00000E9BC0000F9BC000009BD000093
:1000900019BD000029BD000015010000EDD00000D1
:1000A000EDD00000EDD0000001C40000EDD0000054
:1000B0000000000010B5064C2378002B07D1054B3B
:1000C000002B02D0044800E000BF0123237010BDC4
:1000D000E00100200000000040B20100084B10B514
:1000E000002B03D00749084800E000BF0748036819
:1000F000002B00D110BD064B002BFBD09847F9E731
:1001000000000000E401002040B2010040B2010004
:100110000000000070B52E4B1C6823689A795D7949
:10012000154001222A4210D09A7161698B1C6361CB
:1001300023689B8C9BB20B80238B013B9BB2238358
:10014000002B1FD0637F002B30D104232B4205D01E
:1001500022689371E27E023B13420CD102232B42B0
:1001600008D022689371E27E0233134202D0A27E4D
:10017000134217D170BDA27E1342EFD02000E36876
:100180009847EBE721680A71217F0529DDD12377A4
:10019000E37E1A42D9D0A37E1A42D6D02000A368AB
:1001A0009847D2E7236920009847E3E72268D3798C
:1001B0005BB2002BC9DB138C002BFCD10221137E18
:1001C0000B4313762268138C002BFCD1BDE7C0468D
:1001D000E009002030B5144C83B023680500002BE3
:1001E00002D02000114B9847114B28009847031E5E
:1001F000206005D06A780020032A03D003B030BD08
:10020000E120FBE71B68023A009201331232002121
:10021000084DA8470028F1D1072123681A685378B0
:100220008B435370EAE7C046FC010020353C0000D8
:10023000BD3C00007537000010B5029C002C06D0B4
:100240000324204005D002280BD0012801D0E22051
:1002500006E0072003400020D2001A43029B1A80C8
:1002600010BDC80007210B40034312021A43029B32
:1002700000201A80F4E7C046002A21D01C4B1B68DE
:100280005B685B685B78002B09D1012822D00028CD
:1002900018D0022814D120230020136011E0012877
:1002A00018D0002812D002280AD107291BD9082902
:1002B00014D0E2200F2904D848230020136000E066
:1002C000E2207047582300201360FAE780230020C3
:1002D0001360F6E7402300201360F2E7D0235B00B1
:1002E00013600020EDE7242300201360E9E7C046F7
:1002F000FC010020F0B5076883B01C4B050098474F
:100300003C79E4B2002C04D0194B9847052003B087
:10031000F0BD0126164B3E719847B9236A4613700B
:100320006A795309D7091DD131001F342240914009
:100330000A001049DB018C4663445A616946012278
:1003400028680D4B98476A79D1090DD1530914409B
:10035000084AA6409446DB0163449E612B68002056
:100360001971D4E76461FFDEBF61FFDE9DC8000044
:10037000D9C800000028004015C00000F0B507688B
:1003800083B01C4B050098473C79E4B2002C04D0A4
:10039000194B9847052003B0F0BD0126164B3E715E
:1003A0009847AB236A4613706A795309D7091DD160
:1003B00031001F34224091400A001049DB018C4675
:1003C00063445A616946012228680D4B98476A794F
:1003D000D1090DD153091440084AA6409446DB01C7
:1003E00063449E612B6800201971D4E76461FFDECD
:1003F000BF61FFDE9DC80000D9C800000028004092
:1004000015C00000044B8000C3580120002B00D011
:1004100070471E30FCE7C0460802002010B52B28AC
:100420000BD8AF4B80001B589F46AE4BAE48984749
:10043000AE4BAF481860AF4B984710BDA94BAE48C4
:100440009847AE48A94B1860AA4B9847F5E7A54BCB
:10045000AB489847AB48A54B1860A64B9847ECE7CC
:10046000A04BA9489847A948A04B1860A14B9847B2
:10047000E3E7A74BA7489847DFE7A749994BA74869
:100480009847DAE7A24BA6489847A648974B1860CA
:10049000984B9847D1E79E4BA3489847A34BA44855
:1004A0001978904B9847A348904B1860914B984708
:1004B000C3E7974BA04898479C4B9D481978894BB8
:1004C00098479E48894B18608A4B9847B5E7904BF0
:1004D0009B489847B1E78E4B9A4898479A48834B78
:1004E0001860844B9847A8E7984B9847A5E7884B36
:1004F0009748984797487D4B18607E4B98479CE7F4
:10050000834B954898479548784B1860794B9847A6
:1005100093E77F4B924898479248744B1860754B0D
:1005200098478AE77A4B9048984790486F4B1860F5
:10053000704B984781E7764B8D4898478D486B4BB9
:1005400018606C4B984778E7714B8B4898478B48FD
:10055000664B1860674B98476FE76D4B8848984724
:100560008848624B1860634B984766E7684B86483B
:10057000984786485D4B18605E4B98475DE7644B33
:100580006D489847694B6A481978564B9847804898
:10059000564B1860574B98474FE75D4B7D4898473F
:1005A0007D48524B1860534B984746E7584B7B4861
:1005B00098477B484D4B18604E4B98473DE7544B4E
:1005C000784898477848494B18604A4B984734E731
:1005D0004F4B764898477648444B1860454B9847B0
:1005E0002BE74B4B734898477348404B1860414B7F
:1005F000984722E7464B7148984771483B4B186033
:100600003C4B984719E7424B6E4898476E48374B2A
:100610001860384B984710E73D4B6C4898476C483A
:10062000324B1860334B984707E7394B6948984776
:1006300069482E4B18602F4B9847FEE6344B6748AD
:1006400098476748294B18602A4B9847F5E6304B86
:10065000644898476448254B1860264B9847ECE659
:100660002B4B624898476248204B1860214B9847B3
:10067000E3E6274B5F4898475F481C4B18601D4BCB
:100680009847DAE6224B5D4898475D48174B18605B
:10069000184B9847D1E61E4B5A4898475A48134B77
:1006A0001860144B9847C8E6194B58489847584863
:1006B0000E4B18600F4B9847BFE6154B55489847AF
:1006C00055480A4B18600B4B9847B6E6104B5348F9
:1006D00098475348054B1860064B9847ADE6C0460F
:1006E00014890100317401006C90010004020020A3
:1006F000A8900100413200000090010044900100E8
:10070000D08F0100E88F0100AC8F0100C08F010085
:100710004D750100F08D0100DC8D0100E88D0100B8
:10072000B88D0100D08D0100EC8C0100E50900209E
:10073000908C0100288D0100588C0100A48C0100D0
:100740004C8D010044A60100E4890100812D0000C8
:10075000FC8B0100108C0100C4890100D4890100C8
:10076000188B0100288B0100808D0100A08D0100F5
:10077000EC890100FC890100748A01008C8A010067
:10078000608E0100788E0100D48B0100E88B01009F
:10079000C48C0100E88E0100FC8E0100388E01003F
:1007A0004C8E01006C8F01008C8F0100148F0100B2
:1007B000288F01003C8F0100548F0100A88A01009E
:1007C000B88A0100608B0100848B0100AC8B0100B2
:1007D000C08B0100388B01004C8B0100C88E0100DA
:1007E000D88E0100288C0100408C0100E88A0100AD
:1007F000008B0100008E01001C8E0100908E010014
:10080000AC8E0100C88A0100D88A0100548A010018
:10081000648A0100348A0100448A01000C8A0100C4
:10082000208A0100F8B53B4BDE469B4657464546BD
:100830004E4601235A46E0B5374D13704A1E374BDA
:10084000010028009847364B36489847364B290018
:1008500036489A469847364C2800A0470104090CB0
:100860003448D0472B78202B31D02800A0470004F3
:10087000000C281801380378202B28D02E4B280094
:10088000190098462D4B994698472D4E3060002808
:100890003ED000242B4FA300F85041460020C8470B
:1008A0000134E4B230600028F5D13B6826491800D5
:1008B000264C9846A047002825D025494046A04709
:1008C000002809D1234B98475B46187004E00123A8
:1008D0005A461B4E1B4F137028001F4C1F4A002105
:1008E000A0471C2200213800A04700231C48336089
:1008F000D0475B4618781B4B98473CBC90469946BE
:10090000A246AB46F8BD184B98475B461870E3E724
:100910000C4FCAE7E5090020F80900209B7201008E
:100920004D750100CC90010031740100009101006F
:10093000C578010018910100D89C010021790100BF
:10094000000200200802002030910100A17801007F
:1009500034910100A52F0000D17201002602000091
:10096000389101001D040000211000000020704794
:100970000B4B10B518701A230A4C23700A4B98477A
:1009800008280CD1F821094A13780B4083433039E9
:100990000B4013700022064B1A701D23237010BDEC
:1009A000F4090020E509002049170100080D002086
:1009B000F5090020022370B5124C03202370124B5E
:1009C00098471F2803D001230120237070BD1723EF
:1009D00023700E4B0E499E680E4D3000A84700282C
:1009E0000BD00D493000A84703001720002BEDD194
:1009F00000200A4B98472078E8E70F30074B9847CC
:100A00002078E3E7E5090020050400000802002043
:100A100014930100A17801001C93010071090000EA
:100A200010B5074B07489847074B9847002803D055
:100A30001322064B1A7010BD2122044B1A70FAE7DC
:100A40004D7501000C9C0100557F0000E509002058
:100A500010B5074B07489847074B9847002803D025
:100A60001322064B1A7010BD2222044B1A70FAE7AB
:100A70004D750100509B0100517E0000E5090020EA
:100A8000F0B583B06B465C1D274D22000021072086
:100A9000A8476B469E1D320000210620A8476B46E2
:100AA000DF1D3A0000210820A847204D217820486A
:100AB000A84739781F48A84731781F48A8472423FA
:100AC0001E4D2B702378052B29D81D4A9B00D35827
:100AD0009F461C4B18691C4B984767280CD90C2360
:100AE0000C202B7003B0F0BD164B1869164B9847BD
:100AF000BE23FF339842F2D82420F3E7114B186944
:100B0000114B9847E728EAD82420EBE70D4B1869EA
:100B10000D4B984703002420672BE3D9DFE70A2316
:100B20000A202B70DEE7C046CDF1000031740100D1
:100B3000C49E0100DC9E0100F09E0100E50900203A
:100B40005091010008020020C5780100F8B5164F49
:100B5000164BE622002138009847154B00241D69EA
:100B6000144E0CE0AA18373B52781B01DBB2402A26
:100B700016D9373AD2B29B183B550134E4B228005B
:100B8000B047400884420ED26200D2B2AB5C402B28
:100B9000E8D8AA18303B52781B01DBB2402AE8D8CB
:100BA000303AD2B2E7E7F8BD200C0020D172010044
:100BB00008020020C578010070B5154B154C0500E2
:100BC0006360154B1869154B9847154B40081B7807
:100BD000207223702000134B6570984708280CD0B2
:100BE000092806D0112800D070BD29220E4B1A709A
:100BF000FAE728220C4B1A70F6E71D220A4B0B4825
:100C00001A700B4B19684A1C1A600A4B9847EBE79D
:100C1000200C0020E809002008020020C57801000F
:100C2000090D00205DDE0000E50900203894010078
:100C30003402002031740100F0B5C64600B5454BC2
:100C400082B00520984701231F2804D0180002B065
:100C500004BC9046F0BD404D4049AE68404C300069
:100C6000A04700281BD13F4B1A781823002AEDD04B
:100C70003D4B1870EB681A78002A1FD000243B4EB9
:100C8000042703E001341A5D002A17D0B047EB684F
:100C90001A5D801842781742F4D10423D6E734490C
:100CA0003000A04706230028D0D12E4B1A781823F5
:100CB000002ACBD001222C4B1A70DBE718002D4BF9
:100CC0009847431E9BB20400DE2B0CD82A4B2869A0
:100CD00098470723C207B9D4284B9847242807D040
:100CE000274B1B78B2E7274B274898470423ADE7EB
:100CF0002B691B78002B12D0442300271B4E9846EB
:100D000003E00137DB5D002B09D0B04741462B697A
:100D1000DA5D801842781142F3D10B2396E71B4B22
:100D20009847184B1A48984701AA0021194B0A20E6
:100D300098470199184B194898478022184B9201FF
:100D40009A61802212059A61E0B2164B98470C4BCB
:100D50001B787BE705040000080200205094010086
:100D6000A1780100F5090020090D0020157201008D
:100D7000B8940100756E0100C5780100810A000079
:100D8000E50900204D750100589401004D0B00004D
:100D90006C940100CDF1000031740100A0940100B9
:100DA00000280040B90B00000300083BDBB210B57F
:100DB0000D2B46D8254A9B00D3589F462448254BE7
:100DC000984710BD234B24489847FAE7214B234806
:100DD00098471822224B1A70F3E71E4B2148984778
:100DE000EFE71C4B2048984719221D4B1A70E8E783
:100DF000184B1E489847E4E7164B1D489847282291
:100E0000174B1A70DDE7134B1A489847D9E7114B77
:100E100019489847D5E70F4B18489847D1E70D4B2D
:100E2000174898471748184B1860184B9847C8E759
:100E3000084B174898471748134B1860134B9847AF
:100E4000BFE70100034B14489847BAE768910100D7
:100E5000549E010031740100489D01009C9D0100D9
:100E6000E5090020BC9D0100D49D0100EC9D01001E
:100E7000AC8F01000C9E0100289E0100389E0100ED
:100E80005C9D01007C9D0100300200204132000089
:100E9000689E01008C9E0100AC9E0100F0B5C64624
:100EA000192300B52C4D060082B00C002B701920C0
:100EB000012903D002B004BC9046F0BD0027274BA7
:100EC00027489847274B9847274B1878274B984730
:100ED000274B33201F60274B1E7098466B46264ECB
:100EE000591D0F70B0476B463D20991D0F70B047DC
:100EF0006B463E20D91D0C70B047204C19202100B4
:100F0000B047082801D01A20D4E72378012B19D044
:100F10001B491C481C4CA0471C4F06203900B047F9
:100F20000828F0D13B78002B0ED019491948A0476A
:100F300043461878184B9847082807D0174B98470E
:100F40002878B7E71649E4E71649EFE71648A047BF
:100F50001D231D202B70ADE7E50900204D75010014
:100F6000A8920100517E0000F409002049170100F9
:100F700034020020E409002011120100060D0020B7
:100F80009C920100E4920100317401000A0D0020DE
:100F9000A0920100F092010001EB0000A90D0000F9
:100FA00098920100A4920100FC920100F8B5144B44
:100FB000144E1F7805233370134B14499D68144C4D
:100FC0002800A04700280CD012492800A04700287C
:100FD00000D0F8BD104B01211870104B98473070AD
:100FE000F7E7072101220C4B394007391A704B42B1
:100FF00059410130C9B2094B98473070E9E7C04602
:10100000080D0020E509002008020020009C0100D6
:10101000A1780100049C0100E40900209D0E00005D
:10102000F8B52D482D4B984702232D4F2D4E7D6846
:101030002D4928002D4C3370A047002823D02C497F
:101040002800A04700281AD02A492800A0470028D5
:1010500007D118233370284B18301B78012B22D06E
:10106000F8BD26492800A04700280FD024492800B1
:10107000A04700280ED1234B98473070F0E7224B51
:1010800098473078ECE7214B9847E9E7204B9847A1
:101090003070E5E702201F4B98471F2807D0012337
:1010A00001203370DCE71C4B98473070D8E77D682F
:1010B0001A492800A04700280AD019492800A0474B
:1010C000002801D03078CBE7164B98473078C7E737
:1010D000154B98473078C3E7A09B01004D75010080
:1010E00008020020E5090020D49B0100A17801003E
:1010F000D89B0100E09B0100F5090020E49B010062
:10110000E89B0100B5090000AD0F00008D22000032
:10111000A91B000005040000390C0000F09B010031
:10112000F89B0100510A0000210A000070B582B04E
:10113000314C01AE3148A047320000211920304D1A
:10114000A8473048A0473378012B47D0042B48D01C
:101150002D48A0472D4B1B78002B31D0012B43D0BD
:101160002B48A0472B4B1B78012B31D0002B32D0C2
:101170002948A0476B465E1D320000212320A84766
:1011800033780F2B33D0002B16D02448244B9847AC
:101190006B469E1D320000210820A8473178214867
:1011A000A0476B46DE1D320000210720A84731789A
:1011B0001D48A04702B070BD194B1C489847E7E78F
:1011C0001B48A0471248A047124B1B78012BCDD1DA
:1011D0001848A047CCE71848A047C9E71748A047D8
:1011E000B6E71748A047B3E71648A047B8E70C4B47
:1011F00015489847CCE7C046317401004C9C01006B
:10120000CDF100007C9C0100A09C0100E4090020BD
:10121000C49C0100090D0020F89C0100149D0100F0
:101220004D750100209D0100349D01000C9D0100C1
:10123000B49C0100DC9C0100E89C0100889C01003A
:10124000949C0100BC9C0100049D0100F0B5C646C1
:1012500000B582B0FF236A460021D37023200332F9
:10126000304DA847304EB047304C314B207898472E
:1012700008280BD02F4B30489847304B3048186027
:10128000304B984702B004BC9046F0BD6B462278C4
:10129000DB789A42EED100230193B04701AA0021E6
:1012A0002020A8472848234DA8470120274901228C
:1012B0000B78274E03430220DBB203430420DBB24A
:1012C00003430820DBB203431020DBB2034320209A
:1012D00003430B70019B32701A401BD11D483270C2
:1012E000A8471D48A847154B1C48164F984618603C
:1012F000B8473378002B10D1194843461860B847D7
:1013000023780F2B0BD0002B01D11648A847164B82
:101310009847B7E71548A847E3E71548EDE71548AC
:10132000A847F4E7CDF100006D7E0000F40900202D
:10133000491701004D750100F893010030020020AB
:101340000C940100413200003C930100080D002084
:10135000F50900207893010090930100B4930100F7
:1013600030930100E89301002D110000609301000B
:1013700024930100D893010070B5174B9847174983
:101380001748184B98471849184B19489847194857
:10139000194CA047194B1878194B9847194B984787
:1013A000002800D170BD184B9847184D184B2A00E3
:1013B0000021232098472B78002B09D00F2B04D035
:1013C0001448A047144B9847ECE71448A047F9E7A6
:1013D0001348A047F6E7C0466D73000025140000CF
:1013E000DD16000085DC0000DC8D01003174010099
:1013F000AC9A0100C49A01004D750100F409002067
:10140000491701000D7E00006D7E000000000020E5
:10141000CDF10000449B01004D120000F49A010040
:101420001C9B0100F0B5040083B02848284DA84754
:10143000284E002132000020274FB84708213000F5
:10144000264B9847082C1BD00022254B1A70102CD5
:101450002CD0182C32D01B2C0AD02248A847224B63
:1014600022481860224B98472248A84703B0F0BD95
:101470002148A84721481C4B18601D4B9847F3E7AB
:101480000122174B1E481A70A8471E48164B1860B9
:10149000174B984701AA00210220B84701991A4822
:1014A000A8471A4B98471A4B9847DDE719480E4B47
:1014B00018600F4B98471848A847D5E71748A84722
:1014C0001748094B18600A4B9847CDE7D09901009F
:1014D0003174010024020020CDF10000C91A00007F
:1014E000F5090020709A01003002002030930100BD
:1014F00041320000849A0100489A0100609A01007C
:10150000DC990100D08D0100F4990100557F0000A5
:101510002D110000089A0100189A0100309A01006C
:101520003C9A0100F0B5D64646464F46C0B5514CF0
:101530000B7BA5448F68504C4E68504A002102A88E
:101540009846A0474D4A00218CA8A0474C484D4CD6
:10155000A0473B78002B00D187E04346002B07D102
:101560008B23DB009D441CBC90469946A246F0BDEF
:10157000454B464D196846484A1C1A60A8473978B9
:101580004448A84741464448A84731004348A84733
:101590006B46434E991C1F20B0476B460E20D91C4A
:1015A000B0476B4602213F485956A8476B46032176
:1015B0003D485956A8473D48A0473D48A847012304
:1015C0005B4243449946002B09D00024394E3B1915
:1015D000013459783000E4B2A8474C45F7DB364B6C
:1015E0000A209847354B3A78354902A899469847DA
:1015F0004346012B3CD0FF239A462E4E7C1C8CADDB
:101600004744227831002800C84753462278681C96
:1016100012011A4031000134C8470235BC42F0D1F2
:101620008CAA9446274B43445B0063440A2201A9D9
:101630001A80254D8CA80A80A8478CA90200234C4B
:1016400002A8A0476B466A46DB7892785BB252B23A
:101650001F498CA8C8478CA8A8478CA9020002A8DB
:10166000A04702A81B4B98477AE71B48A04774E79E
:101670008CABDBE7A8FBFFFFD17201002602000064
:10168000909801004D7501002C020020317401007A
:10169000E49801000899010028990100409901008F
:1016A0002123010054990100689901007C990100EF
:1016B0009C990100B499010065740100C57701008F
:1016C000A8990100FFFFFF7FC5780100D3780100D2
:1016D000B899010041320000C098010070B50B7844
:1016E00005000C00042B0AD0022B00D070BD637BD8
:1016F0001E2B00D93EE1A34A9B00D3589F460B798D
:101700001E2B00D93AE1A04A9B00D3589F469F4B1D
:101710009F4898479F48A04B1860A04B9847E5E723
:101720009A4B9F489847E1E7984B9E489847DDE7DA
:10173000964B9D489847D9E7944B9C489847D5E7E6
:10174000924B9B489847D1E7904B9A489847CDE7F2
:101750008E4B99489847C9E721002800974B984736
:10176000C4E78A4B96489847C0E7884B9548984706
:10177000BCE7864B94489847B8E7844B9348984712
:10178000B4E7824B924898479248834B1860834B4A
:101790009847ABE77D4B90489847A7E77B4B8F482E
:1017A00098478F487C4B18607C4B98479EE7774B57
:1017B0008C4898478C48784B1860784B984795E749
:1017C000724B8A4898478A48734B1860734B984706
:1017D0008CE76E4B8748984787486F4B18606F4B74
:1017E000984783E7694B8548984785486A4B186056
:1017F0006A4B98477AE7654B8248984776E7634B90
:101800008148984772E7614B804898478048624B0F
:101810001860624B984769E75C4B7E4898477E4862
:101820005D4B18605D4B984760E7584B7B48984785
:101830007B48594B1860594B984757E7534B7948A9
:10184000984753E77848794B98470122784B794875
:101850001A70514B1860514B98474C4E7648B04720
:10186000237841E7494E4E48B047F7E7474E4D4889
:10187000B047F3E7454E4C48B047EFE7434E4B487F
:10188000B047EBE7414E4248B0474248424B1860F0
:10189000424B9847E2E73D4E6248B047DEE73B4E99
:1018A0006648B047DAE7394E5748B047D6E7374E73
:1018B0005648B0476248384B1860384B9847CDE7D8
:1018C000324E5448B0475F48334B1860334B98470B
:1018D000C4E72E4E5148B04751482F4B18602F4B4C
:1018E0009847BBE7294E3248B047B7E7274E314803
:1018F000B047B3E7254E3048B047AFE75248A2E7BC
:10190000224E2F48B047A9E7204E2E48B047A5E702
:101910001E4E2D48B047A1E71C4E2C48B0479DE70E
:101920001A4E2B48B04799E7184E2B48B04795E719
:10193000164E2A48B04791E7144E2A48B0472A4825
:10194000154B1860154B984788E7104E2748B0474D
:1019500084E70E4E3D48B0473D480F4B18600F4B93
:1019600098477BE7094E2548B04777E7074E25485B
:10197000B04773E7054B37489847B7E6034E3648FC
:10198000B0476BE7A09101001C9201003174010087
:101990008497010098970100300200204132000036
:1019A00000950100149501002C950100449501005B
:1019B000649501007C9501009895010025150000B3
:1019C000B0950100C4950100DC950100F895010077
:1019D00018960100E0970100389601005496010026
:1019E000FC97010068960100089A010080960100AA
:1019F0000C9801001C9801002C980100A896010089
:101A000038980100CC960100E8960100009701008B
:101A10005C98010028970100709801004897010028
:101A20005C9701006C970100E09401004D75010086
:101A3000F5090020D4940100C097010054950100DD
:101A40001497010038970100BC9401008C960100A6
:101A50009C96010080980100AC970100F0B5C64645
:101A600000B5144D80462B691A78002A12D0002444
:101A7000114F042603E001341A5D002A0AD0B8474A
:101A80002B691A5D801842781642F4D1122004BCEA
:101A90009046F0BD1800094B98474346FF21187047
:101AA0000140074B0748984743461B780F2BEDD85A
:101AB0001F20ECE70802002015720100756E01007E
:101AC000317401009CA20100F8B50400094E0A48D7
:101AD0000D00B047002D0AD0013DEDB20135074F92
:101AE0006519217838000134B047AC42F9D1044877
:101AF000B047F8BD3174010090A2010094A201002A
:101B000010950100F0B5D6464F4646468246C0B510
:101B10008AB01F4B0D002322002101A8984753468D
:101B2000002B32D0013BDBB201339846FF23002467
:101B30009946184F184EA84401AB2A781819390055
:101B4000B0474B462A78601C12011A4001AB9C46F4
:101B50003900604402340135B047E4B2A845EBD106
:101B60005346580001AB9C46C0B260446A460B4BDA
:101B7000694613800A4B984701A80A4B98470AB058
:101B80001CBC90469946A246F0BD01A8EEE7C046AF
:101B9000D1720100B4990100C57701000A0D00005F
:101BA000B578010041320000F0B5C64600B5CF4817
:101BB0008EB0CF4EB0470223CE4C2322237000219B
:101BC00005A8CD4B98470320CC4DA8471F2814D01B
:101BD000012323700420A8471F2800D197E0012388
:101BE00023700520A8471F2800D1A9E00123012068
:101BF00023700EB004BC9046F0BDC14BC1499B6838
:101C0000C14F18009846B847002800D1A1E0BF494D
:101C10004046B847002800D1AEE0BD494046B8472D
:101C2000002800D107E1BB494046B847002800D151
:101C300005E1B9494046B847002800D10EE1B7494F
:101C40004046B84703002B20002BD2D0B449404671
:101C5000B847002800D1B1E1B2494046B847002852
:101C600000D1BDE1B0494046B847002800D1C4E1E9
:101C7000AE494046B847002800D1C7E1AC494046CC
:101C8000B847002800D1D2E1AA494046B847002809
:101C900000D1D9E1A8494046B847002800D1E0E189
:101CA000A6494046B847002800D1E3E1A449404690
:101CB000B847002800D1EAE1A2494046B8470028C9
:101CC00000D1EDE1A0494046B847002800D1F0E13D
:101CD0009E494046B847002800D1FBE19C49404658
:101CE000B847002800D102E29A494046B847002888
:101CF00000D06FE701AC002122001330964B9847CB
:101D000021789648964B9847227896492CE07C4F4C
:101D10009549B8687C4B9847002800D061E7FD687A
:101D2000062292492800924CA047002800D1B7E033
:101D3000062290492800A04700282CD0022058E70E
:101D40006F4F8D49B868704DA847002839D020786A
:101D50004FE701AA0021804B02309847019987483C
:101D60007F4B9847019A864905A8864B984705A856
:101D7000854B98471E203CE7002101AA0530764B91
:101D80009847102101A8814B9847102001A9804B4A
:101D900098471E202DE701AC2200002115206E4B34
:101DA0009847227901996E4B7A4898472279019B8E
:101DB000794905A8734CA04705A8734B98471E2086
:101DC00017E7FC685B492000A847002849D0734901
:101DD0002000A847002868D071492000A8470028A3
:101DE000ACD16B46D81C6F4B9847122800D100E746
:101DF0006B4602AAD91C1B20574B98471A23082868
:101E000001D01800F5E601AB0F251C796B46254083
:101E10002409D9782A0023006348514EB047230093
:101E20002A005D4905A8574CA04705A8564B98477E
:101E30001E231800DDE601AA002104309FE70021DF
:101E400001AA0130444B9847082101A84F4B9847FD
:101E5000082001A94E4B98471E20CAE601AA00217E
:101E6000F0E76B46D81C4F4B9847122800D1C0E6CC
:101E70006B4602AAD91C1C20374B98471A23082806
:101E8000BFD16B4649481A7AD978354B98476B468B
:101E90001B7A002B00D137E14548B0474548C5E7DC
:101EA00001AC22000021153079E76B46D81C3D4B70
:101EB0009847122800D19CE66B4601AAD91C1A202B
:101EC000254B98471A2308289BD16B46019AD9784D
:101ED0003948234B9847019A22492A4B05A898472D
:101EE00005A8294B98471E23180082E6409F010051
:101EF0004D750100E5090020D172010005040000C4
:101F0000080200206C9F0100A1780100909F010051
:101F1000989F0100A09F0100A89F0100B09F0100B1
:101F2000B89F0100F09F010018A0010034A001003B
:101F300064A001007CA00100A4A00100C8A00100D1
:101F4000ECA001000CA1010028A1010048A10100A2
:101F500068A101008CA10100CDF1000094A1010055
:101F600031740100E4A00100C8A101001493010034
:101F7000FD7801001C930100F0A10100749F010095
:101F8000889F0100C577010041320000C91A000096
:101F9000051B0000CCA10100E8A1010048A201003E
:101FA0006CA201005D1A000074A20100F4A10100FE
:101FB00018A201001C9F010050A2010001AC584B67
:101FC00022000021193098472378012B00D17DE0B1
:101FD00005A8042B00D0CBE65248B0475248C7E6CC
:101FE00001AC4F4B22000021063098472378002B8C
:101FF00026D14E48B0474E48BAE601AC0021220037
:102000000830474B984721784A487BE601AC444B5F
:10201000220000212330984723780F2B78D005A881
:10202000002B00D0A4E64448B0474448A0E601ACE9
:102030000021220007303A4B98472178404861E65A
:102040004048B047404893E601AA0021344B203075
:102050009847019A3D4811003D4B9847019A3D49E8
:1020600082E601AC0021220021302D4B98472178D7
:10207000394847E601AC22000021294B1830984727
:1020800021883648324B9847228835496CE601ACA6
:10209000002122002230224B98472178314831E636
:1020A00001AC0021220017301D4B984721782E48A3
:1020B00028E601AC22000021194B0C3098472188FA
:1020C0002A48234B9847228825494DE62848B0479F
:1020D00028484DE601AC22000021114B1E309847E4
:1020E000218825481A4B984722881D493CE601ACB7
:1020F0000B4B22000021163098472378002B0BD180
:102100001E48B0470A4833E61D48B04708488DE6E8
:102110001C48B0471C482BE61C48B0470A4827E635
:10212000CDF10000D89F0100109F010004A0010024
:10213000249F010020A0010050A00100389F010051
:1021400068A00100F49F01001C9F010084A0010011
:10215000317401009CA00100ACA00100D0A00100DE
:10216000E4A00100F4A0010010A1010034A10100CD
:10217000C09F0100049F010054A101007CA1010047
:1021800030A201003CA001002C9F01006CA10100C5
:10219000F0B5C64600B5144D80462B691A78002A62
:1021A00012D00024114F042603E001341A5D002AE6
:1021B0000AD0B8472B691A5D801842781642F4D1CC
:1021C000122004BC9046F0BD1800094B98474346C6
:1021D000FF2118700140074B0748984743461B787A
:1021E0000F2BEDD81F20ECE708020020157201002C
:1021F000756E0100317401009CA20100F0B54F46DC
:10220000D6464646C0B50700012909D0022932D07A
:102210001A4E1B48B0471CBC90469946A246F0BDDA
:1022200010239A46174B01259946174B0024134E4D
:10223000984611E037395B5D0901C9B2402B17D9C7
:10224000373BDBB2C918C9B2395540460134B047F3
:10225000E3B202355345DCD24B46DB686200D15C09
:102260004029E7D830395B5D0901C9B2402BE7D876
:10227000303BDBB2E6E708239A46D3E7317401002E
:102280001095010008020020B0A20100F0B5DE4662
:102290004E4645465746E0B5CD488DB0CD4DA84792
:1022A000002310220021CC4C04A80193A047102247
:1022B000002108A8A0470223C84E04203370C84B51
:1022C000994698471F281CD00123C64CC64F33702F
:1022D0000520C8471F2800D17AE001233370A36886
:1022E0009A46C2495046B847002800D193E0337857
:1022F000984640460DB03CBC90469946A246AB4637
:10230000F0BDB84CBA49A368B74F18009A46B84711
:102310008046002800D18EE0B6495046B847804636
:10232000002800D1A4E0B4495046B84780460028B0
:1023300000D105E1B1495046B847002800D1A3E1DA
:10234000AF495046B847002800D1D6E1AD495046C4
:10235000B8478046002800D138E2AB495046B8471C
:102360008046002800D154E2A8495046B84780462C
:10237000002800D195E0A6495046B847804600287D
:1023800000D184E2A3495046B8478046002800D1D6
:10239000D4E2A1495046B8478046002800D16DE3F9
:1023A0009E495046B847002800D1A0E39C495046BA
:1023B000B8472A23984600289BD09A495046B847E8
:1023C000002896D098495046B847002891D07FE71A
:1023D000A368964918009A46B8478046002800D05E
:1023E0007FE7E3681A78002A00D19EE104230027E2
:1023F0008F4E994604E00137DA5D002A00D194E15E
:10240000B0474946E368DA5D801842781142F2D15C
:102410000A2398466DE7022306303370C8471F2809
:102420005AD0012333700720C8471F2800D1A0E0ED
:10243000012333705CE7E7683B78002B00D109E1AA
:1024400044237B4E994607E001239C46E0444346E3
:10245000FB5C002B00D1FDE0B04743464A46E768ED
:10246000FB5CC01843781A42EED10323984640E73C
:10247000E3681A78002A00D11AE16D4E442707E07C
:1024800001229446E04442469A5C002A00D10FE1C2
:10249000B0474246E3689A5C801842781742EFD111
:1024A000E3E7E3681A78002A00D1CBE2604E042704
:1024B00007E001229446E04442469A5C002A00D19B
:1024C000C0E2B0474246E3689A5C801842781742FF
:1024D000EFD10F2398460CE7E36856491800984659
:1024E000B8478246002800D1ECE153494046B8473E
:1024F000002898D16B46D81C504B9847804612282C
:1025000000D1F6E602AB9A466B4652466469DB7828
:102510004B4920001370B847002800D0A9E30123DD
:1025200052461371474B51461C2098471A23984630
:10253000082800D0DDE64448A8471D239846D8E681
:10254000E3681A78002A00D11AE1394E442707E0DF
:1025500001229446E04442469A5C002A00D10FE1F1
:10256000B0474246E3689A5C801842781742EFD140
:102570007BE73649E068B847002800D0B7E66B46ED
:10258000D81C2E4B98478046122800D1B1E602ABEA
:102590009A466B465246DB7827001370244B9846C8
:1025A0002B4B9B4604217B6900261A788946002A1A
:1025B00005D116E301369A5D002A00D111E3C04728
:1025C00049467B699A5D801842781142F2D11FE733
:1025D000B8A201004D750100D1720100E50900208B
:1025E0000504000008020020A1780100F0A101000C
:1025F0006C9F0100909F0100989F0100B89F01000F
:10260000F09F010064A0010018A001008CA101004E
:102610000CA10100C8A0010028A1010068A10100CF
:10262000A09F0100A89F0100B09F0100C8A1010068
:102630001572010048A201007CA001009121000058
:10264000A092010011120100CCA501006CA20100B2
:10265000756E01003800C74B9847082800D004E782
:1026600010220021C44B38009847C44B0100019050
:10267000C348984701A90220C24B9847082800D1B7
:102680001DE31A23984634E6E468BF492000B847A2
:10269000002800D0B1E00123BC490B701920B94BD0
:1026A00098470828EDD1BA48A8471D23984620E648
:1026B0001800B04B9847202800D0D6E6AF4BB5485D
:1026C0009847E468B44B20009847B44B01002000C1
:1026D0009847012108A8B24B984708A90520A94BA3
:1026E00098470828CDD1AF48A8470223AE4A1178B1
:1026F0000B4313701D239846FBE5E168AB489F4BE5
:102700009847E468AA492000B847002800D099E01B
:102710000123A8490B7006209A4B98470828B0D18E
:10272000A548A8471D239846E3E51800A34B9B4600
:102730009847FF21C3B29A46904B0140A048994662
:1027400098475346052B00D962E623691A78002A78
:1027500000D14DE19B4E042707E001229446E0445E
:1027600042469A5C002A00D142E1B04742462369C2
:102770009A5C801842781742EFD115239846B8E545
:1027800018007C4B9847202800D06EE67B4B8E4883
:102790009847E468804B20009847804B0100200058
:1027A0009847012104A87E4B984704A90420754B43
:1027B0009847082800D064E704237B4A83481178AF
:1027C0000B431370A8471D23984692E5E3681A78D7
:1027D000002A42D07B4E042706E001229446E044C2
:1027E00042469A5C002A38D0B0474246E3689A5C79
:1027F000801842781742F0D10AE675492000B847A0
:102800000D239846002800D073E56049093B0B7002
:1028100044E7E3681A78002A77D06A4E042706E076
:1028200001229446E04442469A5C002A6DD0B047AB
:102830004246E3689A5C801842781742F0D1082338
:10284000984656E563492000B84709239846002872
:1028500000D04EE5574908705DE71800574B984780
:10286000FF215D4C01402070444B55489847237828
:10287000052B00D9CCE521000720424B98470828BA
:1028800000D0FEE65548A8471D23984631E5E36889
:102890001A78002A00D10CE14A4E042707E00122F1
:1028A0009446E04442469A5C002A00D101E1B047D8
:1028B0004246E3689A5C801842781742EFD10E23B3
:1028C000984616E56B46981C454B9847804612285B
:1028D00000D10EE563691A78002A00D144E1394E2F
:1028E000042707E001229446E24452469A5C002AFB
:1028F00000D139E1B047524663699A5C801842784A
:102900001742EFD114239846F3E418002B4B984755
:10291000FF21344C01402070184B334898472378EE
:102920000A2B8CD821000820164B9847082800D085
:10293000A7E62E48A8471D239846DAE4E3681A78EC
:10294000002A00D1F2E01F4E042507E00122944640
:10295000E04442469A5C002A00D1E7E0B047424694
:10296000E3689A5C801842781542EFD110239846AC
:10297000BFE4C046C5780100117C0100317401003C
:10298000749F01001112010070A30100060D0020C8
:1029900078A3010008A30100397C0100B57801008B
:1029A000FD2100001CA30100080D00209CA30100D4
:1029B000A09201000A0D0020B0A30100756E010075
:1029C000D8A30100157201003CA3010050A301002F
:1029D00074A30100A49201000B0D0020ECA30100E0
:1029E000912100000C0D00200CA401001CA401008A
:1029F0001800D84701000400B648C8476B46DE1CE3
:102A00003200B54B0021232098473378002B00D0AB
:102A1000DAE016339846B14BB14AE318934200D935
:102A200067E4534602A90B711520AE4B02949847F8
:102A30001A239846082800D05BE4AB48A8471D231A
:102A4000984656E41800A94B984702AC2080000431
:102A5000010CA74BA74898472388FF2B00D938E5DE
:102A6000A04B2100132098471A239846082800D02D
:102A70003FE4A148A8471D2398463AE4E3681A7842
:102A8000002A00D1D7E09D4E042507E0012294469C
:102A9000E04442469A5C002A00D1CCE0B04742466E
:102AA000E3689A5C801842781542EFD1112398466A
:102AB0001FE418008D4B984702AC20800004010CE5
:102AC0008B4B8F4898472388FF2B00D9F7E6854B1F
:102AD0002100172098471A239846082801D0FFF7AD
:102AE00008FC8848A8471D239846FFF702FCE468C5
:102AF00085492000B847002800D0C6E002AB9A46BE
:102B0000012352461370774B5146162098471A23DB
:102B10009846082801D0FFF7ECFB53467B4819780C
:102B2000734B98471D239846FFF7E3FB18006F4B44
:102B300098476F4C010002907548A047754B029A68
:102B40009A4200D912E7674B02A9182098471A2326
:102B50009846082801D0FFF7CCFB02996E48A047A1
:102B60001D239846FFF7C5FB1800604B9847604B44
:102B700001000400694898476B46DE1C3200564B42
:102B80000021232098473378002B00D08AE01633A9
:102B90009846524B524AE318934201D9FFF7A9FBDA
:102BA0006B469B7802A90B701A204E4B4C609847DD
:102BB0001A239846082801D0FFF79BFB5848A847DE
:102BC0001D239846FFF795FB0F2B00D029E707330D
:102BD0009846544B544AE318934200D821E7FFF734
:102BE00088FB1800D847FF2106000140404B4F48A2
:102BF000F6B29847052E00D90AE44D4B0437BB4284
:102C000000D0CFE46069D8470600A069D847534692
:102C10000001304318715146324B1B2098471A234C
:102C20009846082801D0FFF764FB4248A8471D23B7
:102C30009846FFF75EFB18002C4B98472C4C010080
:102C400002903D48A047334B029A9A4200D92DE7A3
:102C5000244B02A90C2098471A239846082801D033
:102C6000FFF747FB02993548A0471D239846FFF719
:102C700040FB33492000B84709239846002801D07B
:102C8000FFF737FB534618714CE42D492000B84735
:102C900009239846002801D0FFF72BFB02AB9A4688
:102CA000187030E70F2B00D07AE7073398461D4B9A
:102CB0001D4AE318934200D872E7FFF71AFB01217F
:102CC000204A214813780B431370A8471D239846C8
:102CD000FFF70FFB64A50100CDF1000040AA8FCCE7
:102CE000C0CF6A00111201007CA50100756E0100C1
:102CF000317401003CA401005CA4010015720100C4
:102D0000A0A40100B8A40100A092010048A5010000
:102D1000DCA40100FFFF0000F8A4010068A5010089
:102D2000A4A50100C02571CC80841E00D8A3010099
:102D300010020020F0A501001CA5010030A5010033
:102D4000A4920100080D0020E8A2010010B50400C3
:102D5000054B9847054B98472100054B0548984778
:102D60000548064B984710BD91B90000E156000098
:102D70003174010018A601002CA6010041320000A8
:102D800070B50126274B88B01B6801AD0193264B17
:102D900000200393254B2E71984700281FD0244B09
:102DA00098470023802204AC2370224B9201667066
:102DB0005A61802212055A612100A67010201E4E11
:102DC000B04711202100B0471C4B98471C4B984737
:102DD00028001C4B9847002810D008B070BD1A4B33
:102DE0001A48984704A80200194B32CB32C21988FE
:102DF00011809B789370174B9847EEE7164B9847D6
:102E0000164B98472200124B23CB23C2198820006F
:102E100011809B7893700F4B98470B4B1048984745
:102E2000DBE7C046100D00204D2D0000CD1901003C
:102E3000EDD100000028004051C9000029580000D1
:102E4000D1B9000071B500004D75010048A6010020
:102E50005CA601004132000091B90000E15600007B
:102E600038A60100F8B5174DAB681B78002B10D0C1
:102E70000024154F042603E001341B5D002B08D00D
:102E8000B847AB681A5D801842781642F4D11B200F
:102E9000F8BD0E4B03209847030001201F2BF7D1EC
:102EA0000B4BA86898470B4C010020600A4B0B485D
:102EB00098470B4A236894460A4A63449342E6D8EB
:102EC0001C20E5E70802002015720100050400003F
:102ED000756E0100100D00203174010008A701007B
:102EE00018FCFFFFC8BBCE0710B59AB037220D49BA
:102EF0000D4B6846984768460C4CA0470C4A0D4954
:102F00000D4B0DA898470DA8A04726220B4B1A7011
:102F1000BFF34F8F0A4A0B4BDA60BFF34F8FC046A7
:102F2000FDE7C046D0A601009B72010041320000BF
:102F3000DC8D0100E88D0100C5770100E509002066
:102F40000400FA0500ED00E000B50E4B8FB0986864
:102F50000D490E4B98470223002802D018000FB0ED
:102F600000BD0B4B0330984701231F28F6D1094AB7
:102F700009490A4B01A89847094B01A898472623FD
:102F8000ECE7C04608020020CCA60100A1780100B1
:102F900005040000DC8D0100E88D0100C57701000B
:102FA00041320000F0B5C646214B00B52148984695
:102FB00098470223204F214D7E6821493000214C43
:102FC0002B70A047002813D01F493000A0470028CD
:102FD0000AD002201D4B98471F280DD00123012045
:102FE0002B7004BC9046F0BD194B98472870F8E749
:102FF000184B98472870F4E77E6817493000A047BF
:10300000002806D015493000A047002809D02878AC
:10301000E7E7134B9847002805D01A231A202B7096
:10302000DFE7104B98471048C0470E4B9847C04603
:103030004D7501006CA6010008020020E509002082
:10304000A0A60100A1780100E49B01000504000096
:10305000492F0000652E0000A8A60100E89B010092
:10306000517E0000E92E0000B8A60100802370B553
:10307000304CDB05FF22636300235821A287C13A4D
:10308000A3540132A3543E3A62540131625459327E
:10309000A3540132A3548822520322646022A35411
:1030A0000132A354002215396352A363E3656366BA
:1030B000A366E3662367A3644F33E254033BE25401
:1030C0000433E254033BE25431390133E154033316
:1030D000E254E1235B0263651748184B984780234D
:1030E0005B032364164B26006366164B164DA366DE
:1030F00001235B42E3662367343684213200C9052D
:103100002000A8470028F8D12568104B28009847D0
:103110001F2318401E3B83400D4A13602268D36969
:10312000002BFCD102222B680A4813432B600A4B68
:10313000984770BD140D00201CA7010031740100D8
:1031400003000400030005008D580000E5C20000E4
:1031500000E100E030A701004D750100F0B55746D1
:10316000DE464E464546E0B52B4CA5446B469E1DBB
:103170002A4B00249B462A4B02AF9A460CE00134AE
:10318000A4B2BB54274B284D9946284B9846C847B4
:1031900043461B689868A84731005846D047002826
:1031A000F0D1234A944232D833880A2B13D022001C
:1031B000202BE4D13919013909782029DFD10123E5
:1031C0001C4A13708D239B009D443CBC904699463D
:1031D000A246AB46F0BD0023164A2100137038000A
:1031E000154B9847124A0021144B380098470D4B55
:1031F0000024994698470D4B0B4D98461B689868DC
:10320000A84731005846D0470028CDD0BFE700215D
:1032100038000A4B9847D2E7CCFDFFFF140D002081
:103220000D5C00007D730000ED6F010010000020B8
:1032300026020000E509002025080000D1720100E7
:1032400010B5044B04009847210082B2024B03489A
:10325000984710BDC5780100795C0000140D00206E
:10326000F0B5C64600B51400B2B01F00002A2DD03C
:10327000174D20222B681B6898466B46D870C043B8
:103280009980830700D010226B462100981D114EB3
:10329000B04769464046104B9847041E04D02000B2
:1032A00032B004BC9046F0BD296868460B4B984785
:1032B000041EF4D1002FF2D06B469B79122BEED96D
:1032C0006B461022D91D3800B047E8E7E224E6E754
:1032D000FC0100209B720100013B0000293D000021
:1032E00010B504008901C8B22100014CA04710BDEF
:1032F00061320000F0B51A4D17002A68B3B01668A5
:10330000002B15D0002F17D06C46E070A180032849
:1033100014D002281AD0002221003000114B984707
:10332000002803D1296820000F4B984733B0F0BD27
:103330006C46E070A180EEE7E220F7E71F2BEAD9A8
:1033400020223900A01D094B9847E4E7032BE2D95E
:1033500004223900A01D054B98470122DCE7C04636
:10336000FC010020313A0000293D00009B72010061
:10337000F0B5C64600B51400B2B0002B44D0284FBB
:1033800060263A68064015686A4691806946D070A2
:103390009471220ACA71220C0A72220E4A72202EDD
:1033A00034D00A2019001F4B6844984698472800DB
:1033B00069461D4B9847051E04D0280032B004BC56
:1033C0009046F0BD39686846184B9847051EF4D101
:1033D0002027002E01D1E3051AD4389B002B04D0FE
:1033E0006A469279BB1C934214DB399B002BE4D0D4
:1033F0006B469A793B0022339342DEDAF91D694429
:1034000020223998C047D8E7E225D6E71022C8E73E
:103410002037E2E76B463A00D91D3898C047E4E709
:10342000FC0100209B7201002D3B0000293D0000A3
:10343000F0B5C64600B51C4D1E002B68B2B01F6823
:10344000944603236A460340D07091801422012BD6
:103450000BD9E224032B04D0200032B004BC9046E8
:10346000F0BD4022830600D420226B46981D0F4BEE
:10347000614698469847694638000D4B9847041EA8
:10348000EAD1296868460B4B9847041EE4D1002E08
:10349000E2D06B469B79222BDED96B462022D91DC8
:1034A0003000C047D8E7C046FC0100209B720100F5
:1034B000613A0000293D000010B502000B00024CEB
:1034C00000210020A04710BD3134000010B5014B91
:1034D000984710BDB934000070B5134DB2B02B68D9
:1034E0006A460600186800236946D37093800F4B24
:1034F0009847041E02D0200032B070BD296868468B
:103500000B4B9847041EF6D16B469B79232B01D0B9
:10351000E624F0E7002EEED06B462022D91D3000C5
:10352000044B9847E7E7C046FC0100209D3A0000A5
:10353000293D00009B720100F0B557464646DE4625
:10354000C0B5B6B007003EA840C80578002E10D020
:1035500020488046006800688246042D17D0E22487
:10356000202D08D0200036B01CBC90469A46A346B9
:10357000F0BDE224F6E70E2068440090164C834626
:103580003800A047041EEDD180231F4308E00E2021
:1035900068440090104C83463800A047041EE1D1D7
:1035A0006B46DF745B466A461B8804A993825046CB
:1035B0000A4B9847041ED5D1434604A81968084B06
:1035C0009847041ECED117212A0069443000054BCC
:1035D0009847C7E7FC01002039020000B53A000017
:1035E000293D00009B72010070B505008AB0E224FD
:1035F00000280BD0202302AE01930B4C0096002331
:10360000002200210020A047041E02D020000AB0A2
:1036100070BD310004222800044EB047281D052249
:1036200004A9B047F2E7C046393500009B7201009B
:10363000F0B5DE464E4645465746E0B5B5B01E00ED
:103640003EAB1B88444C82468B4615000021142259
:1036500008A89946A0472023202200211BA89846AD
:10366000A0470023E2200393002D0DD0002E0BD0A5
:103670004346019313AB0093002200230021002056
:10368000364FB847002806D035B03CBC9046994626
:10369000A246AB46F0BD15A9314B052214A89847A8
:1036A0001BA908A82F4B98470028EDD144220021E0
:1036B00023A8A0471022002104A8A04708AB059327
:1036C0001BAB069323AB079304A8274B984700280E
:1036D000DAD115236A4613736B4602225A734A469F
:1036E0009A734B466A461B0AD3734946042303AABE
:1036F00002301E4FB8470028C6D1182200210DA85D
:10370000A0476B464A46DA8613AB34220F936B46CA
:103710009B18323A1A7003AB119323AB12930DA886
:10372000134B109698470028AED14346009501935D
:103730005A46002351468230084CA0470028A3D1A6
:10374000002369468C240919EA5CC95C4A40EA54A2
:103750000133202BF5D197E7D172010039350000F4
:10376000AD720100CD34000049490000F53200007F
:10377000114A0000F0B557464E464546DE46E0B5D4
:103780001F0000238FB004000D00160005930228CF
:1037900007D9E2200FB03CBC90469946A246AB4602
:1037A000F0BD02284FD0189B002B4AD0002FF0D03C
:1037B00005AA29002000324B98470028EAD1189B1F
:1037C000059A9B199342E4D8202292460022934600
:1037D00090467309DAB2B14603975E464746AB4658
:1037E000029255469846A24615E04A46D31A06AAC2
:1037F000D118189AEB1AD41B9C4200D91C00039BC9
:103800002200D8191F4B98473F19202D1ED0189B16
:103810000136BB4215D9202D23D006AA0092F3B25F
:103820000195029A59465046174CA0470028B1D13D
:103830004346DB009B199B009945D6D806A9002377
:10384000D7E70020A6E70F29A3D8ACE701239C46C1
:10385000189BE044BB42F4D943466A461372137A7C
:1038600002934346059A5B01D31A20251F2BD4D817
:103870004B46DE190723B6081E401C3DCDE7C04667
:10388000790200009B72010039350000F0B5C64690
:1038900000B51500B2B01E00002A21D0194F44B265
:1038A0003B681B6898466B46D8709980002C1BDBE0
:1038B0006B460422981D2900134B9847002E11D007
:1038C000E20F69464046114B9847002803D032B0BA
:1038D00004BC9046F0BD396868460D4B9847F6E742
:1038E000E220F4E70022ECE729002022981D064D93
:1038F000A847002EF6D02620202231006844A84791
:10390000DEE7C046FC0100209B720100CD3A0000BA
:10391000293D0000F0B585B004000AA840C80B4D51
:1039200007780E20684400902000A847002808D19E
:10393000202F08D06B462000D98932000023044C88
:10394000A04705B0F0BD80231C43F3E73902000017
:103950008D38000070B582B006AC20CC060024780B
:10396000002D06D0042C06D0E220202C03D002B07B
:1039700070BDE220FBE7019400953000014CA047A8
:10398000F5E7C04615390000002904D0002308706F
:1039900000204B707047E220FCE7C04610B5041EC3
:1039A00004D0034B006898470023236010BDC04635
:1039B00045720100F0B557464E464546DE46E0B535
:1039C0004778023FFBB29946431C9C4698464B46BB
:1039D000CC44002B27D000239A46144D5146424632
:1039E0000120545C082122000240561EB241DF0B28
:1039F0005B009BB2BA4201D06B409BB240000139E0
:103A0000C0B20029EFD101229346DA44D145E5D86E
:103A1000DAB21B0A61460A704B703CBC904699466C
:103A2000A246AB46F0BD00230022F3E70580FFFF6E
:103A300015238B70CB7810B5032B0BD0002A06D141
:103A400007234B700800054B9847002010BD0B233F
:103A50004B70F7E724334B70F4E7C046B5390000EC
:103A600003231620CA7810B513408870012B03D9A0
:103A7000E220032B07D010BD1B234B700800064B20
:103A800098470020F7E7930602D547234B70F5E7E8
:103A900027234B70F2E7C046B53900001B2310B551
:103AA0008B70143B4B700800014B9847002010BDF1
:103AB000B5390000022310B58B7005334B70080038
:103AC000014B9847002010BDB539000012238B70C0
:103AD0000B3B4B70CB7810B57F2B0BD80B234B7067
:103AE000002A02D04B7820334B700800034B9847D4
:103AF000002010BD27234B70F2E7C046B539000007
:103B00005123CA788B704A3B4B7010B51340032B7E
:103B100006D017234B700800034B9847002010BDB8
:103B200024334B70F7E7C046B53900005623CA78F6
:103B30008B700A3310B51340202B07D04B7A0B3310
:103B40004B700800034B9847002010BD053B4B709D
:103B5000F7E7C046B5390000F0B54F464646D646B1
:103B6000C0B507788046023FFBB29C46002B31D09F
:103B700000239946194E4246494608240120555CC7
:103B80002A000240571EBA41D90B5B009BB28A4201
:103B900001D073409BB24000013CC0B2002CEFD179
:103BA00001229246D144CC45E5D8D9B21B0A4246FF
:103BB0006046145CE5228C4205D010001CBC904687
:103BC0009946A246F0BD4746674479789942F4D1B8
:103BD0000022F2E700230021E9E7C0460580FFFF4D
:103BE00002780023042A01D0180070474278072A7F
:103BF0001ED00BD8012A19D0002AF5D0D233032ABF
:103C0000F2D00433052AEFD0E123EDE70F2A0BD0E1
:103C100006D9F323112AE7D01F3BFF2AE4D0F3E7AC
:103C2000FA23082AE0D0EFE7F423DDE7D123DBE72E
:103C3000D723D9E770B5041E16D00068002803D03A
:103C400040680B4B984720680A4B984720684368A8
:103C5000002B0AD01800084DA847002223685A609C
:103C60002068A8470023236070BD034DF9E7C046D4
:103C7000113F00009D3900004572010070B505003C
:103C80000C0000280ED000290CD00968E220002981
:103C900007D06368002B04D06878064B984700284B
:103CA00002D070BDE220FCE761682800024B984713
:103CB000F7E7C04689390000893F0000F8B5061EC5
:103CC0001DD00820154DA847041E18D00420A84771
:103CD000071E206015D02820A8476060002815D056
:103CE000210030000E4B9847002801D12000F8BD7C
:103CF00060680C4DA8472068A8472000A84700240A
:103D0000F4E72000074B98470024EFE73800054D03
:103D1000A8472000A8470024E8E7C0463172010008
:103D20007D3C000045720100F0B5DE464E4645463A
:103D30005746E0B5254B83B006004868884698474B
:103D4000041E0BD043465868214B9847200003B00F
:103D50003CBC90469946A246AB46F0BD43467278BD
:103D6000586831001B4B9847041EEBD11A4B0120B9
:103D700099469847194B06369B466B469F1D184B34
:103D8000184D9A4604E00220013DC847002DD9D0C5
:103D9000C02200213000D847C0233B8043463A0070
:103DA00031005868D047041EEDD13B88032B03D85F
:103DB0005C425C41E634C5E730000B4B9847041E7B
:103DC000C0D13000094B98470400BBE7D53E000046
:103DD000F53E0000C53E00002D490000D1720100F3
:103DE000CD3E0000E3040000593B0000E13B000031
:103DF000F0B5DE4657464E464546E0B583B094469C
:103E00000193002958D00123984620234718012602
:103E100000219B4612E08A46E244092C37D914005F
:103E2000613C052C2CD8573A1401E5B253461D705D
:103E300043465E40F6B20130B84233D002781400F7
:103E4000303CE4B2092C05D915005B469D43413D49
:103E5000052DF0D8019B1B688B4231D9002EDAD199
:103E6000092C05D91400613C052C13D8573AD4B25B
:103E700063465D182B78013199464C442C70D7E786
:103E80001400413C0025052CD0D8373A14002401F9
:103E9000E5B2CBE71500413D1024052DE8D8373AAF
:103EA000D4B2E5E7E220002E06D103B03CBC904638
:103EB0009946A246AB46F0BD019B00201960F4E78D
:103EC000ED20F2E710B50369984710BD10B54369BE
:103ED000984710BD10B5836904009847D02800D0DA
:103EE00010BDB738024B9847A36920009847F7E701
:103EF0002D49000010B5C36998470400024B01200A
:103F00009847200010BDC0462D490000406870470A
:103F1000030010B5E220002B03D0596A1878014B3A
:103F2000984710BD5D43000070B50D0004000A4BBA
:103F3000406898472B680020A3606B68E360AB681B
:103F40002361EB6863612B69A361AB6923626B69D1
:103F5000E3612B6A636270BD0D43000010B504007D
:103F60008AB001A9074B9847616801A8A3689847E0
:103F7000002804D1099B20006362E36898470AB0D7
:103F800010BDC046293F0000030010B5E220002B01
:103F900007D0002905D01A7808004B600A70014B41
:103FA000984710BD5D3F000070B50E00050014007D
:103FB000B0B06846064B9847320029006846054B6A
:103FC000984768462100044B9847002030B070BDE8
:103FD00099410000FD4100008D420000F0B5DE4631
:103FE00057464E464546E0B5D3B0002A00D1C8E05A
:103FF00092018B18079388239C4684446346A8301B
:104000000993089040239C468C44634612A803936E
:10401000644603000A78DA704A789A708A785A708F
:10402000CA7804311A7004338C42F3D142680724F1
:1040300013001225E3411400EC416340446AD208A6
:10404000A44653400268816B62449B1811240A0005
:10405000E2410C000135EC41890A62404A409B185C
:104060000364043042AB8342E0D1099A0AAB08985A
:104070000692059302CA02C39042FBD104920D9AA4
:104080000C9B93469C46424A0F9B924698465A4642
:1040900002924246109B60469946119B0A9D0B9FD7
:1040A0000E9C002600929C460BE03A4ACC46B25841
:1040B00002909246009A380000942F0091464446A0
:1040C0001D000B212300CB41984623000539CB412D
:1040D000414619224B402100D1414B4000992140DB
:1040E0008B464946A1438846594642465140884638
:1040F00020210AAA52189259434490460192029AEA
:10410000434490462A001339CA41634494462A0026
:104110000B39CA4161464A4053442900924616224F
:10412000D1415246514002008C4601007A402A405B
:1041300039404A4062449844D318802204365200E1
:104140009642B2D11A00009B414698464B461193C5
:1041500043460E9110930D900F940C970B950A9275
:1041600004980599069B00E00A681C680431A4467F
:10417000624404C39842F7D10399079B994200D047
:1041800040E753B03CBC90469946A246AB46F0BDD2
:10419000982F8A4254A7010010B5A82200210E4B87
:1041A0000400984788230D4AE2500D4A0433E25038
:1041B0000C4A0433E2500C4A0433E2500B4A0433F5
:1041C000E2500B4A0433E2500A4A0433E2500A4AEE
:1041D0000433E25010BDC046D172010067E6096A9F
:1041E00085AE67BB72F36E3C3AF54FA57F520E5118
:1041F0008C68059BABD9831F19CDE05BF8B557469A
:104200004E464546DE46E0B54026050040680F00B4
:104210001400361A964200D916001A4B0830281896
:1042200032003900984698476B68E3183F2B06D850
:104230006B603CBC90469946A246AB46F8BD08234D
:104240009946114BA944A41B4946280001229A46CD
:104250009847A3099B46B9191A002800D0472A6835
:104260005B46944601339B0163442B603F2321004E
:104270001A009943224089196A6079184846C04754
:10428000D7E7C0469B720100DD3F0000F8B505008E
:1042900040682B683F26C718092380225B421B1AFF
:1042A0001E40431C6B602B1809302F6028181A72AF
:1042B0000C00321D0021134B98476B68FF009C4691
:1042C0006644AB193A0E1A733A0C5A733A0A9A7347
:1042D0003200290008326A602800DF739209083131
:1042E000094B98472800A835883003220368A35457
:1042F00003681B0A0360013AF9D204300434A8426F
:10430000F3D1F8BDD1720100DD3F00000378F02049
:10431000002B00D07047094A0B620A60084A00204F
:104320004A60084ACA60084A8A60084A8A61084A9C
:104330000A61084A4A61084ACA61EBE7C1430000C2
:104340005D450000B545000061450000A148000042
:10435000614700004D480000F548000010B50028F6
:1043600001D0E12010BD0800014B9847FAE7C04694
:10437000F548000030B5104B85B01A685B68040042
:10438000029201930393D020042901D005B030BDDF
:10439000042202A92000094DA84703000020002B99
:1043A000F4D0042203A92000A8470300D020002B4A
:1043B000ECD10730EAE7C04654A801007D72010045
:1043C000F8B557464E464546DE46E0B54C790700FF
:1043D0000E00F025052C06D928003CBC90469946D5
:1043E000A246AB46F8BD342060434D4B8346994608
:1043F000D94498464B46DB6A002B06DD4A4601331A
:10440000D3624B4600253B62E6E7464B9A4652464E
:10441000454B5146536000239360137313768022FB
:1044200092030A6101225242CA8224228B542C2216
:104430008B5401328B540132CB610B628B628B54F3
:10444000D7330B861E33FF338B82FA21374B89001B
:10445000B0689847534618607379052BBCD8344A26
:104460009B00D3589F463423424663433149D15081
:1044700052465846304B0430D361304B40441362AF
:104480002F4B984734230722634343445D68EB690D
:104490001A42FCD13421022261432B684144134368
:1044A0002B604868274B8A4698471F2318401E3BBD
:1044B00083405146244A102013600A31002303E050
:1044C0000A880133934229D26A8B1042F8D03423F0
:1044D0005C437379444423630123E36291E734230B
:1044E000424663431949D150C2E7342342466343ED
:1044F0001749D150BCE73423424663431549D15094
:10450000B6E73423842142466343C905D150AFE75F
:104510003423424663431049D150A9E76883D6E764
:104520006C02002038020020480D0000E93D010027
:104530005CA80100001000420200160002001700F3
:10454000914B0000E5C2000000E100E0000C0042D9
:1045500000080042000400420004004300207047AD
:1045600030B5114B85B00D0014009847037901A9AF
:104570005B080B80002301340B724B728B72033388
:104580004D602B704C80437934205843074B0430E6
:104590001818074B984703005A1E9341F0205B42BE
:1045A000184005B030BDC0460D3F00006C02002031
:1045B0002D530000F0B5DE46574645464E4692461E
:1045C000E0B52A4B87B08B46984753461B8803AC0F
:1045D00001931900037905005B08238001236380A0
:1045E0005B46826A63605046002323726372A37243
:1045F0000380002907D1ED2007B03CBC90469946C6
:10460000A246AB46F0BD561E002A2CDD184B3427BF
:104610009846184B99466879210078430430404405
:10462000C84700281BD15B461B78E420032BE3D945
:10463000019A9BB29A42DED3013B63805B46013311
:10464000636068792100784304304044C8470028FB
:1046500007D15B4652461B7800201380CCE7013E11
:10466000D9D2F020C8E70120C6E7C0460D3F0000C0
:104670006C0200200D530000F0B5D6464F4646466A
:104680002F4BC0B589469847342345792D4E6B434F
:104690009A46B2441A1D53465C682B4F2000904640
:1046A000B8471F2318401E3B834080222749B0444F
:1046B0008B5053465968793ACB691A42FCD183230F
:1046C0000222237523762368FA2193432360204B2B
:1046D00034249A4652461F4B8900D38248461E4BCB
:1046E000984753466C4318605246315940461B4B1D
:1046F0009847072234196468E3691A42FCD13421CF
:1047000002224D4323687519134323606868B84734
:104710001F2318401E3B83400C4A102013600A35AB
:10472000002303E02A880133934207D2628B1042B0
:10473000F8D01CBC90469946A246F0BD6083F8E7CD
:104740000D3F00006C020020E5C2000000E100E027
:104750003802002010270000E93D0100914B0000C5
:10476000F0B5DE4657464E464546E0B52F4B87B07E
:104770000400019098472E4983680700866A9B468B
:104780008B4202D020002B4B98470023002234207C
:1047900003AD2B726B72AB72274B2A8098466A80EE
:1047A00002AA6A607B79290058430430234B4044B5
:1047B0009847234BB88C98473B79741E5B082B8035
:1047C00004236B8002AB6B60002E1DDD1D4B9A46EF
:1047D0003423994601E000281FD04B467879290000
:1047E000584304304044D0470600013CF3D2104BFC
:1047F0009B450DD1002E13D0F02007B03CBC904655
:104800009946A246AB46F0BD094B9B45F4D0012624
:1048100059460198074B9847ECE7054B9B45F7D164
:10482000042102A8084B9847E7E7C0460D3F000067
:10483000A0860100794600006C0200202D53000084
:10484000194900000D5300007543000000B5114BDD
:1048500085B09847037901A95B080B8001234B8041
:104860006B464B6000236A460B724B728B720233AD
:104870001370437934205843074B04301818074B02
:10488000984703005A1E9341F0205B42184005B040
:1048900000BDC0460D3F00006C0200202D530000FB
:1048A00000B5114B85B09847037901A95B080B80CF
:1048B00001234B806B464B6000236A460B724B72A0
:1048C0008B7201231370437934205843074B043013
:1048D0001818074B984703005A1E9341F0205B427B
:1048E000184005B000BDC0460D3F00006C0200201E
:1048F0002D53000010B5041E04D0C36A013BC362EF
:10490000002B01DD002010BD024B0430984700232E
:10491000E362F7E7B14E000010B5002800D1012096
:10492000014B984710BDC04679C4000010B500285F
:1049300003D10120024B984710BD024B9847FBE77B
:1049400079C40000A9C40000F0B5CE46474680B542
:10495000C6688FB00400002E10D04768002F0DD01D
:10496000037800259846032342461340012B07D9BC
:1049700028000FB00CBC90469946F0BDE225F7E741
:1049800081680029FAD00222835E2022002B37DBC7
:104990001D4B6846994698471422390008A8C84715
:1049A000162234236946CA546A4641460133D1541B
:1049B0000133D55437213200144B684698474023C1
:1049C0001020E168CA5C8243CA54E1680138CA5CBD
:1049D0008243CA54E1681130CA5C8243CA547F22C0
:1049E000E168C85C0240CA540121E36840335A7848
:1049F0000A435A7000214223E2680025D154B7E7E8
:104A00003000014B9847F5E79B720100A93F000079
:104A1000F0B5D6464F464646C0B5856898B0040006
:104A2000002D15D04769002F12D00678032E16D01E
:104A3000C16800290CD0022E00D17DE0E220052EB5
:104A400007D8504B20226846E8469A4698477FE0B0
:104A5000E22018B01CBC90469946A246F0BD016900
:104A6000E2200029F5D06388E84699461BB220224F
:104A7000002B00DBE168434B40469A46984741468D
:104A800015222023CA540133CE54424649460133ED
:104A9000D1544B4641461A0A23232720CA542A7A66
:104AA0000133CA542A780133CA546A780133CA548C
:104AB000684419220021344B9847032E1CD102224E
:104AC000A35E002B18DB2022216910A8D04717E035
:104AD0000422216908A8D0474146242327202A7AA6
:104AE0006844CA542A780133CA546A780133CA54D4
:104AF00019220021244B98472022390010A8D047C2
:104B00003A006021214B40469847012163694020CB
:104B100040335A780A435A702378022B20D040231E
:104B200020206169CA5C8243CA5461691138CA5C39
:104B30008243CA5400208CE70379002B0BD1114B20
:104B4000202268469A4698472379E846002BBFD131
:104B50006388994693E72369E220002BEFD178E739
:104B600063880F2BDBD820216269135C0B4313543D
:104B7000616962880F240B5C2240A34313430B54EA
:104B8000002066E79B720100D1720100A93F00007E
:104B9000F0B5DE464E4645465746E0B50500AC4BFF
:104BA00089B02960080014000E009B469847A94A66
:104BB000052800D1EFE001238340D16912300B4377
:104BC000D361C7B2237B06AA137011003800A24B31
:104BD00098473800A14B9847A14B207B002198476C
:104BE00033681C209B0706D509B03CBC904699460B
:104BF000A246AB46F0BD0127336817383B409846C4
:104C0000F2D12868D84782469649974B9847534631
:104C1000964A9B009D5043462B766B7600239A461E
:104C2000434652466B83AB832523EA5443462B62AB
:104C3000142333602B6807AE18009946D8478023A9
:104C4000337053460090E069B7707370F370276A51
:104C5000002800D1B4E0022330707370000C844B44
:104C6000C0B231009B469847002F00D1ADE002232F
:104C700037703F0C3100F8B29A467370D847A38A58
:104C80008021EB80E38A2B81237E002B00D188E0FA
:104C9000A268236913430B432421615C002902D0DD
:104CA0008021C9050B43A16A0B432C21615C0029BB
:104CB00000D17FE08022120513432D22A25C002A3E
:104CC00002D08022120413432E22A25C002A02D0BA
:104CD0008022D20313434A461268009813434A467F
:104CE0001360802312305B00FA255360C0B2614B21
:104CF00098472368AD005D435F4B05909B469847FE
:104D0000009001916800D84702900391208ED84707
:104D10005A4B06009A460F0000980199584A594B81
:104D2000D04702000B0030003900D0470022564B1C
:104D3000564FB847060028000F00D84702000B0066
:104D400030003900D047524D02000B000098019905
:104D5000A847029E039F4D4D32003B00A84700220A
:104D60004C4B4B4DA84732003B004B4DA8474B4F97
:104D7000B8478023A26806009B049A422BD04020AB
:104D8000FF2E00D930E70023424613431E434B4613
:104D90000020DE6028E70221136A18270B43136204
:104DA00010E752463E4B9B781A4013005A1E93411F
:104DB000D9016DE7802189048A4200D07DE779E737
:104DC00000214846374B984745E701214846354B77
:104DD000984707004BE7FA2361689B004B43009814
:104DE0000199984602000B00284CA0470400404659
:104DF0000D00D84700222C4BD04702000B002000AA
:104E00002900254CA0470022224B214CA047B8473F
:104E1000041E13D0254B4146059898470238031BC2
:104E20004020FF2E00D9DFE6FF2B00D9DCE6FF2271
:104E30001B041204134098462306A5E74346590075
:104E4000059B481E9C46194B60449847431EE7E764
:104E5000116900000004004059CF0000E9CE0000B5
:104E60008567000001540000A1C200009C130020CF
:104E70008DD000007DCF00000D6D0100F5600100B8
:104E800095D626E80B2E113E000024406D520100FD
:104E9000F56501000000F03F8D580100216C010014
:104EA00000200041CD67000000000840E93D0100FE
:104EB00070B5072205000468E3691A42FCD120009E
:104EC000124EB0471F2318401E3B802283401049DA
:104ED0008B502968793ACB691A42FCD1832302228C
:104EE000237523762368934323600A4B98472868E9
:104EF000B047094B9847094B984707222968CB6967
:104F00001A42FCD10123236070BDC046E5C20000F7
:104F100000E100E09DC80000ADCF0000D9C800004E
:104F2000802370B50668DB02726801241343736046
:104F3000716202680023022507E0117E0D4207D14D
:104F4000013301899BB2994206D9117E0C42F4D0FB
:104F500000200123337670BD1220FAE7F0B55746E2
:104F60004E464546DE46E0B54B88066898463368AF
:104F700083B01B01DB0F01934B7A04000F00002B61
:104F800000D0F2E07368884A134073603B7A002BCC
:104F900034D03B887A7A5B0092031343802212025A
:104FA00013437362226800230120022508E0117E6A
:104FB0000D4208D1013321899BB2994200D8ECE01F
:104FC000117E0842F3D07368774A1340022273605F
:104FD0002368197E0A4200D1D3E01A765B8B1A420D
:104FE00000D0A7E0782201213B881B0A13437A7A7C
:104FF0005B0092030A431343736207E03B887A7AAB
:105000005B0092031343012213437362226800235F
:105010000120022508E0117E0D4208D101332189CB
:105020009BB2994200D8A4E0117E0842F3D000233D
:105030000093019B002B00D072E073685A4A134022
:105040007360009B002B63D102222368197E0A4201
:1050500000D191E01A765B8B1A426BD14546534AD8
:10506000013DABB29246202298469346193A9446A7
:1050700042460023B04601200225B9461600564597
:105080002CD042465946528B114253D0E27A002A24
:1050900004D0019A002A50D0012E50D021686746D2
:1050A000CA691742FBD128214246525C49464968E9
:1050B0005F1CCA54BFB22268002307E0117E0D4274
:1050C00007D1013321899BB2994244D9117E08420C
:1050D000F4D03B00013EB6B25645D2D14F46994678
:1050E000A37A46462268002B09D00721D3691942CA
:1050F000FCD1C02372689B021343736022680721AE
:10510000D3691942FCD128234946F25C7B685A5482
:10511000009803B03CBC90469946A246AB46F0BD11
:105120007B88012B00D088E780237268DB02134361
:10513000736086E741230093EAE7002EAED1424632
:1051400051688022D2020A431F004146013E4A6054
:10515000B6B23B00C0E74B46B9461F00122300938E
:10516000A37A4646002BCAD0BFE7897A104B9847EE
:1051700008E7122300935CE75A8B520700D46DE7CF
:1051800003E05A8B520700D42CE7C02259689202E0
:105190000A435A6018230093BAE77368024A13401F
:1051A000736012230093B3E7FFFFFBFFFFFF0000D4
:1051B000214F0000F0B54546DE4657464E46E0B565
:1051C00083B001914B880400984607220568EB697B
:1051D0001A42FCD1019B5B7A002B00D089E06B68FE
:1051E000484A1340019A6B60137A002B55D01388FC
:1051F000527A5B00920313438022120213436B62C4
:10520000226800230120022607E0117E0E4207D10A
:10521000013321899BB2994269D9117E0842F4D0A9
:105220000223117E0B4240D01376528B134246D19B
:105230000023994620339A4608339B46019BAC468F
:1052400007264D46012002279946A84557D06346B8
:1052500052465B8B1A4232D02268D3691E42FCD17F
:105260004B46624659465B685B5D53542268002397
:1052700007E0117E0F4207D1013321899BB2994289
:1052800025D9117E0842F4D0634604225B8B013598
:105290001A42DAD065461E201BE0019A1388527A22
:1052A0005B00920313436B62AAE7538B5B07BFD586
:1052B000C02351689B020B435360182000E041203B
:1052C00003B03CBC90469946A246AB46F0BD65464D
:1052D0001220A37A002BF3D007222168CB691A424F
:1052E000FCD1C0236A689B0213436B60E8E712207D
:1052F000E6E7019B2000997A034B98476FE76546E4
:105300000020E6E7FFFFFBFF214F000010B5828B76
:1053100003000520002A00D010BD01329A72DA7213
:105320001800014B9847F7E75D4F000010B5828BDE
:1053300003000520002A00D010BD01329A72DA72F3
:105340001800014B9847F7E7B551000030B50568E4
:105350002A68448B838BE41A838BA4B2013B9BB2F3
:10536000838313011ED5C37A2A00002B28D1838B97
:10537000002B0CD1837A002B09D00721D369194265
:10538000FCD1C0236A689B0213436B60026807214B
:10539000D3691942FCD1036A1C192823EB5CDBB2E8
:1053A000237030BDC37A2A00002BE0D0838B002B02
:1053B000DDD180236A68DB0213436B600268D6E7A5
:1053C000838B012BD3D1F4E710B50268538B5B07B5
:1053D00012D40721448B838BE41A838BA4B2013B44
:1053E0009BB28383D3691942FCD12821036A1C191B
:1053F0002378DBB2535410BD1E222523C254FAE792
:1054000070B56B4B8000C45826683368627E257E79
:105410001B011540628BDB0F002A03D1A28B002AEF
:1054200000D06AE0628B002A07D0A28B002A04D148
:105430002532A15C052900D18CE0628B002A0FD0B7
:10544000A28B002A0CD0728B920600D57AE0002B3A
:1054500003D0A38B012B00D174E041222523E25419
:10546000638B002B02D0A38B002B1ED02523E25C84
:10547000052A19D0E25C002A16D0032232750022D8
:105480006283A283E35C412B0CD0A37A002B09D06A
:1054900021680732CB691A42FCD1E0237268DB0233
:1054A000134373606B0724D470BD2533E35C052B75
:1054B000DCD11F33E35C012BD8D1327E01331342A0
:1054C00000D0337603233375002300226383253312
:1054D000E254AB0703D52423E35C012B63D0EB0735
:1054E000C4D52423E35C002BC0D1E3682000984797
:1054F000BCE7636920009847D6E70123327E134258
:1055000018D03376728B0133134045D1728B52071A
:1055100010D518212522A154A383A37A002B09D0EA
:1055200021681E3ACB691A42FCD1C02372689B02E3
:1055300013437360A38B9BB263832523E35C052B2A
:1055400000D08DE72423E35C2000002B21D0194BF1
:10555000984785E71F31615CC9B2002900D06CE72C
:105560000323337500236183A354A37A002B17D040
:1055700021681E3ACB691A42FCD1C02372689B0293
:1055800013437360EB0700D46AE7E3682000984791
:1055900066E7094B984763E741222523E254C9E7B0
:1055A00001233376EEE72369200098475EE7C04683
:1055B0009C1300204D530000C9530000F0B5C646AF
:1055C0000C0000B59046002812D1002A0DDD0A4ECD
:1055D0000A4D8F18210030682B6801349847BC426F
:1055E000F8D1404604BC9046F0BD00239846F8E749
:1055F00001235B429846F4E7900D0020880D0020BF
:10560000F0B5C646013800B50E001500022810D8C6
:105610000024002A0FD00A4B0A4F984602E00134BA
:10562000A54208D04346315D18683B68984700287A
:10563000F5DA01246442200004BC9046F0BDC04667
:10564000900D00208C0D0020F0B583B06B469C1DA2
:10565000002306000F00054D238021003000A847DD
:105660000028FAD123883B7003B0F0BD0D5C000028
:1056700070B50600034D8CB221003000A847002809
:10568000FAD170BDE95B000030B583B06B46DC1D1C
:10569000012221000D4B0E48984772B6BFF35F8F71
:1056A00000200C4925780C4A0B780C4C1070E554FE
:1056B0009B2B08D001330B7001231370BFF35F8F56
:1056C00062B603B030BD0870F6E7C046315D000039
:1056D000A4030020740400200C000020D803002044
:1056E000F0B591B06946FF2280230A81012524226A
:1056F000DB05009300238D5401328D5401328B540D
:1057000001328B5405328B5401328B548B72CB7225
:105710000B8201930A93059313238B7680235B03FB
:105720000393314B00220C93304B314C0D930123EA
:105730005B420E930F93E1235B0208932D4BCA76D5
:105740000A760A774A764A771C602B4A2B4B2C49FB
:105750001A602C4A2C4B20001A606A462B4B984743
:105760002B4F2C4E3B6800219868B0473B680021C6
:105770005868B0472668284B300098471F231840C8
:105780008540264B1D602268D369002BFCD1022284
:105790003368134333602368DA69002AFCD180221E
:1057A000596852020A435A600122E271DA69002AFA
:1057B000FCD1DA69002AFCD18022596892020A439E
:1057C0005A600122A271DA69002AFCD11449012031
:1057D000144B984704220A4B9A75104BFD32FF3246
:1057E0001A6011B0F0BDC0460200100002001100A6
:1057F000A4030020900D0020715600008C0D0020A5
:105800000004004249560000880D00208D58000019
:105810001000002059760100E5C2000000E100E020
:1058200089560000A1C2000070B5134C134B2568C7
:10583000280098471F2318401E3B802283401049B0
:105840008B502268D369002BFCD102222B68934332
:105850002B602368DA69002AFCD1596809480140A5
:105860005960E271DA69002AFCD1596806480140A2
:105870005960A27170BDC046A4030020E5C20000BB
:1058800000E100E0FFFFFEFFFFFFFDFFF0B5454632
:10589000DE464E465746E0B50500C54B91B029603F
:1058A000080099460C00904698470300052800D14F
:1058B00002E10600070012360122216805200A4293
:1058C00006D011B03CBC90469946A246AB46F0BD0E
:1058D000216817308907F4D4052B00D134E1BA4090
:1058E000B44BD9690A43DA612D274346DB5D0AA927
:1058F000F6B20B703000B04B98473000AF4B984772
:1059000043460021D85DAE4B98474346DB7A42467A
:105910006B712423D35CAB712523D35CEB71D37EF5
:105920002B72137F6B722B6818009A46C8470528A4
:1059300000D107E1123000230CAE338043461A8AAF
:1059400080230292DB019A4200D108E100D8F0E006
:10595000C023029ADB019A4200D1B0E080231B02EF
:105960009A4200D0F6E003230993002308934346AC
:105970001B68424603934346DB68049343465B69D6
:10598000059343461B7E06932623D35C07935368F7
:105990009B46002B00D1B8E080235B059B4500D0DF
:1059A000B1E02723D25C0023002A00D1F3E0424675
:1059B000527E002A03D042465146927E8A73524656
:1059C0009381049A039B029F1343059A13435A46FB
:1059D00013431F43069B42461B021F43079B5B0763
:1059E0001F432723D35C002B01D104331F434346BD
:1059F00042465B7E127F9B02520213434246527F15
:105A000041461202134324228A5C52041343252286
:105A10008A5C120413438A7AC97A0A431A434346BA
:105A200019891000FF2900D19EE080235B041F43E9
:105A300008432C214346595C002903D1614B9B78D4
:105A40009B0701D580231F432A68D369002BFCD113
:105A5000534658602A68D369002BFCD1524608A9E6
:105A600017604B73CB738B734346186B5B6B802251
:105A7000736043469B6B0027B3604346DB6B0A733E
:105A8000F360514B0C909B46504BF9B29A4600285C
:105A90000FD0431C05D008AB1873000CC0B20BA983
:105AA000D0470137042F0FD0BB00F058F9B20028BF
:105AB000EFD12000D847ECE718260127FCE60823A1
:105AC0000993073B089352E700230022EB85EB6024
:105AD0002B616B61AB61EB612B62AB626B62AB857F
