:10000000F83B0020052E0000012E0000012E00000C
:1000100000000000000000000000000000000000E0
:10002000000000000000000000000000012E0000A1
:100030000000000000000000012E0000012E000062
:10004000012E0000012E0000A51100003D09000056
:10005000012E0000012E0000012E0000012E0000E4
:100060003116000041160000511600006116000014
:100070007116000081160000012E0000012E000004
:10008000012E0000BD290000CD290000DD2900005F
:10009000ED290000FD29000089060000012E000066
:1000A000012E0000012E0000012E0000012E000094
:1000B0000000000010B5064C2378002B07D1054B3B
:1000C000002B02D0044800E000BF0123237010BDC4
:1000D000080A002000000000249C0100084B10B515
:1000E000002B03D00749084800E000BF0748036819
:1000F000002B00D110BD064B002BFBD09847F9E731
:10010000000000000C0A0020249C0100249C010037
:100110000000000070B50020084B98470500084C0F
:10012000FA218900A047074B186007492800A0471B
:10013000064B18600522064B1A6070BDED260000C4
:1001400079EA00000000002040420F000400002077
:1001500010E000E030B5084B1C68084A00258021FB
:100160004902013807D3002CFBD054609560136816
:100170000B42FCD0F5E730BD0400002010E000E0A9
:1001800030B5084B1C68084A002580214902013817
:1001900007D3002CFBD05460956013680B42FCD051
:1001A000F5E730BD0000002010E000E00C4B1B68BC
:1001B000002B06D1EFF31083002B07D00022094B50
:1001C0001A70074A136801331360704772B6BFF3A1
:1001D0005F8F0022044B1A700132024B1A70F0E755
:1001E000240A0020280A002008000020084B1A6872
:1001F000013A1A601B68002B09D1064B1B78002BB3
:1002000005D00122044B1A70BFF35F8F62B67047AE
:10021000240A0020280A002008000020F0B583B03E
:1002200001AC012565700023A370257021000D200D
:10023000074FB847074E80239B017361257021004B
:100240001220B8478023DB02736103B0F0BDC046C3
:10025000990E0000002800400020704710B50023D0
:100260000022037043708370C37000210383036214
:10027000C36106240471C0246401C4800172427207
:100280008272C27202732A24025542738273C2734D
:1002900003610275063C0255C3840385417510BD98
:1002A000F0B5CE4600B598B005000C001600080069
:1002B000B24B98472C60B24A136A08210B43136271
:1002C00022780523D20704D5180018B004BC914643
:1002D000F0BD2A68138C9BB2002BFBD122781C3313
:1002E0009207F1D473782B71002B04D1A54AD369FE
:1002F00004210B43D3610023AB60EB602B61AB7631
:10030000EB762B832B7780009F4BC5502A23F35C21
:10031000002B05D1337B002B02D101336B7701E039
:1003200000236B772F6833786A46137069461E2066
:10033000964B98471E20964B9847347958229549FA
:1003400002A8954B9847132C0BD9F4885822914951
:1003500002A8914B9847132C11D900248E4B994633
:100360001EE0A40002ABE05801A900234B70CB7043
:100370008B7001330B70C0B2884B9847E5E7A4003F
:1003800002ABE05801A900234B70CB708B70013396
:100390000B70C0B2814B9847DFE70134142C18D0A2
:1003A0000123A34032691A42F7D05822794902A8A2
:1003B000C847132CF1D8A30002AA985801A900231A
:1003C0004B70CB708B7001330B70C0B2734B98477E
:1003D000E3E7737B9B01B27BD2011343DBB23B703B
:1003E000337DDB0172781343DBB2BB70F378342BBF
:1003F00000D940E19B006A4AD3589F46042210204E
:1004000002211AE0717A327A102016E006221020BA
:10041000012112E00822102000210EE000223020ED
:1004200000210AE000222020002106E00022002016
:10043000002102E0022210200121090170230B405B
:1004400013433B732A68138C9BB2002BFBD1727D44
:1004500017333F2A00D937E7F37BDB011A43D2B2C7
:100460007A732A68138C9BB2002BFBD1B3787B7014
:100470002423F35CDB00327B92001A43F37A1343AC
:10048000B27A5200134303437B812A68138C9BB2D8
:10049000002BFBD1328B002A20D0102800D1C9E0DC
:1004A00000D883E0202800D1A3E0302816D1F37AC9
:1004B000002B0AD0F16980311723FF2900D903E707
:1004C000316A8031FF2900D9FEE61723F169FF293F
:1004D00000DDF9E6316AFF2900DDF5E67B891A4384
:1004E0007A812A68138C9BB2002BFBD1B38BFB81E2
:1004F0002A68138C9BB2002BFBD1338C3B822A6879
:10050000138C9BB2002BFBD13379F28813433B81D0
:100510002A68138C9BB2002BFBD12A33F35CFB704F
:1005200007233B711D33F35C002B1BD0F28C1D495C
:1005300017238A4200D9C7E67A822A68138C9BB2B5
:10054000002BFBD1318D80231B01CA18154892B2B4
:100550001723824200D9B7E6B9822A68138C9BB26E
:10056000002BFBD1104B1B681A02E021C9000A4086
:100570009B065B0F1343BB850023A5E659020000D1
:1005800000040040001400403C100020C927000077
:1005900059270000B4830100611C0100C528000038
:1005A000E0820100FF0F000020608000002895D14C
:1005B000F37A002B12D0F369802000018446634453
:1005C00019002E481723814200D97DE6336A63441F
:1005D00019002A481723814200D975E627491723B5
:1005E000F069884200DD6FE6306A884200DD6BE624
:1005F00074E7F37A002B12D0F369802080008446E0
:10060000634419001E481723814200D95CE6336A0F
:10061000634419001A481723814200D954E6184947
:100620001723F069884200DD4EE6306A884200DD1B
:100630004AE653E7F37A002B12D0F36980200002D8
:100640008446634419000F481723814200D93BE6D2
:10065000336A634419000B481723814200D933E6FB
:1006600008491723F069884200DD2DE6306A884288
:1006700000DD29E632E7172326E6C046FF0F00001B
:10068000FF030000FFFF000070B52F4B1C682368BC
:100690009A795D791540EA072AD501229A71626933
:1006A000931C636123689B8C9BB21380238B013B5B
:1006B0009BB22383002B15D0637F002B18D02268B8
:1006C000D3795BB2002B13DB138C9BB2002BFBD1D5
:1006D000137E02210B4313762268138C9BB2002BEE
:1006E000FBD105E0012322681371237F052B16D06F
:1006F0006B0708D5042322689371E37E9B0702D51C
:10070000A37E9B0717D4AB0708D5022322689371F9
:10071000E37E5B0702D5A37E5B0710D470BD002388
:100720002377E37EDB07E3D5A37EDB07E0D520005C
:10073000A3689847DCE72000E3689847E3E723696C
:1007400020009847EAE7C0463C10002001230370D0
:10075000002343708370C37003710F224271837151
:10076000C371037270470268136802210B43136060
:1007700070470323026853710268D37102681368DB
:1007800002218B431360704770B504000D00D378CD
:1007900003712160537843711379837113789B023D
:1007A0009178C9020B43517809020B43D178890033
:1007B0000B43117949010B4391798903D0794003A7
:1007C0000143107A0003014352791204F020000320
:1007D00002400A4313431E002B689B0701D42E607E
:1007E00070BD2000034B98472E602000024B9847B5
:1007F000F6E7C046730700006707000070B5054CB8
:10080000E56980239B012B43E36101230B60024BCD
:10081000984770BD000400408907000070B5437917
:10082000012B05D0002B10D0022B0DD1082500E0A4
:100830000625002310C99A1C92000668B44662443B
:1008400054600133AB42F5D370BD0425F1E70000DD
:1008500010B50023026813720F4B426813400F4A11
:1008600093420AD00379032B0ED00C001034036896
:1008700004C99A638C42FAD110BD03680A689A636E
:1008800003684A689A63F7E78379023B012BECD847
:1008900003680A689A63EFE7FF00FF0003000100A6
:1008A000002302681372104B426813400F4A9342B0
:1008B0000AD00379032B0ED00A00103203689B6B19
:1008C00008C18A42FAD1704703689B6B0B600368CA
:1008D0009B6B4B60F7E78379023B012BECD80368F5
:1008E0009B6B0B60EFE7C046FF00FF0003000100B9
:1008F0001723002A01D0180070478B00064A9B5826
:10090000002B03D0834205D01D23F4E789008850D3
:100910000023F0E70023EEE744100020172300290E
:1009200001D01800704700221F2800D8024A012376
:10093000834013610023F4E70024004070B50022D7
:10094000104B1A70002310491F25104E0D4C0AE061
:100950000D4908E023780133DBB223700F2B10D848
:1009600000211F2BF4D92800184001228240486939
:100970001042EFD04A619B009B59002BEAD0984768
:10098000E8E770BD40100020002400404410002023
:10099000064A137802210B43137001205368194251
:1009A000FCD153681842F9D17047C046002400407A
:1009B000064A137802218B431370012053681942B1
:1009C000FCD153681842F9D17047C046002400405A
:1009D00010B5124A516980239B000B435361104AA2
:1009E000137801210B431370013101205368194220
:1009F000FCD153681842F9D1094A137810210B43EE
:100A00001370084B19004031002204C38B42FCD103
:100A10000822054B1A60054B984710BD00040040A2
:100A2000002400404410002000E100E09109000093
:100A30000023036043600122027283720132C2729A
:100A400043727047F0B583B005000C001C4B98470B
:100A500001A900234B70CB7023790B70237A8B7024
:100A60002078184B984700211F2D00D816490722DF
:100A70002A409200E77AA37A002B01D008231F4373
:100A8000EB089B00CB18D8690F269640B0439740DF
:100A90003A000243DA61637A002B0BD18A690123A1
:100AA000AB40DB431B041B0C13408B61074B984787
:100AB00003B0F0BD8A690123AB4013438B61F5E7B6
:100AC000B1090000C5280000002400409109000081
:100AD00010B51E4A936904210B4393611C4B2022DD
:100AE000FF321A831A7D0523D20701D4180010BDE6
:100AF00003781B02C022920013404178C901FF22F3
:100B00000A401343817849001E220A401343C278E9
:100B100092048021C9020A40134302791204C021C1
:100B200089020A4013430A4A536093685B035B0FD0
:100B3000084908249C400C8093684B8043780B71D3
:100B4000138BDB05DB0F1B01D0E7C0460004004020
:100B5000004000412C0A002030B5304A14885388E8
:100B600063438B420BD2802292012D4BCB189342D0
:100B700005D92C4C18232C4A8A18A2420ED82B4B8C
:100B80005C688022D20222435A602022FF321A83FC
:100B90001B7DDB0704D4254B5C600523180030BDAA
:100BA000452829D88300224AD3589F461F4B1B8BC8
:100BB000DB0503D51D4B5C601023EFE78908490076
:100BC0001A4BD96103E089084900184BD961FD230C
:100BD00005001A3D1D4013D0A5231B021843134BDB
:100BE0001880190001220B7D1342FCD0002D0FD07C
:100BF0000E4B5C600023D1E70C4B5C601723CDE704
:100C00000A4B59688022D2020A435A605B68E3E7C4
:100C1000064A536807490B405360E9E72C0A002055
:100C200000C07FFFFF1F00000000C0FF0040004128
:100C30000C840100FFFFFBFFF8B52F4B1C885B887D
:100C40006343834207D22D4E18252D4BC318B34260
:100C500006D8012600E00026631E1825184201D0A0
:100C60002800F8BD013D9442FAD3264B1B7D123D6E
:100C7000DB07F5D5244C234B1C801D0001242B7D64
:100C80002342FCD02024FF341E4B1C83002A2CD08E
:100C9000012305009D430023541EA44609E0CF18FC
:100CA0007F783F023C432C8002339BB202359A424C
:100CB00004D9CC5C6345F2DBA4B2F4E70E4B1B799C
:100CC0000025002BCCD13F2ACAD8002E06D1002205
:100CD000010004200D4B98470500C1E700220100E8
:100CE0001C200A4B98470500BAE7034B1B790025E7
:100CF000002BEAD0B4E7C0462C0A0020FF1F0000FA
:100D00000000C0FF0040004144A5FFFF590B000058
:100D100070B51B4B1C885B886343834205D2194E18
:100D20001825194BC318B34203D8631E182518425F
:100D300001D0280070BD013D9442FAD3134B1B7DB6
:100D4000123DDB07F5D52024FF34104B1C83002A0D
:100D500014D0012398430023561E04E002339BB2B3
:100D600002309A4208D90488A4B2CC54B342F5DACE
:100D7000CD18240A6C70F1E70025DAE70025D8E7E2
:100D80002C0A0020FF1F00000000C0FF00400041AF
:100D900010B5224A138852885A43824207D2204C07
:100DA000182220494118A14207D8012400E000245C
:100DB0009B00013B1822184201D0100010BD1A4BB5
:100DC0001B7D133ADB07F8D5174B2022FF321A831D
:100DD00080084000D861002C1BD059688022D202C4
:100DE0000A435A605A68114A1A800F4901220B7D42
:100DF0001342FCD0002C04D00B4A53680C490B4022
:100E00005360094B1A8B1C200240501E82419200F5
:100E1000D3E7084A044B1A80E7E7C0462C0A0020B3
:100E2000FF1F00000000C0FF004000411AA5FFFFA7
:100E3000FFFFFBFF02A5FFFF154B2022FF321A83A5
:100E40009B685903490F183AFF3A8A400270438061
:100E50001B0D83810F4B1B885B065B0F072B10D08C
:100E60000622D21A0423934043600A4B1B880722B0
:100E70001340072B08D00722D21A04239340836023
:100E8000704700234360F0E700238360F8E7C04623
:100E9000004000410040800000B583B001AB8022DB
:100EA0001A700A785A704A789A708A78DA7019003B
:100EB000014B984703B000BDC528000003681869BE
:100EC000431E9841C0B2704770B504000668042202
:100ED000084B1A60084D2000A8470028FBD1338832
:100EE000022213433380044D2000A8470028FBD181
:100EF00070BDC04600E100E0BD0E000070B504000A
:100F00000668042180230A4AD1500A4D2000A847D0
:100F10000028FBD1084B3381B381338802229343ED
:100F20003380044D2000A8470028FBD170BDC04687
:100F300000E100E0BD0E0000FF81FFFF70B504007E
:100F400006680A4B98470023A386E386084D2000D5
:100F5000A8470028FBD13388012213433380044D76
:100F60002000A8470028FBD170BDC046FD0E000040
:100F7000BD0E0000F8B504000E0007680C4D2000FF
:100F8000A8470028FBD12379002B09D01720012B7B
:100F900005D1BE61064D2000A8470028FBD1F8BD51
:100FA000044B17209E42FAD8B6B23E83F2E7C04601
:100FB000BD0E0000FFFF000070B504000668084D7C
:100FC0002000A8470028FBD12379002B04D0002063
:100FD000012B00D1B06970BD308B80B2FBE7C046F9
:100FE000BD0E0000F0B583B0040001911500066845
:100FF000134F2000B8470028FBD12379002B0ED0D7
:10100000012B19D11730012D17D80835AD00019BE0
:10101000AB510B4D2000A8470028FBD10DE0172055
:10102000022D0AD8074B019A9A4206D86B469B8834
:1010300010356D00AB53ECE71A2003B0F0BDC0468D
:10104000BD0E0000FFFF000070B504001500016038
:101050001F4A516980235B000B43536105221D4BDE
:101060001A611D4B9847AB7823711C4B1C6022689A
:101070002B79DB0329880B439BB21380AB78002BC1
:1010800013D01720012B0FD113889BB21380EB785C
:10109000002B03D0138880210B431380A968002202
:1010A00020000F4B9847002070BD138804210B438C
:1010B0001380EB781720002BF6D10022A9682000BE
:1010C000074EB047E96801222000B0470020EBE757
:1010D00000040040001000403D0F0000841000207C
:1010E000E50F00000A2A09D0072A07D90379002B47
:1010F00010D0012B12D11633092A09D8931C9B005A
:101100001950838E012191400B439BB283860023AB
:101110001800704717230A2AFAD8EFE71723F7E7D2
:1011200010B502680A2911D0072912D980235B0063
:101130000C00083CA340C024A40023405381C38E6C
:1011400001228A4013439BB2C38610BD044B5381D6
:10115000F5E701248C40FF2323405381EFE7C0468D
:101160000080FFFF10B502680A2910D0072911D9A5
:1011700080235B000C00083CA340C024A400234053
:101180001381C38E01228A409343C38610BD044B52
:101190001381F6E701248C40FF2323401381F0E7FD
:1011A0000080FFFFF8B5DE4657464E464546E0B59F
:1011B0002B4B1B689A461E68DB8E5246928E1A4055
:1011C0009046B289738913401AB2002A08DBFF27C0
:1011D0001F402AD0002401239946FE339B4614E089
:1011E00043465B0507D41F4BB3813CBC90469946F0
:1011F000A246AB46F8BD53461B6B9847F3E75B46E8
:101200001D40B5810134082CEFD023004D46A54088
:101210002F42F4D04246224149461142EFD00233D8
:101220009B0052469B589847E9E7DA050AD54346A2
:10123000DB0503D480235B00B381D6E753469B6A6A
:101240009847F7E79B05D0D543469B0503D48023F9
:101250009B00B381C9E75346DB6A9847F7E7C0466E
:10126000841000200080FFFFF0B5DE4657464E4652
:101270004546E0B587B08046049116001F00002265
:10128000002300218B463F24012021000096019776
:101290005C4603944446059413E02024641A050038
:1012A000E540A84614E0009C019D121BAB415C4642
:1012B0004D462C43A346039C45462C4303940139D9
:1012C00025D3202464420C19E7D40500A540A84684
:1012D00004008C40A14692185B4114001D00059E3D
:1012E0004F463E40B446049E47463E40B2466646A0
:1012F00057463E4303D00600264332002B00009C95
:10130000019D9D42DBD8CED19442D8D8CBE7039B38
:101310005846190007B03CBC90469946A246AB46D9
:10132000F0BD10B5490840230024814202D21800C4
:1013300010BD1C00091A631C9BB28842F9D94023D6
:10134000FF2CF4D814800023F1E70000F0B583B03F
:101350000F00160008AA117804004C434022BC423A
:1013600002D9100003B0F0BD002B14D10200080018
:101370000021194CA04701003A0000230020174C1F
:10138000A04700220123121A8B41120C1B041A439E
:1013900032800022E5E70022012BF9D10A00002368
:1013A00000210D4CA04702000B0000920193380071
:1013B00000210A4CA047050080239B01402298424F
:1013C000CFD8790FF800009A019BA047EA00821A53
:1013D000D2B252032A43DBE795EE00006912000007
:1013E00010B582B004000E4B1B78002B07D00029EB
:1013F00005D10B4B5B78834210D01D200CE001A976
:101400000C701120074B98471120074B9847044B4D
:101410005C7001221A70002002B010BD0020FBE7B2
:10142000340A0020C9270000592700003C4B98428D
:1014300032D00AD93B4B98424ED03B4B984255D0C4
:101440003A4B984238D0002070478423DB059842FD
:101450000CD0374B9842F6D1012917D0002957D02C
:10146000022915D0032915D00020EDE7012907D066
:1014700000294BD0022905D0032905D00020E3E73D
:101480002C48E1E72C48DFE72C48DDE72C48DBE778
:101490002C48D9E72C48D7E7012907D0002939D0B3
:1014A000022905D0032905D00020CDE72748CBE746
:1014B0002748C9E72748C7E7012907D000292BD0CB
:1014C000022905D0032905D00020BDE72248BBE74B
:1014D0002248B9E72248B7E7022903D0032903D0FD
:1014E0000020B1E71F48AFE71F48ADE7012907D04B
:1014F000002913D0022905D0032905D00020A3E735
:101500001A48A1E71A489FE71A489DE71A489BE73F
:10151000032099E7194897E7194895E7194893E791
:10152000000800420010004200040043000C00428A
:10153000000400420300050003000600030007004A
:101540000300010003001E0003001F000300090048
:1015500003000A0003000B00030011000300120047
:101560000300130003000E0003000F000300170028
:101570000300180003001900030004000300080022
:10158000030010000300160030B587B00B4B6A460D
:1015900032CB32C232CB32C2009B83420BD001230A
:1015A0009A0069465258824206D00133062BF7D181
:1015B000002007B030BD0023D8B2FAE7248501002F
:1015C00070470000F0B50A4B1B78002B0CD1094F77
:1015D000094E0A4D0024DE515A1914600433182BA9
:1015E000F9D10122024B1A708000024BC150F0BDAC
:1015F000360A0020380A0020C1150000881000209B
:1016000000B583B008236A46137001335370013369
:1016100093700133D3700133137101335371034B52
:1016200098476B46185603B000BDC04689150000A8
:1016300010B5024B1B680020984710BD380A0020E7
:1016400010B5024B5B680120984710BD380A002096
:1016500010B5024B9B680220984710BD380A002045
:1016600010B5024BDB680320984710BD380A0020F4
:1016700010B5024B1B690420984710BD380A0020A2
:1016800010B5024B5B690520984710BD380A002051
:10169000F0B5D6464F464646C0B58AB006000F00A4
:1016A000140031600B689B070AD40B680520DB0728
:1016B00000D497E00AB01CBC90469946A246F0BD03
:1016C000936A0593D36A0693136B0793536B08933E
:1016D00000250AE038009A4B98470EE00F23184087
:1016E000814530D10135042D31D0E9B2AB0002AAD9
:1016F0000C201218D0580028ECD0431CF2D0010462
:101700000B0C9946000CC3B29C460023020605D47C
:1017100063465B09DB018B4A904643441F226046C7
:101720000240981840300078824680205146C90710
:10173000D6D552089B1830331878C0B26346DB0701
:10174000CCD50009CCE7002333601C20B2E7112080
:101750007D4B984722780025012A26D06368A2682D
:101760001343E26813432B43227C617C002901D0A0
:1017700080210B43A17C002902D0802189020A43E9
:10178000E17C002902D0802189000A43217D0029C3
:1017900002D0802189010A433968022003438B4229
:1017A00017D0002333601C2084E704AA0100A0693D
:1017B000664B984703001720002B00D07AE73B7B4D
:1017C000DBB204AA127805309A4200D072E70C35D9
:1017D000C4E77B689342E4D123787371237CB371AF
:1017E000002067E708005A4B9847052800D19FE082
:1017F000030012335749CD69012282402A43CA614E
:1018000009A92425625D0A70DBB201931800524BCE
:1018100098470198514B9847605D0021504B98477D
:101820002378012B19D03368984604AB80221A70B4
:1018300000225A7001219970DA702378002B01D1AF
:1018400004AB9A70A36A0593E36A0693236B07932C
:10185000636B0893002705AD11E03B680C2213432E
:101860003B60E0E74046364B98470DE004A908701E
:10187000000CC0B23B4B98470137042F07D0F9B298
:10188000BB0058590028EDD0431CEFD1F4E7237872
:101890007371237CB371A37CF371237D33720022B7
:1018A00002ABDA802378012B2AD06368A268134345
:1018B000E2681343217C627C002A03D12A4A927891
:1018C000920701D580221343A27C002A02D08022F5
:1018D00092021143E27C002A02D08022920011433E
:1018E000227D002A02D080229201114342461268D2
:1018F00013434246136053680B4353600020D9E6FC
:101900003068134B98471230C0B20F4B9847010014
:1019100002AB9A1DA0690D4B984703001720002BBE
:1019200000D0C7E602AB06331B7842461373BCE710
:10193000084A136A02210B431362182360E7C0466A
:101940002D14000000280040ED27000023130000A4
:101950008915000000040040C92700005927000035
:10196000E1130000C52800000020004110B54479B3
:101970001523012C01D0180010BD047A0023002C7F
:10198000F9D1002A58D04B78002B44D003681B7E35
:10199000DB0710D40A78D1090023002904D15309A8
:1019A000DB012E498C4663441F21114001228A40ED
:1019B0009A610523DFE70A78D4090023002C04D1BB
:1019C0005309DB01254CA44663441F241440012223
:1019D000A2405A6103681A7ED20701D58A789A62BA
:1019E000C2790023002AC6D102680421137E0B426B
:1019F000FCD0117E00234907BDD5538B5B0701D571
:101A0000042353838379012B02D0936A0023B2E726
:101A1000936A0023AFE70A78D1090023002904D193
:101A20005309DB010D498C4663441F2111400122FB
:101A30008A405A6100239EE70A78D10900230029D1
:101A400004D15309DB0105498C4663441F21114031
:101A500001228A409A6100238DE7C0460028004099
:101A6000F0B5DE4657464E464546E0B591B0050016
:101A70000C00160029600800C44B98470200052896
:101A80000DD007001237030021680520C90709D5CA
:101A900011B03CBC90469946A246AB46F0BD182713
:101AA0000123F1E7216817308907F1D4052A49D0CD
:101AB000B749C86901229A4013000343CB610FA9BB
:101AC0002D239846F35C0B70FFB23800B14B98475A
:101AD0003800B14B98474346F05C0021AF4B984724
:101AE000F37A6B712423F35CAB712523F35CEB7108
:101AF000F37E2B72337F6B722B6898461800A34BD2
:101B00009847052826D0123000220E2306A98C46BD
:101B100063441A80328A02928023DB019A4200D108
:101B2000A7E019D9C023DB01029A9A4200D19BE0B9
:101B300080231B029A4200D023E103230693002353
:101B4000079312E09249086A043A9A40130003434B
:101B50000B62B4E71820D7E780239B019A4200D09C
:101B60000FE1102306930F3B079333680593F36847
:101B70009B4673690393337E04932623F35C9A4652
:101B800073689946002B00D19BE080235B05994543
:101B900004D12723F35C002B00D180E0737E002B5F
:101BA00002D0B37E424693730E2306AA9446634442
:101BB0001B8842469381059B5A461343039A13435D
:101BC0004A461343029F1F43049B1B021F43534675
:101BD0005B071F432723F35C002B01D104331F4312
:101BE000737E9B02327F52021343727F12021343B1
:101BF0002422B25C520413432522B25C1204134324
:101C0000B17AF27A114319433389FF2B7DD08022B8
:101C10005204174319432C23F35C002B03D1604B70
:101C20009B789B0701D580231F432A68D369002B2B
:101C3000FCD1434659602A68D369002BFCD1434646
:101C40001F600EAB80221A7000225A70DA709A70F0
:101C5000336B0A93736B0B93B36B0C93F36B02931D
:101C60000D9300270AAE5EE008230693073B079317
:101C70007BE733680593F3689B4673690393337E70
:101C800004932623F35C9A4673689946002B14D07C
:101C900080235B05994500D17BE7002020E0336A73
:101CA0001F00C0B23F4B984701000E2206AB9C4676
:101CB000624438003C4B984712E008230693002307
:101CC00007932723F35C002B0ED0069B0093079B02
:101CD0000E2206A98C466244B16A306A334FB84777
:101CE000002800D0D4E659E7336A1F00C0B22D4B5C
:101CF00098470100069B0093079B0E2206A8844686
:101D000062443800294FB847EAE7F37E002B82D0BF
:101D10008023DB041F437EE72000254B984707E024
:101D20000137042F0DD0F9B2BB0098590028F3D029
:101D3000431CF5D00EA90870000CC0B21D4B98478B
:101D4000EEE70023EB602B616B61AB61EB612B6213
:101D5000AB626B620022EB85AB853033EA54013312
:101D6000EA540133EA540133EA542868074B984790
:101D700004001149114B9847A400114BE550002075
:101D800086E61023069300230793EEE689150000EC
:101D900000040040C927000059270000E11300009B
:101DA00000200041ED270000231300004D13000028
:101DB0002D140000C5280000ED1E0000C515000010
:101DC00088100020C2791C23002A01D11800704716
:101DD000C28D92B2173B002AF8D102681185022108
:101DE000137E0B42FCD00023F0E782791C23002AEB
:101DF00001D118007047828D92B2173B002AF8D1AA
:101E00000268107E4007F4D5538BDBB298061DD0D4
:101E1000980703D5022353831833EAE7580703D5FD
:101E2000042353831A33E4E7D80703D501235383EC
:101E30001233DEE7D80603D5102353833233D8E7B5
:101E40009B0603D5202353832133D2E7138D0B80C8
:101E50000023CEE7F0B5D64600B584B0040001916A
:101E60001720002A03D104B004BC9246F0BDA37928
:101E70000530002BF7D02668013A93B29A46002528
:101E8000042719E0002302AAD380911D2000154BDE
:101E900098470028E7D1691C89B202ABDB88019A18
:101EA00053556279012A14D00D005346013B9BB271
:101EB0009A460D4B9A45D6D0337E3B42E2D10A4B2F
:101EC000327E3A42DED1012B09D0013B002BF7D103
:101ED000D8E70235ADB21B0A019A5354E5E7122048
:101EE000C1E7C046EB1D0000FFFF0000F8B5800011
:101EF000624BC5582C68E369002BFCD1237EA67D7C
:101F00001E403023EB5C3122AF5C1F40F30722D52B
:101F1000EB8D9BB2002B1CD0AA6A1378DBB2511C4C
:101F2000A962697901290ED09BB2DB05DB0D2385FF
:101F3000EB8D013B9BB2EB85002B0CD1013323755C
:101F40000133A37507E0517809020B430232AA62FC
:101F5000EBE701232375B30706D50223237500227F
:101F60003133EA54FB071AD4730765D5AB8D9BB2A6
:101F7000002B5FD0638BDBB21A0714D43F221340CF
:101F8000002B34D09A0711D51A223223EA54303B61
:101F900063837B0750D528006B6998474CE0280085
:101FA000EB689847E0E737221340E9E75A0705D581
:101FB0001E223223EA542E3B6383EAE7DA0705D573
:101FC00013223223EA54313B6383E2E7DA0605D574
:101FD00042223223EA54223B6383DAE720221A4268
:101FE000D7D021323223EA54123B6383D1E7238DC9
:101FF000DB05DB0DDAB2696A0A706A6A511C696234
:102000006979012910D0AB8D013B9BB2AB85002BC8
:1020100012D10433237500222E33EA54BB070BD5AB
:1020200028002B69984707E01B0A53706B6A01333D
:102030006B62E8E704232375F30604D510232375A8
:102040002376FB060ED4B30604D52023237523760E
:102050003B070BD4330704D5082323752376BB062F
:1020600008D4F8BD2800EB699847ECE72800AB6975
:102070009847EFE72B6A28009847F2E7881000207E
:1020800010B5082803D880001C4B1B589F46002021
:1020900032E01B4B18692FE01A4B187D0007800FA8
:1020A000431C1948584327E0154B586924E0144B4A
:1020B0001B6800209B071FD5124980225200CB6865
:1020C0001342FCD00E4B1B685B0701D40F4813E092
:1020D00000200F4B98470A4B9B681B041B0C58436E
:1020E0000AE02823074AD35C00209B0704D5044B51
:1020F000D86801E08020000210BDC0463C85010088
:10210000500A0020000C004000093D00006CDC0279
:10211000ED27000070B50B4C237D8578467802785A
:102120000321114089000C2293430B430B3A3240A8
:10213000920140218B431343ED017F2213402B4337
:10214000237570BD000C0040F0B5D6464F4646469C
:10215000C0B5204B9A465B69457801784C424C41AA
:10216000A14681788C46C1788846467A077A847A77
:102170004068194948610121484680000422934380
:10218000034340460840C000043293430343604683
:10219000084000010832934303430F40BF01402031
:1021A00083433B430E40F601403083433343793849
:1021B00005402D02094803402B43214009030848EC
:1021C00003400B43524653611CBC90469946A246BD
:1021D000F0BDC04600100040500A0020FFF8FFFF8D
:1021E000FFEFFFFF10B5837A9B061B0C82899205D7
:1021F000920D13431A494B60037A427A1343828843
:10220000C488224313434278D20113438278920157
:1022100013430B600378042B11D0202B0ED1837B4A
:102220009B06428A1343028A12040E490A40134352
:102230000B4A936011680C4B0B43136010BD837BFA
:102240009B06428A1343028A120406490A4013433A
:10225000034A9360136804210B431360EEE7C04602
:10226000500A00200000FF0324040000082803D8BF
:102270008000294B1B589F4617204BE0274A137DAF
:1022800002210B431375002044E0254A9369022183
:102290000B43936100203DE0204A138A02210B4347
:1022A0001382002036E01E4A536902210B4353611A
:1022B00000202FE01B490B68022213430B60174BD1
:1022C0001A831900FE32CB681342FCD0154A91687C
:1022D000124B19625268DA6100221A831900013226
:1022E000FF32CB681342FCD00E4B1B689BB20B4AEB
:1022F000138300200EE0094928228B5C022003434F
:102300008B5408003821263A435C1342FCD100204C
:1023100000E000207047C04660850100000C0040CE
:1023200000100040500A0020082832D880001A4BC4
:102330001B589F46194A137D02218B4313750020B9
:102340007047174A936902218B4393610020F7E796
:10235000124A138A02218B4313820020F0E7104AAD
:10236000536902218B4353610020E9E70D4B1A6842
:1023700002218A431A601B689BB2084A138300201B
:10238000DEE7064928228B5C022083438B54002021
:10239000D6E71720D4E7C04684850100000C004032
:1023A00000100040500A0020F0B5CE46474680B5E8
:1023B0008DB080225200764B9A60FD3A754B9A6040
:1023C000754A53681E218B431A390B43536080238F
:1023D000DB059B78022B0FD08023DB059B785BB25B
:1023E000002B09DB8023DB0501229A7101329A70F0
:1023F0001A009379002BFCD009A8002303708022D7
:102400001202426083700122C2700372837203322F
:1024100042704372614B98470520614B9847614970
:102420000122CB681A42FCD001A901254D6000248D
:102430004C700C724C7203230B7000205A4B98475F
:1024400006205A4B98476B465C701D709C7068461E
:10245000574B98470620524B98474D491022CB685E
:102460001A42FCD001A901234B6000244C700533B3
:102470000B700C724C7200204B4B984704AB00223F
:102480009C80DC801A725A729A703F2199813B3984
:1024900019705A70474B1B689B0E3F2B00D174E09C
:1024A00004A88372B723DB00438207238373383386
:1024B0000382414B9847414B984701AC0126029655
:1024C00000256570657205239946237026722100E8
:1024D0000120354B984698470120394FB847657021
:1024E00006232370257265724B466360210002202B
:1024F000C0470220B847267021000020314B984782
:102500000020314B98470720254B98472049D0227F
:102510001201CB6813409342FBD12C4C0123A371D1
:102520006371237101A900234B700B724B72073347
:102530000B70013B4B6000201B4B98470020204B49
:1025400098470020224B98472179C9B2214B9847E0
:10255000214B984214D88023DB059B78002B0FD0A9
:102560008023DB059B785BB2002B09DB8023DB0536
:1025700001229A7100229A701A009379002BFCD0E4
:102580000DB00CBC90469946F0BD203B88E7C04694
:10259000000C0040001400400040004149210000B0
:1025A0006D220000001000400126000029230000D9
:1025B0001521000020608000E5210000DD250000DD
:1025C000AD260000C9270000592700000004004084
:1025D000ED26000079EA0000001BB700064A5369A7
:1025E00040210B4353610122044B1A7019000B78F0
:1025F0001342FCD17047C046000400400018004060
:1026000070B504000D784B78002B02D08023DB00DE
:102610001D434B7A002B02D080231B011D434868C9
:1026200001280FD9431E184231D102282DD9022387
:10263000002201325B009842FBD880235B011D43DE
:10264000120415430B7A002B02D080239B011D43FB
:102650000426A6401149124A4B6813401E42FBD182
:10266000104B9847A4000D4B9C466444226A80237B
:102670005B001A402A4322626146094A4B681340B4
:102680001E42FBD1084B984770BD0022D5E70004DD
:1026900080239B0018430543D4E7C0460018004040
:1026A000FC070000AD010000ED01000010B50400C2
:1026B0000422824009480A4943680B401A42FBD170
:1026C000084B9847A400054B9C466444226A80232B
:1026D0005B0013432362044B984710BD0018004071
:1026E000FC070000AD010000ED010000F8B504009A
:1026F000042282401248134943680B401A42FBD11E
:10270000114B98470E4F0834A400E0590007000F02
:102710000E4B98470600E559ED04ED0FE459240CE3
:102720000B4B9847002D07D1012C07D92100300011
:10273000084B9847060001E00134E6403000F8BD40
:1027400000180040FC070000AD01000081200000DF
:10275000ED01000079EA000010B50400094B98472C
:10276000A000094B9C4660448022835840210B43C3
:1027700083504031403A43581A42FCD0034B9847AB
:1027800010BDC046AD01000000180040ED01000082
:1027900010B50400094B9847A000094B9C466044C3
:1027A0008022835840218B4383504031403A435824
:1027B0001A42FCD1034B984710BDC046AD01000042
:1027C00000180040ED01000070B504000D00054B3D
:1027D00098472A780F2313402034A400024AA350BC
:1027E00070BDC046912700000018004010B50400DD
:1027F000064B98472034A400054BE4582407240FC7
:10280000044B98472000044B984710BDAD010000D1
:1028100000180040ED010000ED26000030B5D3782F
:10282000002B35D11378802B29D01B06802464021D
:10283000234354780225AC4306D19478002C20D150
:102840008024A402234341605478013C012C1CD90C
:102850000D042D0CA024E4052C431C4384620D0CB4
:10286000D02424062C431C438462D478002C22D12B
:102870005B031CD59378012B1ED0416117E0002328
:10288000D7E7C024E4022343DDE70D4C2340DFE714
:1028900041600C04240CA023DB05234383620C0C51
:1028A000D0231B0623438362D378002B03D15378B4
:1028B000013B012B02D930BD8161F8E78160FAE765
:1028C000FFFFFBFF10B50A00C1090023002904D156
:1028D0004309DB0105498C4663441F242040012144
:1028E00081401800024B984710BDC04600280040A8
:1028F0001D2800007047000010B5054B9847054B98
:102900009847054B9847054B9847054B984710BD8E
:10291000A92300001D020000F5280000D1090000D5
:10292000F5280000931C9B001950022A09D0032AA5
:102930000CD0012393401A00037E1343037600203A
:102940007047037E102213430376F8E7037E2022AC
:1029500013430376F3E7000070B58000164BC458AC
:1029600023689D7A227E637E13401D40EB0706D4C8
:10297000AB070BD4EB0610D4AB0615D470BD20000A
:10298000A3689847012322689372F1E72000E36867
:102990009847022322689372ECE720002369984746
:1029A000102322689372E7E7200063699847236841
:1029B00020229A72E2E7C046A010002010B5002045
:1029C000014B984710BDC0465929000010B50120A1
:1029D000014B984710BDC0465929000010B5022090
:1029E000014B984710BDC0465929000010B503207F
:1029F000014B984710BDC0465929000010B504206E
:102A0000014B984710BDC0465929000030B587B02A
:102A100001A90C4B0A0032CB32C212CB12C2019B6D
:102A200098420BD0012301A99A005258824206D045
:102A30000133052BF8D1002007B030BD0023D8B2F8
:102A4000FAE7C046D0850100F0B5C64600B58EB0A5
:102A500004000D0016000800AE4B984780460CABF2
:102A60001B221A705A7001329A70DA7001321A7190
:102A700002A9A94B14330A0083CB83C283CB83C240
:102A800083CB83C21B6813600023A360E3602361D0
:102A900063612376637643469A00A04BD450256049
:102AA0003423F35CA376F378082B08D023712B68CA
:102AB0000520DB0708D50EB004BC9046F0BD1720FA
:102AC0004246D207F7D4F1E7EB7A17309B07F2D4EE
:102AD0002B689B07EFD4337C002B12D1337F002B64
:102AE0001BD143465A0002A9531C9B005858434629
:102AF000DB005B58D9B2042923D88B008849CB5816
:102B00009F4601A901238B700022CA70327E0A7091
:102B10004B70307D834B9847E0E701A901238B7010
:102B20000022CA702432B21812780A704B701F3318
:102B3000F31818787B4B9847D3E77B494B691843C8
:102B40004861F378082B00D186E033786A46137029
:102B50000CAB42469F5C69463800744B984738007E
:102B6000734B9847F378F2791343B2881343727A20
:102B7000002A02D0802252021343B27A002A02D0E5
:102B8000802292021343F27A002A02D0802252035A
:102B90001343327B002A02D08022920313437178C0
:102BA0008901B278D2011143194322681369002BBD
:102BB000FCD1296022681369002BFCD1B3792B73F7
:102BC000717B4B1E99418900B37B002B01D00123FF
:102BD000194322681369002BFCD1FF332B710029A4
:102BE00004D022681369002BFCD16971337A6B73AE
:102BF00022681369002BFCD12379042B59D0082BB0
:102C000074D01720002B00D055E71369002BFCD19E
:102C1000338DAB8222681369002BFCD1738DAB839B
:102C200022681369002BFCD1B38DEB83002042E7AF
:102C30003D498B691843886183E73B49CB69184359
:102C4000C8617EE738490B6A1843086279E7364B5A
:102C5000596A0843586274E743460133042B00DD88
:102C600073E702ABD11C8900C95802329200D358D5
:102C7000DAB2042A00D968E793002E4AD3589F4657
:102C8000294A5369194351615FE7274A93691943F8
:102C900091615AE7244AD3691943D16155E7224A21
:102CA000136A1943116250E71F4B5A6A1143596264
:102CB0004BE71369002BFCD12833F35C2B7522689A
:102CC0001369002BFCD12933F35CEB76226813697E
:102CD000002BFCD12A33F35C2B7722681369002B7D
:102CE000FCD12B33F35C6B770020E4E61369002BF7
:102CF000FCD1B36A6B6122681369002BFCD1F36AC3
:102D0000EB6122681369002BFCD1336B2B6200202E
:102D1000D1E6C0460D2A0000D0850100A010002099
:102D2000A8850100C528000000040040C927000054
:102D300059270000BC85010002681369002BFCD1F3
:102D4000137101680B69002BFCD180335371026849
:102D50001369002BFCD10379042B05D0082B09D073
:102D60000020002B03D07047107DC0B2FBE7908A93
:102D700080B2F8E75069F6E710B504682369002BC4
:102D8000FCD10379042B06D0082B28D0002B13D0BC
:102D90001723180010BD17230129FAD8837E002BB2
:102DA00005D0D2B2611830310A700023F1E7D2B2F7
:102DB000641822770023ECE717230129E9D8837EE2
:102DC000002B05D092B2183149000A530023E0E7E6
:102DD00092B20C3149006418A2800023D9E717236E
:102DE0000129D6D8837E002B05D1063189006418CD
:102DF00062600023CDE70C3189000A510023C8E747
:102E0000FEE7000010B51A4A1A4B9A4211D01A0078
:102E1000194B9A420DD2194A03339B1A9B0801336E
:102E20009B000022134812498C58845004329A4265
:102E3000FAD1134A134B9A420AD2D34311495B1871
:102E400003218B4304339B18002102C29342FCD11F
:102E50000D4AFF210D4B8B4393600D4A53687F3918
:102E60000B4353600B4B98470B4B9847FEE7C0460C
:102E7000249C010000000020080A0020040000201B
:102E8000080A0020F81B002000ED00E00000000010
:102E900000400041191C0100C97F0000F0B5C64682
:102EA00000B50C00904600280FD1002A11DD8F18C4
:102EB000094E0A4D306821002B6898470134BC4206
:102EC000F8D1404604BC9046F0BD01235B429846D1
:102ED000F7E78046F5E7C046BC100020B41000209C
:102EE000F0B5C64600B50E0015000138022810D80E
:102EF000002A11D000240C4B98460C4F434618680A
:102F0000315D3B689847002808DB0134A542F5D1C4
:102F100006E00124644203E0140001E0012464425D
:102F2000200004BC9046F0BDBC100020B81000206A
:102F30000300064A1268002A04D0044A1068C31825
:102F4000136070470249014A1160F6E7680A0020E1
:102F5000F83B002001204042704780239B014B60DA
:102F600000207047012070470020704770B582B084
:102F700005000E0000226B46DA80064C6B46991D58
:102F80002800A0470028F9D16B4606331B88337010
:102F900002B070BDEB1D000070B505008CB2034E91
:102FA00021002800B0470028FAD170BDC51D0000DF
:102FB00010B582B06B46DC1D012221000F48104B7A
:102FC000984772B6BFF35F8F00220E4B1A700E4BFC
:102FD0001B7821780D4AD1547F2B0AD001330A4A3D
:102FE00013700122074B1A70BFF35F8F62B602B0F5
:102FF00010BD0022044B1A70F3E7C0466C0A002093
:10300000551E000008000020200B0020A00A002010
:10301000F0B591B08023DB05009300230193FF22DC
:1030200069460A8100228B72CB72012424216846F2
:1030300044540131445401314354013143540A93FF
:10304000053143540131435405930382C37602761C
:103050000277427613238376427780235B030393C0
:103060002F4B0C932F4B0D9301235B420E930F9329
:10307000E1235B0208932C4D2C4B1D602C4A2D4BF9
:103080001A602D4A2D4B1A606A468421C905280012
:103090002B4B98472B4F3B68986800212A4EB0472E
:1030A0003B6858680021B0472E683000274B98478E
:1030B0001F2318408440264B1C602A68D369002BCC
:1030C000FCD13368022213433360174B1B68DA6963
:1030D000002AFCD15968802252020A435A60012119
:1030E000114AD171DA69002AFCD1DA69002AFCD1CF
:1030F0005968802292020A435A6001210A4A91715A
:10310000DA69002AFCD113490020134B98470422A6
:103110008423DB059A75FC320D4B1A6011B0F0BDAB
:1031200003000400030005006C0A0020BC1000200E
:10313000992F0000B81000206D2F0000B41000205F
:10314000611A000058000020991E010001160000BD
:1031500000E100E0B12F0000C515000070B5154D6D
:103160002C682000144B98471F2318401E3B8340B7
:10317000802212498B502A68D369002BFCD1236826
:103180000222934323600B4B1B68DA69002AFCD1AF
:103190005A680B490A405A600021064AD171DA691F
:1031A000002AFCD15A6807490A405A600022014BA4
:1031B0009A7170BD6C0A00200116000000E100E069
:1031C000FFFFFEFFFFFFFDFF134B1B6801211A7E6F
:1031D0000A42FCD01A7ED20700D5986202211A7EDC
:1031E0000A42FCD004211A7E0A42FCD01A7E00203A
:1031F00052070AD55A8B520701D504225A83064A30
:103200009279012A03D0986AC0B2C0B27047986A16
:10321000C005C00DF9E7C046300B002000B583B0F3
:1032200001A901234B7000228A700B702F20024BE2
:10323000984703B000BDC046990E000010B5054B7D
:103240001B68002B04D0044B9847024B1B6898471F
:1032500010BDC0462C0B0020A137000010B5054B57
:103260001B68002B04D0044B9847024B1B689847FF
:1032700010BDC046280B0020A137000010B5054B3B
:103280001B68002B04D0044B9847024B1B689847DF
:1032900010BDC046240B0020A137000010B501224C
:1032A00002490348034B984710BDC046C010002098
:1032B000300B00206D19000010B5002202490348B0
:1032C000034B984710BDC046C0100020300B0020B3
:1032D0006D190000F0B5D6464F464646C0B590B0D1
:1032E00001AC012666700025A570267021005220D1
:1032F000524FB84721003E20B84721003F20B84731
:1033000021002F20B8478022D2024D4B9A614D4BAD
:103310008022D2059A61802212069A6180221202CE
:103320009A61257021005320B84702AC2000464B1B
:1033300098473023029365602572E67221000020D1
:10334000424B9A469847002200214148414B9946FA
:10335000984700210020404B984698470B23029342
:1033600065602572E67221000B20D04700220B21F8
:103370003A48C84700210B20C0470C2302936560E0
:103380002572E67221000C20D04700220C2134481F
:10339000C84700210C20C047324B98463F23424685
:1033A0001370557095706670A570267021003F20CF
:1033B000B84743461A78D1090023002904D153099C
:1033C000DB0129498C4663441F2111400122100072
:1033D0008840986102AC2270002303930493237405
:1033E0006374A274E27423752332A354183A002143
:1033F00008A81E4B98471E4BA36180235B02E36025
:103400001C4BA36201235B42E3621B4B23631B4BF8
:1034100063631B4D22001B4928001B4B98472A68F9
:10342000D369002BFCD1136802210B43136010B049
:103430001CBC90469946A246F0BDC046990E0000BD
:103440000029004080280040310A0000450A0000A1
:103450007D320000F10800001D0900005D3200000F
:103460003D320000C010002000280040E51C010093
:1034700080841E000500530005003E000500520038
:10348000300B00200010004291160000074B1A6814
:10349000D369002BFCD1136802210B431360034B4B
:1034A0001A68D369002BFCD17047C046300B00204E
:1034B000064B1A68D369002BFCD18F331375137632
:1034C000136802218B4313607047C046300B002005
:1034D00070B582B00A4CA0470A4D802636026E6154
:1034E0000120094B984701A900230B7001224A7063
:1034F0008B702F20054B9847AE61A04702B070BD7E
:103500001D320000802800406D370000990E000039
:1035100070B504000D00054B984780202043044CF3
:10352000A0472800A047034B984770BD9D3200007C
:10353000C9310000B932000010B50400064B9847AD
:103540007F202040054CA047FF20A0470400044BEB
:103550009847200010BDC0469D320000C9310000D0
:10356000B932000070B504000E0015000A4B9847F0
:1035700080202043094B9847002D0AD03400013D9C
:10358000EDB201357519054E2078B0470134AC42D3
:10359000FAD1034B984770BD9D320000C93100003D
:1035A000B932000070B504000E0015000A4B9847B0
:1035B00020000A4B9847002D0BD03400013DEDB29E
:1035C00001357519054EFF20B04720700134AC421B
:1035D000F9D1034B984770BD9D320000C9310000FE
:1035E000B9320000022807D0042808D0012800D0F2
:1035F0007047044B1960FBE7034B1960F8E7034B76
:103600001960F5E7240B0020280B00202C0B00206C
:1036100001280AD0002908D002280AD1012908D19E
:1036200080229201034B5A6103E080229201014BF8
:103630009A61704700280040012801D0002903D179
:1036400080229201014B5A617047C0460028004019
:10365000022070470020704710B58022D202034B31
:103660009A610220024B984710BDC04600280040D6
:10367000810100008022D202014B5A617047C0468E
:1036800000280040012802D002280CD070470422F4
:103690008023DB055A701A005378042BFCD1BFF34A
:1036A0004F8F30BFF2E705228023DB055A701A00E6
:1036B0005378052BFCD1BFF34F8F30BFE6E70000F6
:1036C00010B584B001226B469A7000236946CB7016
:1036D0000A716A460B80013B02930393044C05492F
:1036E0002000054B98472000044B984704B010BDBC
:1036F000C41000200020004049100000C90E000046
:1037000010B50248024B984710BDC046C4100020B7
:10371000B90F000070B505000E000A4C0021200012
:10372000094B9847082231002000084B9847002297
:1037300029002000064B984708212000054B984798
:1037400070BDC046C4100020750F0000E5100000D9
:10375000E50F00002111000010B508210148024BBF
:10376000984710BDC41000206511000010B5002856
:1037700003D10120024B984710BD024B9847FBE74D
:10378000550100008101000010B5014B984710BDA4
:10379000AD01000010B5014B984710BDED010000D0
:1037A00070B5164B1B78012B00D070BD0022134B57
:1037B0001A70134B9847134B98471349134B98476C
:1037C000134B984704000D00124B98472000290026
:1037D000114B9847114B1B68002BE6D09E68002EBA
:1037E000E3D0FA2292000023200029000C4CA047CD
:1037F000B0470022094B1A60D7E7C0463C0B0020B7
:103800000137000071FE0000D723F44119F80000D1
:1038100055EF000059370000156B0000400B0020E9
:1038200055EE000070B5041E55D02C4B1B780020BF
:10383000002B00D070BD2A4B984703000020002BBE
:10384000F8D02368274A94466344274A9342F1D824
:103850002379022B21D0012B25D001256D42204B4D
:10386000984703000020002BE4D0204B9847280005
:103870000A381F4B98471F491F4B98471F4B9847C3
:103880001F49204B98470122144B1A701E4B1C6095
:1038900020791E4B98470120CCE71D4B9847431CCD
:1038A00017D00020C6E71A4B9847431C0BD0FA21CB
:1038B0008900184B984703000A4A81180A4A0020D9
:1038C0009142B7D800E0144B25689D42C7D91D002E
:1038D000C5E72568C3E70020ACE7C0463C0B0020E5
:1038E000D96C000018FCFFFFC8BBCE07E16A0000DE
:1038F00071FE00007513034219F80000E9EE0000A4
:10390000A137000015370000400B0020853600006D
:103910001D68000079EA0000B0BFCE07C6207047DE
:10392000C6207047C62070477047000030B587B08A
:10393000754B002126229954102404329C540F3CCC
:10394000013A9C54023A99541A0083321A71140AAB
:103950005C71140C9C71120EDA711A0043321A70E9
:10396000140A5C70140C9C70120EDA701A00A332E8
:103970001A72140A5C72140C9C72120EDA721A001B
:103980006432FF321A74140A5C74140C9C74120EA4
:10399000DA741A0034321A75140A5C75140C9C75AA
:1039A000120EDA751A003D321A76140A5C76140C7F
:1039B0009C76120EDA7622229954022401329C540B
:1039C000333A1A77703A5A7726329A778D32DA7705
:1039D0000134123A9C54013A9A54193A24255A5502
:1039E000013559559235FF355C5529341A55223C1D
:1039F00026329C540A34053A9C54444A157828349B
:103A00001D550025043C1D5501341D5501341D551F
:103A100001341D5554783D229C54053299541A00A6
:103A20003E32117051709170D1702E2298540A2438
:103A30000F2808D0364B9847364B9847364B984757
:103A4000200007B030BD1C00180083301E3A3349F7
:103A5000334DA8472000A33060223249A8470620F2
:103A60002949FF240B794A7912021A438B791B04E6
:103A70001A43CB791B0613431B185C7002302028B5
:103A8000F0D1214C1422B823FF33E254207863781C
:103A90001B020343A07800040343E07800061843A8
:103AA0002C3221491E4B984706230621C622FF329D
:103AB000A15400210332A1542200C932FF325370B5
:103AC0000131E5225200A1542200CB32FF32537063
:103AD0000022E6235B00E2542300CD33FF335A700B
:103AE000E3235B00E254E4180023637002AB02326C
:103AF0001A710E4A00920E49039A0E4B06200E4C84
:103B0000A047082496E7C0460411002000110020B9
:103B1000F54E000029500000915000006C86010015
:103B2000611C01000C8601007C860100293900001F
:103B3000FC100020BC860100ED580000C620704734
:103B4000C6207047C6207047152070471520704763
:103B50002A230249CB5C137008207047041100200F
:103B600005492123C85C1070CB5C0820FF2B00D0D6
:103B700070470230FCE7C0460411002022230249AE
:103B8000CB5C1370082070470411002023230249E6
:103B9000CB5C1370082070470411002020230249D9
:103BA000CB5C1360082070470411002030B583B04F
:103BB00015000C7801A90C7001234B700D4B5B6D47
:103BC00015209847082804D0FF232B700A2003B043
:103BD00030BD09490B794A79120213438A791204DC
:103BE0001A43CB791B061A4363009B185B782B7032
:103BF000EDE7C046300D00200411002030B583B041
:103C000015000C7801A90C7001234B700C4B5B6DF7
:103C100015209847082804D000232B700A2003B0F1
:103C200030BD08490A794B791B0213438A79120483
:103C30001343CA7912061A436400A35C2B70EEE7A3
:103C4000300D002004110020FA239B00138008206F
:103C50007047FA23DB00138008207047014B138064
:103C60000820704788130000014B1380082070471C
:103C700070170000FA23DB00138008207047202310
:103C8000137008207047402313700820704780236A
:103C9000DB0113800820704727230249CB5C137097
:103CA000082070470411002026230249CB5C1370C2
:103CB00008207047041100202F230249CB5C1370A9
:103CC00008207047041100200B782A2208488256E9
:103CD0000A2093420ADA4A780238002A06D1B7321B
:103CE000FF3203498A5C9A4200D902307047C046CD
:103CF00004110020F0B59446214B24215C5C013175
:103D00005F5C05315E56002E28DD19001D795B7958
:103D10001B022B438D792D042B43CD792D061D439A
:103D200000210BE043781B09BB4203DD007800282B
:103D300000D01F000131C9B2B1420FDA4800281883
:103D400043781B071B0FA342ECDA0278002AF1D05C
:103D50001C0043781B09BB42EBDCEBE7DC235B0078
:103D60000749CB5CDB0706D52E23C95C054B0B410D
:103D7000DB0700D5022463461C705F700820F0BD8D
:103D800004110020E07F00000A782D230349CB5660
:103D900008209A4200DD02307047C046041100201E
:103DA00030B50988002920D02A23114AD05600288E
:103DB0001BDD147A537A1B022343947A2404234391
:103DC000D47A24061C430023032504E04908013368
:103DD000DBB2834209DA0029F8D05A00D2189200E7
:103DE000A218D27A2A40032AF0D0082030BDC0465B
:103DF000041100200B780820002B02D0062B01D0E4
:103E0000023070470820FCE710B582B001AC0422F4
:103E100020000F4B98476388002B04D101AB1A7820
:103E20000A23002A07D06B46991D1A20094B984790
:103E30000A23082802D0180002B010BD01A91330CF
:103E4000054B984703000828F5D00A23F3E7C0463E
:103E5000611C0100A13D0000F53D00000A7824230B
:103E60000349CB5C08209A4200D902307047C04613
:103E70000411002070B50D782A23144AD456002C62
:103E800022DD107953791B02034390790004034328
:103E9000D0790006184300232E0003E00133DBB283
:103EA000A3420FDA5A00821811780029F6D051780F
:103EB0000907090F8D42F1DB527812099642EDDCB9
:103EC000082000E00A2070BD0A20FCE70411002051
:103ED0000A782C230349CB560A209A4200DC023888
:103EE0007047C04604110020F0B50C784A7891075D
:103EF000C90F114EDC256D0001200240735D0127C2
:103F0000BB4313437355184211D1002025230A4A9D
:103F1000D054094ADC2040004900135C0225AB4321
:103F20000B4313542823D454B138FF38F0BD01306B
:103F30002523F054EDE7C04604110020F0B52A23F4
:103F4000174AD35C7F2B29D800221548040000278C
:103F500006002A2504E00132D2B273579A421DDCD2
:103F6000037A417A09020B43817A09041943C37A1F
:103F70001B06194353009B189B005B185B7A002BB0
:103F8000E9D12379617909021943A3791B04194303
:103F9000E3791B060B435100CF54DCE70820F0BD4A
:103FA0000411002010B513000A782A210D4841564B
:103FB0000A208A4200DD10BD0A4C217A607A000294
:103FC0000843A17A09040843E17A09060143500035
:103FD000821892008918043104221800024B984775
:103FE0000820E8E704110020611C010000B583B03F
:103FF00010004B788A78052B0BD90521CB1A5BB2C0
:104000009A420CDBD31ADBB2052B04D86A46137133
:1040100008E05BB2F4E705236A46137102E000236F
:104020006A46137111490B7A4A7A120213438A7A4B
:1040300012041A43CB7A1B061A432F23C95C4B0088
:104040005B189B009B1819795A79120211439A79CF
:1040500012040A43DB791B061343009308226946C6
:10406000034B9847082003B000BDC0460411002050
:10407000611C0100F0B5C64600B582B0904601ADA6
:1040800004222800384B98472B78002B17D0062B9A
:1040900059D12433354AD75600200725002F54DD47
:1040A000324A167953791B023343967936043343E7
:1040B000D67936061E4300200725002235E02A2344
:1040C0002A4AD3569C46002B4ADD01AB5E881779FD
:1040D00053791B023B4397793F043B43D7793F0613
:1040E0001F4300200725002201240BE04B781B0909
:1040F000834202DD344200D0180076080132D2B289
:10410000624522DA510079184B781B071B0FAB422E
:10411000ECDA3442F1D01D004B781B099842EBDBFE
:10412000EBE70132D2B2BA420FDA510071184B7884
:104130001B071B0FAB4200DA1D004B781B098342A3
:10414000EFDD1800EDE7FF20FF2500010F231D40E4
:10415000284343461870082002B004BC9046F0BDC6
:1041600000200725F1E7C046611C01000411002072
:1041700010B5100004220249024B9847082010BDD8
:1041800020110020611C010010B514000B782A22B8
:104190000D498A560A20934200DD10BD0800097AB5
:1041A000427A12020A43817A09040A43C17A090653
:1041B00011435A00D3189B00C91804222000034B56
:1041C00098470820E9E7C04604110020611C01005F
:1041D00000B583B008226846044B9847044B5B68DF
:1041E00069460120984703B000BDC046611C01002C
:1041F000300D002000B583B0042201A8064B98477B
:10420000019B064A94466344054A0820934200D91C
:10421000023003B000BDC046611C0100C02571CC56
:1042200080841E00F0B5DE4657464E464546E0B552
:1042300087B000AF04008846F96015007B60C31D9D
:10424000DB08DB006A46D31A9D463B610200002171
:1042500068465C4B98472E235B4AD65C4346002B4E
:1042600048D12033D35C9B0631D41020002C00D1E0
:1042700093E0564B334101221A409046524B197B32
:104280005A7B120211439A7B12040A43D97B090616
:1042900011438C46187A5A7A12020243987A000423
:1042A0000243D87A000610431A795979090211435A
:1042B0009A7912041143DA7912060A430600083685
:1042C000093000237B61AA46A946250036E011008B
:1042D000137D527D12021A438B7D1B041A43CB7D42
:1042E0001B061343187A3A4B984703001020002B03
:1042F000BBD052E03449B023FF33CB5CD82252000C
:104300008A5C12021A43B223FF33CB5C1B041A43AC
:10431000D9235B00CB5C1B0613431020002BA4D0D9
:104320003BE03C69796963540131C9B27961013379
:10433000DBB202320C360C309D422AD011780029B3
:10434000F5D051780907090F8945F0DB5178090943
:104350008A45ECDC4146002914D034786100091903
:10436000890061440C7AA346B9604C7A240259460C
:104370000C43B968897A09040C43B968C97A0906FB
:104380002143D4D1F9680029CBD101780029CED0BE
:10439000C7E710207C69002C07D1BD4607B03CBCA4
:1043A00090469946A246AB46F0BD0A4B984721007D
:1043B000094B9847FF2319403B695B5C7A6813708F
:1043C0000820EAE7E51C010004110020E37F00005B
:1043D000B9670000651E010059ED000070B54C780A
:1043E0002A20074D2D562038AC4200DD70BD88785C
:1043F0000978130002002000024CA047F6E7C046EF
:10440000041100202542000030B583B014000023C1
:10441000019320490B7D4A7D12021A438B7D1B04B8
:104420001A43CB7D1B061343187A1B4B9847002871
:1044300007D1042201A92000184B9847082003B097
:1044400030BD144D2B7D6A7D12021A43AB7D1B04D7
:104450001A43EB7D1B061343187A114B98472B7DAB
:104460006A7D12021A43AB7D1B041A43EB7D1B06C7
:1044700013431D795A7912022A439D792D042A4348
:10448000DD792D061543FA218900064B98472D1832
:104490000195CEE704110020B9670000611C0100FE
:1044A000CD67000079EA000000B583B00B786A465A
:1044B000D371002B45D12033264AD35C9A0646D5CA
:1044C0002449202293438B540B7E4A7E12021A43C6
:1044D0008B7E1B041A43CB7E1B06134318781E4B9E
:1044E000984700281ED11B490B7D4A7D12021A43B2
:1044F0008B7D1B041A43CB7D1B061343187A164B86
:104500009847002823D013490B7D4A7D12021A4395
:104510008B7D1B041A43CB7D1B061343187A0F4B6C
:10452000984714E00B490B7E4A7E12021A438B7E99
:104530001B041A43CB7E1B0613431878074B98477E
:10454000D1E7044920228B5C202003438B540820B0
:1045500003B000BD04110020B967000039690000F4
:1045600030B585B002AC08222000204B984701AB43
:1045700022791A7001225A701D4B5B6821000120BC
:1045800098470A24082802D0200005B030BD01A9B0
:104590000D30184B98470400082801D00A24F3E78F
:1045A000154A137A507A00020343907A00041843A4
:1045B000D37A1B06184302A90D796B005B199B0087
:1045C0001B18087818714878587188789871C978DC
:1045D000D971E5235B00D35CCC21FF31505C000234
:1045E0001843C1B2000A054B9847CDE7611C010092
:1045F000300D0020C93C000004110020F1560000DD
:1046000010B52A23144AD35698420BDB2E23D25CD2
:10461000223B1341DB071ED4DB235B000E4AD35C35
:10462000834218D80C4B1A795C79240214439A7986
:1046300012041443DA791206224340008154E42222
:1046400052009A5CCA21FF31585C00021043C1B28B
:10465000000A024B984710BD04110020F1560000DB
:1046600070B582B00D784E7801A90D7001234B70A2
:104670001520094B98470400082803D00A2420007D
:1046800002B070BD2E23054AD35C0F2BF7D1310049
:104690002800034B9847F2E7C93C000004110020B2
:1046A0000146000070B584B002AC082220003E4BE9
:1046B000984701AB22791A7000225A703B4B5B6815
:1046C0002100012098470A24082802D0200004B0C5
:1046D00070BD01A90D30364B98470400082801D061
:1046E0000A24F3E702AB18792E23324AD25C0B3B43
:1046F0001341DB0710D52F490B7A4A7A1202134374
:104700008A7A12041A43CB7A1B061A4343001B18F9
:104710009B009B18FF221A7242001018800002A909
:10472000029D244B1A7A5E7A360216439A7A120454
:104730001643DA7A1206324315542E0A12185670AE
:104740002E0C96702D0ED5701A7A5D7A2D021543B7
:104750009A7A12041543DA7A12062A4312180D784F
:1047600015714D7855718D789571C978D1711A7A16
:10477000597A090211439A7A12041143DA7A12061D
:104780000A431218D17A01200143D172E522520066
:104790009A5CCC21FF31585C00021043C1B2000A80
:1047A000054B984792E7C046611C0100300D002080
:1047B000C93C000004110020F156000010B584B07F
:1047C0000B780F226A441370002B13D1134C237EF5
:1047D000627E12021A43A37E1B041A43E37E1B0669
:1047E000134318780E4B984700224223E2540820C6
:1047F00004B010BD09490B7E4A7E12021A438B7E1B
:104800001B041A43CB7E1B06134318780023009326
:10481000044B00220449054CA047E8E7041100209E
:1048200039690000994B000000D2496B21660000F5
:1048300030B585B002AC08222000934B984723790D
:10484000002B00D1F8E04223904AD35C012B00D822
:1048500081E0132B00D98DE08D4B029A53438B4A94
:104860003E321370190A5170190C91701B0ED370DF
:1048700086490B7D4A7D12021A438B7D1B041A4325
:10488000CB7D1B061343187A824B984700240028DF
:104890007DD17E4B3E21595C3F20185C00020843CD
:1048A0004021595C090408434121595C0906014330
:1048B00000D1E5E08C4200D3B6E0091B3E3319700D
:1048C0000A0A5A700A0C9A700A0EDA70724B9942F0
:1048D00000D893E06D4C237D627D12021A43A37DC4
:1048E0001B041A43E37D1B0613436C4A9446614440
:1048F00019710A0A5A710A0C9A71090ED971237D2D
:10490000627D12021A43A37D1B041A43E37D1B063A
:104910001343187A00230093614B00226149624DD2
:10492000A8473E23E35C3F22A25C12021A434023C5
:10493000E35C1B041A434123E35C1B061343574A01
:10494000944663443E3423701A0A62701A0CA270B3
:104950001B0EE37094E0029A53009B185A019B18B7
:104960004A4A3E321370190A5170190C91701B0E8D
:10497000D3707DE74D4B029A5343444A3E32137045
:10498000190A5170190C91701B0ED37070E73F4CCF
:10499000237D627D12021A43A37D1B041A43E37D2B
:1049A0001B061343187A424B98470500237D627D0E
:1049B00012021A43A37D1B041A43E37D1B06134313
:1049C000187A3C4B9847237D627D12021A43A37DDF
:1049D0001B041A43E37D1B0613431A785C782402F8
:1049E00022439C7824041443DA7812061443FA21F3
:1049F00089002800304B9847241A4AE7FA208000A3
:104A00004143224C237D627D12021A43A37D1B0485
:104A10001A43E37D1B061343187A00230093204BAF
:104A20000022214CA0472BE0184B3E3300221A7085
:104A30005A709A70DA7023E0144C237D627D120262
:104A40001A43A37D1B041A43E37D1B061343187A04
:104A5000184B984723003E3300221A705A709A7000
:104A6000DA70237D627D12021A43A37D1B041A4370
:104A7000E37D1B06134300221A715A719A71DA7191
:104A8000082005B030BDC046611C010004110020A3
:104A9000E7030000B96700009BC42000653BDFFF0F
:104AA000BD4A0000FFFFFF7F216600000F270000C6
:104AB000CD6700003969000079EA000010B582B0C6
:104AC0002E490B7D4A7D12021A438B7D1B041A432B
:104AD000CB7D1B06134319795A7912020A4399793F
:104AE00009040A43D979090611433CD0244A91426A
:104AF0001ED9244A9446614419710A0A5A710A0C53
:104B00009A71090ED9711D490B7D4A7D12021A4313
:104B10008B7D1B041A43CB7D1B061343187A00239D
:104B20000093194B00221949194CA04702B010BD3F
:104B3000FA2292005143187A00230093124B00226C
:104B4000134CA0470D490B7D4A7D12021A438B7D01
:104B50001B041A43CB7D1B06134300221A715A71A2
:104B60009A71DA71E2E7187A0A4B9847034B3E33A1
:104B700000221A705A709A70DA70D7E70411002078
:104B80009BC42000653BDFFFBD4A0000FFFFFF7FA5
:104B9000216600003969000010B582B00C4B42213B
:104BA0005A5C01325A54197E5A7E120211439A7E7F
:104BB00012040A43DB7E1B0613431878002300937C
:104BC000044B00220449054CA04702B010BDC0466A
:104BD00004110020994B000000D2496B21660000AF
:104BE0004A780F23134024210748415C0A208B4256
:104BF00000D9704712090A208A42FAD80238934233
:104C0000F7D90230F5E7C04604110020F0B5C646DA
:104C100000B582B00D784E7801AB1D7001225A703C
:104C20001220254B98470A24082804D0200002B0FF
:104C300004BC9046F0BD01A90D30204B98470400FC
:104C4000082801D00A24F1E71D4F3B797A79120236
:104C50001A43BB791B041A43FB791B0613436A00F2
:104C6000904643445E70E4235B00FB5CCA22FF3243
:104C7000B85C00021843C1B2000A124EB0473B7A3A
:104C80007A7A12021A43BB7A1B041A43FB7A1B0678
:104C900013434544AD005D19EB7A02221343EB72D6
:104CA000E5235B00FB5CCC22FF32B85C00021843BA
:104CB000C1B2000AB047B9E7E14B0000C93C0000AF
:104CC00004110020F156000010B50B7824210D4886
:104CD000415C0A20994200D210BD0A4C21786078CC
:104CE00000020843A17809040843E178090601435A
:104CF000DB00585C5B185B781B02034313800820C1
:104D0000EAE7C0460411002010B50B7824210C48B6
:104D1000415C0A20994200D210BD094C217860788C
:104D200000020843A17809040843E1780906014319
:104D3000DB005B181B795BB213700820ECE7C04600
:104D40000411002010B50B7824210B48415C0A2087
:104D5000994200D210BD084C2178607800020843C7
:104D6000A17809040843E17809060143DB005B18D8
:104D70009B7813700820EDE70411002010B50B7824
:104D800024210B48415C0A20994200D210BD084CF6
:104D90002178607800020843A17809040843E1788B
:104DA00009060143DB005B18DB7913700820EDE78F
:104DB0000411002010B50B7824210B48415C0A2017
:104DC000994200D210BD084C217860780002084357
:104DD000A17809040843E17809060143DB005B1868
:104DE0009B7913700820EDE70411002010B50B78B3
:104DF00024210B48415C0A20994200D210BD084C86
:104E00002178607800020843A17809040843E1781A
:104E100009060143DB005B185B7913700820EDE79E
:104E200004110020F0B583B015008C7824232E4A9D
:104E3000D35C0A20A34205D203B0F0BD00290FD1F4
:104E400002240DE04E782D23274AD3560A209E4295
:104E5000F2DC09782E23D25C244B1341DB07EDD41E
:104E60002A23214AD05C6B4607332200204FB847E3
:104E70000828E1D16B46DF791B4B2F229F54197A0A
:104E80005A7A12020A43997A09040A43D97A09061E
:104E900011437A00D2199200575C521851780902D6
:104EA0000F43917809043943D27812060A432A60E5
:104EB000760028229A5C961B2E720022AA8019780E
:104EC0005A78120211439A7812040A43DB781B06BF
:104ED0001343E4001C19E3796B72A379AB72637915
:104EE000EB720023EB71A7E704110020E07F0000C4
:104EF000254200002A4B2B4A1A602B4ADA602B4AC3
:104F00001A612B4A5A612B4A9A612B4ADA612B4A61
:104F10001A622B4A5A622B4A9A622B4A9A632B4A8C
:104F20009A642B4ADA642B4A1A652B4A9A652B4AF3
:104F30005A662B49802299502A490C3299502A49A5
:104F4000043299502949043299502949083299501C
:104F5000284904329950284904329950274904328B
:104F600099502749043299502649043299502649CC
:104F700004329950254904329950254904329950F8
:104F800024490432995024490432995023490C325F
:104F90009950234908329950224904329950704758
:104FA000480B002089410000C94C0000094D000059
:104FB000454D0000513B0000613B00007D3B00007F
:104FC0008D3B0000714100009D3B0000AD3B0000A7
:104FD00075400000F53C0000FD3B0000ED3F000087
:104FE000094400007D4D0000B54D0000ED4D00006E
:104FF000493C0000533C00005D3C0000693C00005F
:10500000753C00007F3C0000873C00008F3C0000A6
:10501000254E0000DD430000B93C0000A53F000024
:10502000993C0000A93C00000D4B0E4A5A600E4A04
:105030009A600E4ADA631A640D4959640D499964FD
:105040000D495965DA650D4A1A660D4A9A660D4A88
:10505000DA660D4A5A670D49E02299507047C046FA
:10506000300D0020F5410000D14100005D3E000000
:10507000753E0000E14B0000C93C0000D13E00003D
:10508000A13D0000F53D0000893D0000093E000003
:105090000D4B0E4A9A640E4A9A650E4A1A600E4AE1
:1050A0001A670E49802299500D49043299500D49D2
:1050B0004C3299500C49043299500C491032995095
:1050C0000B490C32995070473C0C00200D4C0000ED
:1050D00061460000A54600002D5100003148000047
:1050E000BD47000061450000E93E0000A944000002
:1050F0003D3F000010B50A233C2801D9180010BD1F
:105100008400024BE35898470300F7E7480B002060
:1051100010B50A233C2801D9180010BD8200024BAB
:10512000D35898470300F7E7300D0020F0B5D64676
:105130004F4680B585B02E232C4AD25C2C4B1341B0
:105140000026DB0702D40F2A1AD12A4E03AC042210
:105150002000294B9847238802AA5380A478147012
:1051600011003820254B984703000190082809D0EA
:105170000A230193019805B00CBC91469A46F0BDF4
:105180000026E3E7062C0BD0002CF3D12A23174A84
:10519000D356002BEEDD03AF0123994692461CE067
:1051A0002233124AD356002BE4DD002417002A25AF
:1051B00001212000B0470134E4B27B579C42F7DB69
:1051C000D8E700212000B0476D083D800134E4B2EB
:1051D0002A235246D3569C42CCDA3D884B462B427A
:1051E000EFD049462000B047EEE7C046041100204A
:1051F000C07F000001460000611C01001151000049
:1052000010B50A233C2801D9180010BD8200024BBA
:10521000D35898470300F7E73C0C002010B5074827
:10522000074B9847082807D10648054B9847082898
:1052300002D10548024B984710BDC046001100201E
:10524000ED650000011100200211002070B5044D31
:105250002878044CA0476878A047A878A04770BD7C
:105260000011002039690000F8B50700244B1B78B5
:10527000002B09D1234B9847082801D0142006E0C1
:1052800001221F4B1A7002E01F4B98470820002391
:105290001E4E1F4D1F4C204A20499D511A515A50F5
:1052A0000433F42BF9D1022F0DD0012F0FD9BB1FDE
:1052B000082B10D9032F12D00F2F14D0052F16D082
:1052C000042F18D0F8BD0220154B9847FAE7380094
:1052D000144B9847F6E73800134B9847F2E7032042
:1052E000124B9847EEE70F20114B9847EAE705204D
:1052F000104B9847E6E704200F4B9847E2E7C0467B
:10530000440B00201D5200004D520000480B0020AD
:10531000493B0000300D00204D3B00003C0C0020BC
:10532000453B0000253900001D39000021390000EF
:105330002D3900003D3B0000413B0000014B038044
:10534000082070470080FFFF10B50D4B9847C6231B
:10535000FF330C4AD05C002807D1E722520000211D
:105360000848094B98470A2010BD084B98472E2340
:10537000044AD35C002BF0D10B20044B9847ECE798
:105380004D52000004110020E51C01002D590000C1
:1053900030B5531EDBB2002A0BD00024C5182A7882
:1053A00052002243CA542C78E409013BDBB2FF2BA4
:1053B000F4D130BD10B5024B9847002010BDC04657
:1053C000A156000010B584B00400110010226846F8
:1053D000044B984769462000034B9847002004B0CF
:1053E00010BDC046611C0100C555000010B5014B41
:1053F000984710BDC553000000207047F0B5D64651
:105400004F464646C0B5A4B001900F0002910392EA
:105410009A462CAB1C8808AE102200213000644D47
:10542000A8478723F3731022002104A8A847019AF4
:10543000390004A85F4B984704AB1B787F2B2DD80D
:10544000102220A904A85C4B984720AB1B787F2B27
:1054500034D810221CA920A8574B984723000F339B
:105460001D11AAB29046002A38D0220738D14246F0
:10547000013A120196B2514F1F40BE4254DA330036
:1054800010A920AA981B80B25446E45C155C6C40BD
:105490000C5401339BB2BB42F4DB45E0102220A93F
:1054A00004A8454B9847002320AA08A9985C5D5C96
:1054B000684098540133102BF8D1C6E710221CA97C
:1054C00020A83D4B984700231CAA08A9985C5D5C66
:1054D000684098540133102BF8D1BFE70123984658
:1054E0000F232000984300230F2214400CA900270B
:1054F0008026504405E0944209D05F540133102BBC
:1055000007D09AB29442F6D9C25C5A54F6E75E5478
:10551000F4E7002310A80CA91CAA5C5C9D5C6C40FD
:105520001C540133102BF8D11022002118A8204B55
:10553000984701235B424344994600200027002BF3
:105540001ADD14AD18AC1E4E000100235044C25C9D
:10555000195D4A405A550133102BF8D11022290009
:105560002000B047019A02992000124B984701375A
:10557000BFB238004F45E7DB002314AC18A810A9D0
:105580001A5C5D5C6A401A550133102BF8D1019A00
:10559000029914A8074B9847102214A90398084BA6
:1055A0009847002024B01CBC90469946A246F0BD06
:1055B000E51C0100C553000091530000F0FF0F00EF
:1055C000611C0100F0B583B004000E002B4A0121DC
:1055D0001170002353709170D370137113722849A6
:1055E0002848294B9847002101AD284F7018002307
:1055F000C25C5A550133042BFAD1019BCB510431C3
:105600001029F3D11F4D21492800214B98472A68C2
:10561000137902210B431371002101AD1B4E601859
:105620000023C25C5A550133042BFAD1019B8B51E4
:1056300004311029F3D1134D14492800154B984714
:105640002D682B79022293432B710121022001E066
:10565000114207D1EB79DBB20A001A401842F7D0A9
:105660000243F5E7094D290006480B4B98471022E5
:1056700029002000094B984703B0F0BDD412002048
:1056800000340042E012002089070000240E0020B0
:105690001D08000051080000A1080000611C010065
:1056A00070B5074D2800074B9847074C2A0007495B
:1056B0002000074B98472000064B984770BDC04616
:1056C000D41200204D070000E012002000340042F8
:1056D000FD0700006707000010B5034B9847002244
:1056E000024B1A7010BDC046ED5D0000340E002064
:1056F00010B5144B1A780023002A06D10201124B70
:105700009B181A790523002A01D1180010BD030146
:105710000D4A9C58002C11D01A000B4B9B189B680B
:10572000002B0DD005230C28EFD8043B6354074A07
:1057300013540120064B98470023E6E70523E4E7CE
:105740000523E2E7340E0020F8120020E8120020C2
:10575000C55A000070B50E4B1878002817D10D4DB2
:1057600000240D4E04E00134E4B210350D2C0DD0B0
:105770002B79002BF7D02B68002BF4D0AB68002BD3
:10578000F1D02000B0470028EDD100E0012070BD2D
:10579000340E0020F8120020B55F0000F0B5CE46B0
:1057A000474680B5C5B0324B1B780020002B59D13D
:1057B000304E0027304B984626E00134E4B22B7976
:1057C000A34218D9E100AB689C466144082202A8B4
:1057D000C84702ABD979152302AA944663449C4674
:1057E00061440B79002BE8D1029B01938A78053143
:1057F0001800C047E1E7EB68002B00D0984701375D
:10580000FFB210360D2F2CD035003479002CF6D095
:105810003368002BF3D0B3689946002BEFD0802279
:105820005200002104A8154B9847154B9C46644430
:10583000E40021004944082202A80F4B984702AB1C
:10584000DA799B79D218053204A938000D4B9847B4
:10585000002807D133790024002BCCD0064B994681
:10586000B0E7002045B00CBC90469946F0BDC0465C
:10587000340E0020F8120020611C0100E51C01001C
:10588000FFFFFF1F895F0000F8B5144B1B78002B4A
:1058900021D11348134D0700D0370026012404E01E
:1058A0002C7010300135874212D002000379002B92
:1058B000F7D00368002BF4D08368002BF1D03300BD
:1058C0001168CC540133DBB211799942F8D8E7E77B
:1058D0000120054B98470020F8BDC046340E00203B
:1058E000F8120020E8120020C55A000084B010B55C
:1058F0000391049205930B4B1A780023002A02D1DE
:1059000005330C2804D9180010BC08BC04B0184793
:10591000000103AA044B18181ACA1AC013680360BE
:105920000023F0E7340E0020F812002010B5094BD8
:105930001A780023002A02D105330C2801D9180057
:1059400010BD0001044BC01810320021034B9847D2
:105950000023F4E7340E0020F8120020E51C0100BB
:1059600000B585B068460B4B984700200A4B984716
:105970000223002802D0180005B000BD6B469A89AA
:10598000920812020549D30FC817914243419B0068
:10599000F1E7C046390E00005D720000FF1F0000F5
:1059A000F8B50C008023DB019C466044050280238F
:1059B0005B009A420ED0043296B21E4F3300220092
:1059C00029000020B847C3B2052BF7D00220002BD6
:1059D0000BD0F8BD1E00174F330022002900002015
:1059E000B847C3B2052BF7D0F0E723786078000200
:1059F0001843A6780434002E17D02500013EB6B215
:105A00000136A41900262B787340D9B20B014B4004
:105A1000DBB29AB21B09D1004B401202360A324364
:105A200053409EB20135A542EDD1801B461EB041C8
:105A3000C0B2CEE7ED700000F0B5C64600B58046B6
:105A40000C000123CB708A70FF2717400E1D002F1A
:105A500017D03000013FBFB20137F6190027037895
:105A60007B40D9B20B014B40DBB299B21B09CD0090
:105A70006B4009023F0A39434B409FB20130B042AC
:105A8000EDD127703F0A6770043296B28021C901B8
:105A900041440902330022000020084FB847022386
:105AA000002803D0180004BC9046F0BD320021004D
:105AB0004046034B98470300F4E7C0464971000095
:105AC000A159000010B50400054B9847054B187804
:105AD00020431870044B98470820044B984710BD8A
