:100000004839002031CF00002DCF00002DCF000057
:1000100000000000000000000000000000000000E0
:100020000000000000000000000000002DCF0000D4
:1000300000000000000000002DCF00002DCF0000C8
:100040002DCF00002DCF0000B56300000DC20000D1
:100050002DCF00002DCF00002DCF00002DCF0000B0
:1000600061C1000071C1000081C1000091C10000A8
:10007000A1C10000B1C100002DCF00002DCF0000B4
:100080002DCF0000F9BB000009BC000019BC000026
:1000900029BC000039BC0000150100002DCF000074
:1000A0002DCF00002DCF00004DC200002DCF00004D
:1000B0000000000010B5064C2378002B07D1054B3B
:1000C000002B02D0044800E000BF0123237010BDC4
:1000D000E00100200000000088AF0100084B10B5CF
:1000E000002B03D00749084800E000BF0748036819
:1000F000002B00D110BD064B002BFBD09847F9E731
:1001000000000000E401002088AF010088AF01007A
:100110000000000070B52E4B1C6823689A795D7949
:10012000154001222A4210D09A7161698B1C6361CB
:1001300023689B8C9BB20B80238B013B9BB2238358
:10014000002B1FD0637F002B30D104232B4205D01E
:1001500022689371E27E023B13420CD102232B42B0
:1001600008D022689371E27E0233134202D0A27E4D
:10017000134217D170BDA27E1342EFD02000E36876
:100180009847EBE721680A71217F0529DDD12377A4
:10019000E37E1A42D9D0A37E1A42D6D02000A368AB
:1001A0009847D2E7236920009847E3E72268D3798C
:1001B0005BB2002BC9DB138C002BFCD10221137E18
:1001C0000B4313762268138C002BFCD1BDE7C0468D
:1001D000E009002030B5144C83B023680500002BE3
:1001E00002D02000114B9847114B28009847031E5E
:1001F000206005D06A780020032A03D003B030BD08
:10020000E120FBE71B68023A009201331232002121
:10021000084DA8470028F1D1072123681A685378B0
:100220008B435370EAE7C046FC010020153B0000F9
:100230009D3B00005536000010B5029C002C06D0F6
:100240000324204005D002280BD0012801D0E22051
:1002500006E0072003400020D2001A43029B1A80C8
:1002600010BDC80007210B40034312021A43029B32
:1002700000201A80F4E7C046002A21D01C4B1B68DE
:100280005B685B685B78002B09D1012822D00028CD
:1002900018D0022814D120230020136011E0012877
:1002A00018D0002812D002280AD107291BD9082902
:1002B00014D0E2200F2904D848230020136000E066
:1002C000E2207047582300201360FAE780230020C3
:1002D0001360F6E7402300201360F2E7D0235B00B1
:1002E00013600020EDE7242300201360E9E7C046F7
:1002F000FC010020044B8000C3580120002B00D0DB
:1003000070471E30FCE7C0460802002010B52B28BD
:100310000BD8AF4B80001B589F46AE4BAE4898475A
:10032000AE4BAF481860AF4B984710BDA94BAE48D5
:100330009847AE48A94B1860AA4B9847F5E7A54BDC
:10034000AB489847AB48A54B1860A64B9847ECE7DD
:10035000A04BA9489847A948A04B1860A14B9847C3
:10036000E3E7A74BA7489847DFE7A749994BA7487A
:100370009847DAE7A24BA6489847A648974B1860DB
:10038000984B9847D1E79E4BA3489847A34BA44866
:100390001978904B9847A348904B1860914B984719
:1003A000C3E7974BA04898479C4B9D481978894BC9
:1003B00098479E48894B18608A4B9847B5E7904B01
:1003C0009B489847B1E78E4B9A4898479A48834B89
:1003D0001860844B9847A8E7984B9847A5E7884B47
:1003E0009748984797487D4B18607E4B98479CE705
:1003F000834B954898479548784B1860794B9847B8
:1004000093E77F4B924898479248744B1860754B1E
:1004100098478AE77A4B9048984790486F4B186006
:10042000704B984781E7764B8D4898478D486B4BCA
:1004300018606C4B984778E7714B8B4898478B480E
:10044000664B1860674B98476FE76D4B8848984735
:100450008848624B1860634B984766E7684B86484C
:10046000984786485D4B18605E4B98475DE7644B44
:100470006D489847694B6A481978564B98478048A9
:10048000564B1860574B98474FE75D4B7D48984750
:100490007D48524B1860534B984746E7584B7B4872
:1004A00098477B484D4B18604E4B98473DE7544B5F
:1004B000784898477848494B18604A4B984734E742
:1004C0004F4B764898477648444B1860454B9847C1
:1004D0002BE74B4B734898477348404B1860414B90
:1004E000984722E7464B7148984771483B4B186044
:1004F0003C4B984719E7424B6E4898476E48374B3C
:100500001860384B984710E73D4B6C4898476C484B
:10051000324B1860334B984707E7394B6948984787
:1005200069482E4B18602F4B9847FEE6344B6748BE
:1005300098476748294B18602A4B9847F5E6304B97
:10054000644898476448254B1860264B9847ECE66A
:100550002B4B624898476248204B1860214B9847C4
:10056000E3E6274B5F4898475F481C4B18601D4BDC
:100570009847DAE6224B5D4898475D48174B18606C
:10058000184B9847D1E61E4B5A4898475A48134B88
:100590001860144B9847C8E6194B58489847584874
:1005A0000E4B18600F4B9847BFE6154B55489847C0
:1005B00055480A4B18600B4B9847B6E6104B53480A
:1005C00098475348054B1860064B9847ADE6C04620
:1005D0003C86010059710100948D01000402002045
:1005E000D08D010021310000288D01006C8D0100AB
:1005F000F88C0100108D0100D48C0100E88C010002
:1006000075720100188B0100048B0100108B010032
:10061000E08A0100F88A0100148A0100E50900203F
:10062000B8890100508A010080890100CC8901004D
:10063000748A010090A301000C8701007D2C00004A
:100640002489010038890100EC860100FC86010044
:100650004088010050880100A88A0100C88A010072
:1006600014870100248701009C870100B4870100E2
:10067000888B0100A08B0100FC880100108901001B
:10068000EC890100108C0100248C0100608B0100BA
:10069000748B0100948C0100B48C01003C8C01002F
:1006A000508C0100648C01007C8C0100D08701001B
:1006B000E087010088880100AC880100D48801002F
:1006C000E88801006088010074880100F08B010057
:1006D000008C010050890100688901001088010028
:1006E00028880100288B0100448B0100B88B010091
:1006F000D48B0100F0870100008801007C87010095
:100700008C8701005C8701006C8701003487010041
:1007100048870100F8B53B4BDE469B4657464546A9
:100720004E4601235A46E0B5374D13704A1E374BEB
:10073000010028009847364B36489847364B290029
:1007400036489A469847364C2800A0470104090CC1
:100750003448D0472B78202B31D02800A047000404
:10076000000C281801380378202B28D02E4B2800A5
:10077000190098462D4B994698472D4E3060002819
:100780003ED000242B4FA300F85041460020C8471C
:100790000134E4B230600028F5D13B6826491800E6
:1007A000264C9846A047002825D025494046A0471A
:1007B000002809D1234B98475B46187004E00123B9
:1007C0005A461B4E1B4F137028001F4C1F4A002116
:1007D000A0471C2200213800A04700231C4833609A
:1007E000D0475B4618781B4B98473CBC90469946CF
:1007F000A246AB46F8BD184B98475B461870E3E736
:100800000C4FCAE7E5090020F8090020C36F01007A
:1008100075720100F48D010059710100288E0100EC
:10082000ED750100408E0100249A01004976010017
:100830000002002008020020588E0100C975010046
:100840005C8E0100852E0000F96F01002602000079
:10085000608E01000D0300001D0F00000020704796
:100860000B4B10B518701A230A4C23700A4B98478B
:1008700008280CD1F821094A13780B4083433039FA
:100880000B4013700022064B1A701D23237010BDFD
:10089000F4090020E509002071140100080D002072
:1008A000F5090020022370B5124C03202370124B6F
:1008B00098471F2803D001230120237070BD172300
:1008C00023700E4B0E499E680E4D3000A84700283D
:1008D0000BD00D493000A84703001720002BEDD1A5
:1008E00000200A4B98472078E8E70F30074B9847DD
:1008F0002078E3E7E5090020F50200000802002067
:1009000060900100C9750100689001006108000055
:1009100010B5074B07489847074B9847002803D066
:100920001322064B1A7010BD2122044B1A70FAE7ED
:100930007572010058990100357E0000E50900201C
:1009400010B5074B07489847074B9847002803D036
:100950001322064B1A7010BD2222044B1A70FAE7BC
:10096000757201009C980100317D0000E5090020AE
:10097000F0B583B06B465C1D274D22000021072097
:10098000A8476B469E1D320000210620A8476B46F3
:10099000DF1D3A0000210820A847204D217820487B
:1009A000A84739781F48A84731781F48A84724230B
:1009B0001E4D2B702378052B29D81D4A9B00D35838
:1009C0009F461C4B18691C4B984767280CD90C2371
:1009D0000C202B7003B0F0BD164B1869164B9847CE
:1009E000BE23FF339842F2D82420F3E7114B186955
:1009F000114B9847E728EAD82420EBE70D4B1869FC
:100A00000D4B984703002420672BE3D9DFE70A2327
:100A10000A202B70DEE7C046F5EE00005971010098
:100A2000109C0100289C01003C9C0100E50900206D
:100A3000788E010008020020ED750100F8B5164F10
:100A4000164BE622002138009847154B00241D69FB
:100A5000144E0CE0AA18373B52781B01DBB2402A37
:100A600016D9373AD2B29B183B550134E4B228006C
:100A7000B047400884420ED26200D2B2AB5C402B39
:100A8000E8D8AA18303B52781B01DBB2402AE8D8DC
:100A9000303AD2B2E7E7F8BD200C0020F96F010030
:100AA00008020020ED75010070B5154B154C0500CE
:100AB0006360154B1869154B9847154B40081B7818
:100AC000207223702000134B6570984708280CD0C3
:100AD000092806D0112800D070BD29220E4B1A70AB
:100AE000FAE728220C4B1A70F6E71D220A4B0B4836
:100AF0001A700B4B19684A1C1A600A4B9847EBE7AF
:100B0000200C0020E809002008020020ED750100FB
:100B1000090D002085DB0000E5090020849101001B
:100B20003402002059710100F0B5C64600B5424BB1
:100B300082B00520984701231F2804D0180002B076
:100B400004BC9046F0BD3D4D3D49AE683D4C300083
:100B5000A04700281BD13C4B1A781823002AEDD05F
:100B60003A4B1870EB681A78002A1FD00024384ED0
:100B7000042703E001341A5D002A17D0B047EB6860
:100B80001A5D801842781742F4D10423D6E7314920
:100B90003000A04706230028D0D12B4B1A78182309
:100BA000002ACBD00122294B1A70DBE718002A4B10
:100BB0009847431E9BB20400DE2B0CD8274B2869B4
:100BC00098470723C207B9D4254B9847242807D054
:100BD000244B1B78B2E7244B244898470423ADE705
:100BE0002B691B78002B12D044230027184E9846FF
:100BF00003E00137DB5D002B09D0B04741462B698C
:100C0000DA5D801842781142F3D10B2396E7184B36
:100C10009847154B1748984701AA0021164B0A2000
:100C200098470199154B16489847164BE0B29847DC
:100C30000C4B1B7882E7C046F5020000080200203A
:100C40009C910100C9750100F5090020090D0020E3
:100C50003D6F0100049201009D6B0100ED750100E4
:100C600071090000E509002075720100A4910100DE
:100C70003D0A0000B8910100F5EE00005971010035
:100C8000EC910100A90A00000300083BDBB210B59B
:100C90000D2B46D8254A9B00D3589F462448254B08
:100CA000984710BD234B24489847FAE7214B234827
:100CB00098471822224B1A70F3E71E4B2148984799
:100CC000EFE71C4B2048984719221D4B1A70E8E7A4
:100CD000184B1E489847E4E7164B1D4898472822B2
:100CE000174B1A70DDE7134B1A489847D9E7114B99
:100CF00019489847D5E70F4B18489847D1E70D4B4F
:100D0000174898471748184B1860184B9847C8E77A
:100D1000084B174898471748134B1860134B9847D0
:100D2000BFE70100034B14489847BAE7908E0100D3
:100D3000A09B010059710100949A0100E89A0100FA
:100D4000E5090020089B0100209B0100389B010061
:100D5000D48C0100589B0100749B0100849B01000E
:100D6000A89A0100C89A0100300200202131000039
:100D7000B49B0100D89B0100F89B0100F0B5C6466A
:100D8000192300B5314D060082B00C002B701920DC
:100D9000012903D002B004BC9046F0BD00272C4BC3
:100DA0002C4898472C4B98472C4B18782C4B98473D
:100DB0002C4B01A91F602C4B33201E702B4E0F7043
:100DC0009846B0476B463D20591D0F70B0476B46A3
:100DD0003E20991D0C70B047254C19202100B047CA
:100DE000082801D01A20D5E72378012B24D02149E7
:100DF0002148224CA047224F06203900B04708283E
:100E0000F0D13B78002B19D01E491F48A0476B46F4
:100E1000DE1D00233100337008201C4B98473178C9
:100E20001B48A047434618781A4B9847082807D014
:100E3000194B98472878ADE71849D9E71849E4E7EE
:100E40001848A0471D231D202B70A3E7E5090020AB
:100E500075720100D08F0100317D0000F40900207F
:100E60007114010034020020E4090020390F010050
:100E7000060D0020C48F01000C9001005971010083
:100E80000A0D0020C88F01001890010039210100CF
:100E90002490010029E80000890C0000C08F0100A7
:100EA000CC8F010048900100F8B5144B144E1F7808
:100EB00005233370134B14499D68144C2800A04738
:100EC00000280CD012492800A047002800D0F8BD07
:100ED000104B01211870104B98473070F7E707212D
:100EE00001220C4B394007391A704B4259410130ED
:100EF000C9B2094B98473070E9E7C046080D002099
:100F0000E5090020080200204C990100C975010084
:100F100050990100E40900207D0D0000F8B52D482E
:100F20002D4B984702232D4F2D4E7D682D492800CB
:100F30002D4C3370A047002823D02C492800A0470F
:100F400000281AD02A492800A047002807D11823D2
:100F50003370284B18301B78012B22D0F8BD26495E
:100F60002800A04700280FD024492800A0470028C7
:100F70000ED1234B98473070F0E7224B98473078DA
:100F8000ECE7214B9847E9E7204B98473070E5E7BD
:100F900002201F4B98471F2807D0012301203370E0
:100FA000DCE71C4B98473070D8E77D681A49280069
:100FB000A04700280AD019492800A047002801D0DE
:100FC0003078CBE7164B98473078C7E7154B9847F2
:100FD0003078C3E7EC980100757201000802002028
:100FE000E509002020990100C9750100249901003C
:100FF0002C990100F5090020309901003499010075
:10100000A5080000A90E000089210000A51A000013
:10101000F5020000290B00003C99010044990100F1
:10102000410900001109000070B582B0314C01AED9
:101030003148A047320000211920304DA8473048E0
:10104000A0473378012B47D0042B48D02D48A04728
:101050002D4B1B78002B31D0012B43D02B48A047C0
:101060002B4B1B78012B31D0002B32D02948A047C5
:101070006B465E1D320000212320A84733780F2BDA
:1010800033D0002B16D02448244B98476B469E1D26
:10109000320000210820A84731782148A0476B463C
:1010A000DE1D320000210720A84731781D48A047E7
:1010B00002B070BD194B1C489847E7E71B48A04792
:1010C0001248A047124B1B78012BCDD11848A047DE
:1010D000CCE71848A047C9E71748A047B6E7174824
:1010E000A047B3E71648A047B8E70C4B1548984708
:1010F000CCE7C0465971010098990100F5EE000057
:10110000C8990100EC990100E4090020109A01003F
:10111000090D0020449A0100609A010075720100D7
:101120006C9A0100809A0100589A0100009A01000F
:10113000289A0100349A0100D4990100E099010035
:10114000089A0100509A0100F0B5C64600B582B079
:10115000FF236A460021D37023200332304DA84775
:10116000304EB047304C314B2078984708280BD090
:101170002F4B30489847304B30481860304B9847D9
:1011800002B004BC9046F0BD6B462278DB789A42F0
:10119000EED100230193B04701AA00212020A847E7
:1011A0002848234DA8470120274901220B78274EC4
:1011B00003430220DBB203430420DBB203430820D5
:1011C000DBB203431020DBB20343202003430B7048
:1011D000019B32701A401BD11D483270A8471D4830
:1011E000A847154B1C48164F98461860B8473378E7
:1011F000002B10D1194843461860B84723780F2BAD
:101200000BD0002B01D11648A847164B9847B7E7DB
:101210001548A847E3E71548EDE71548A847F4E760
:10122000F5EE00004D7D0000F4090020711401006E
:1012300075720100449101003002002058910100B4
:101240002131000088900100080D0020F5090020E0
:10125000C4900100DC900100009101007C9001002D
:101260003491010029100000AC9001007090010041
:101270002491010070B5174B984717491748184B30
:1012800098471849184B194898471948194CA047CE
:10129000194B1878194B9847194B9847002800D1DB
:1012A00070BD184B9847184D184B2A000021232079
:1012B00098472B78002B09D00F2B04D01448A04757
:1012C000144B9847ECE71448A047F9E71348A047A8
:1012D000F6E7C0464D72000021130000D91500004A
:1012E000ADD90000048B010059710100F89701008D
:1012F0001098010075720100F409002071140100BA
:10130000ED7C00004D7D000000000020F5EE0000A7
:101310009098010049110000409801006898010070
:10132000F0B5040083B02848284DA847284E002176
:1013300032000020274FB84708213000264B98473D
:10134000082C1BD00022254B1A70102C2CD0182CE6
:1013500032D01B2C0AD02248A847224B22481860C2
:10136000224B98472248A84703B0F0BD2148A84720
:1013700021481C4B18601D4B9847F3E70122174B7F
:101380001E481A70A8471E48164B1860174B9847FE
:1013900001AA00210220B84701991A48A8471A4B10
:1013A00098471A4B9847DDE719480E4B18600F4BCA
:1013B00098471848A847D5E71748A8471748094B42
:1013C00018600A4B9847CDE71C970100597101003E
:1013D00024020020F5EE0000C5190000F5090020E8
:1013E000BC970100300200207C90010021310000F8
:1013F000D097010094970100AC9701002897010055
:10140000F88A010040970100357E00002910000095
:1014100054970100649701007C97010088970100B0
:10142000F0B5D64646464F46C0B5514C0B7BA54459
:101430008F68504C4E68504A002102A89846A04739
:101440004D4A00218CA8A0474C484D4CA0473B7802
:10145000002B00D187E04346002B07D18B23DB0014
:101460009D441CBC90469946A246F0BD454B464D56
:10147000196846484A1C1A60A84739784448A84762
:1014800041464448A84731004348A8476B46434E6D
:10149000991C1F20B0476B460E20D91CB0476B46E5
:1014A00002213F485956A8476B4603213D485956EB
:1014B000A8473D48A0473D48A84701235B42434415
:1014C0009946002B09D00024394E3B190134597834
:1014D0003000E4B2A8474C45F7DB364B0A2098476A
:1014E000354B3A78354902A8994698474346012B2F
:1014F0003CD0FF239A462E4E7C1C8CAD474422786C
:1015000031002800C84753462278681C12011A404F
:1015100031000134C8470235BC42F0D18CAA944650
:10152000274B43445B0063440A2201A91A80254DDE
:101530008CA80A80A8478CA90200234C02A8A047C7
:101540006B466A46DB7892785BB252B21F498CA830
:10155000C8478CA8A8478CA9020002A8A04702A8E7
:101560001B4B98477AE71B48A04774E78CABDBE737
:10157000A8FBFFFFF96F010026020000DC950100C7
:10158000757201002C020020597101003096010093
:1015900054960100749601008C96010049200100C8
:1015A000A0960100B4960100C8960100E8960100DB
:1015B000009701008D710100ED740100F4960100A7
:1015C000FFFFFF7FED750100FB750100049701002F
:1015D000213100000C96010070B50B7805000C005D
:1015E000042B0AD0022B00D070BD637B1E2B00D9C8
:1015F0003EE1A34A9B00D3589F460B791E2B00D98E
:101600003AE1A04A9B00D3589F469F4B9F4898477A
:101610009F48A04B1860A04B9847E5E79A4B9F481E
:101620009847E1E7984B9E489847DDE7964B9D48E1
:101630009847D9E7944B9C489847D5E7924B9B48ED
:101640009847D1E7904B9A489847CDE78E4B9948F9
:101650009847C9E721002800974B9847C4E78A4B71
:1016600096489847C0E7884B95489847BCE7864B13
:1016700094489847B8E7844B93489847B4E7824B1F
:10168000924898479248834B1860834B9847ABE742
:101690007D4B90489847A7E77B4B8F4898478F48EA
:1016A0007C4B18607C4B98479EE7774B8C4898475B
:1016B0008C48784B1860784B984795E7724B8A486E
:1016C00098478A48734B1860734B98478CE76E4B6A
:1016D0008748984787486F4B18606F4B984783E758
:1016E000694B8548984785486A4B18606A4B98470C
:1016F0007AE7654B8248984776E7634B814898477D
:1017000072E7614B804898478048624B1860624B93
:10171000984769E75C4B7E4898477E485D4B186068
:101720005D4B984760E7584B7B4898477B48594B3F
:101730001860594B984757E7534B7948984753E7F8
:101740007848794B98470122784B79481A70514B69
:101750001860514B98474C4E7648B047237841E784
:10176000494E4E48B047F7E7474E4D48B047F3E77C
:10177000454E4C48B047EFE7434E4B48B047EBE788
:10178000414E4248B0474248424B1860424B98474E
:10179000E2E73D4E6248B047DEE73B4E6648B04761
:1017A000DAE7394E5748B047D6E7374E5648B04784
:1017B0006248384B1860384B9847CDE7324E544852
:1017C000B0475F48334B1860334B9847C4E72E4E01
:1017D0005148B04751482F4B18602F4B9847BBE7F3
:1017E000294E3248B047B7E7274E3148B047B3E7F4
:1017F000254E3048B047AFE75248A2E7224E2F4867
:10180000B047A9E7204E2E48B047A5E71E4E2D4809
:10181000B047A1E71C4E2C48B0479DE71A4E2B4815
:10182000B04799E7184E2B48B04795E7164E2A481F
:10183000B04791E7144E2A48B0472A48154B186024
:10184000154B984788E7104E2748B04784E70E4E5F
:101850003D48B0473D480F4B18600F4B98477BE71A
:10186000094E2548B04777E7074E2548B04773E74C
:10187000054B37489847B7E6034E3648B0476BE705
:10188000C88E0100448F010059710100D0940100FD
:10189000E494010030020020213100004C9201004C
:1018A000609201007892010090920100B0920100D4
:1018B000C8920100E492010021140000FC92010092
:1018C00010930100289301004493010064930100E8
:1018D0002C95010084930100A0930100489501001C
:1018E000B493010054970100CC9301005895010076
:1018F0006895010078950100F4930100849501003A
:1019000018940100349401004C940100A895010042
:1019100074940100BC95010094940100A894010006
:10192000B89401002C92010075720100F5090020A5
:10193000209201000C950100A0920100609401002A
:101940008494010008920100D8930100E8930100FB
:10195000CC950100F8940100F0B5C64600B5144DD1
:1019600080462B691A78002A12D00024114F0426D1
:1019700003E001341A5D002A0AD0B8472B691A5DCA
:10198000801842781642F4D1122004BC9046F0BD73
:101990001800094B98474346FF2118700140074B38
:1019A0000748984743461B780F2BEDD81F20ECE7DC
:1019B000080200203D6F01009D6B0100597101007C
:1019C000E89F0100F8B50400094E0A480D00B04731
:1019D000002D0AD0013DEDB20135074F6519217880
:1019E00038000134B047AC42F9D10448B047F8BDE3
:1019F00059710100DC9F0100E09F01005C92010031
:101A0000F0B5D6464F4646468246C0B58AB01F4B13
:101A10000D002322002101A898475346002B32D005
:101A2000013BDBB201339846FF2300249946184F4F
:101A3000184EA84401AB2A7818193900B0474B4614
:101A40002A78601C12011A4001AB9C4639006044A0
:101A500002340135B047E4B2A845EBD153465800F3
:101A600001AB9C46C0B260446A460B4B694613808A
:101A70000A4B984701A80A4B98470AB01CBC9046ED
:101A80009946A246F0BD01A8EEE7C046F96F0100F5
:101A900000970100ED7401000A0D0000DD750100E2
:101AA00021310000F0B5C64600B5CF488EB0CF4E0C
:101AB000B0470223CE4C23222370002105A8CD4B32
:101AC00098470320CC4DA8471F2814D0012323702A
:101AD0000420A8471F2800D197E001232370052088
:101AE000A8471F2800D1A9E00123012023700EB0D0
:101AF00004BC9046F0BDC14BC1499B68C14F180062
:101B00009846B847002800D1A1E0BF494046B847F1
:101B1000002800D1AEE0BD494046B847002800D1BA
:101B200007E1BB494046B847002800D105E1B94963
:101B30004046B847002800D10EE1B7494046B847B3
:101B400003002B20002BD2D0B4494046B8470028D0
:101B500000D1B1E1B2494046B847002800D1BDE10B
:101B6000B0494046B847002800D1C4E1AE494046DC
:101B7000B847002800D1C7E1AC494046B847002823
:101B800000D1D2E1AA494046B847002800D1D9E1A6
:101B9000A8494046B847002800D1E0E1A6494046A0
:101BA000B847002800D1E3E1A4494046B8470028DF
:101BB00000D1EAE1A2494046B847002800D1EDE152
:101BC000A0494046B847002800D1F0E19E49404670
:101BD000B847002800D1FBE19C494046B84700289F
:101BE00000D102E29A494046B847002800D06FE78A
:101BF00001AC002122001330964B9847217896487B
:101C0000964B9847227896492CE07C4F9549B868C6
:101C10007C4B9847002800D061E7FD680622924976
:101C20002800924CA047002800D1B7E00622904936
:101C30002800A04700282CD0022058E76F4F8D497C
:101C4000B868704DA847002839D020784FE701AA1E
:101C50000021804B02309847019987487F4B984775
:101C6000019A864905A8864B984705A8854B984751
:101C70001E203CE7002101AA0530764B9847102131
:101C800001A8814B9847102001A9804B98471E203E
:101C90002DE701AC2200002115206E4B98472279D8
:101CA00001996E4B7A4898472279019B794905A89A
:101CB000734CA04705A8734B98471E2017E7FC6894
:101CC0005B492000A847002849D073492000A84755
:101CD000002868D071492000A8470028ACD16B4685
:101CE000D81C6F4B9847122800D100E76B4602AA18
:101CF000D91C1B20574B98471A23082801D01800DD
:101D0000F5E601AB0F251C796B4625402409D978EF
:101D10002A0023006348514EB04723002A005D4942
:101D200005A8574CA04705A8564B98471E231800F6
:101D3000DDE601AA002104309FE7002101AA01305D
:101D4000444B9847082101A84F4B9847082001A908
:101D50004E4B98471E20CAE601AA0021F0E76B46C9
:101D6000D81C4F4B9847122800D1C0E66B4602AAF8
:101D7000D91C1C20374B98471A230828BFD16B4623
:101D800049481A7AD978354B98476B461B7A002B0D
:101D900000D137E14548B0474548C5E701AC2200CE
:101DA0000021153079E76B46D81C3D4B9847122827
:101DB00000D19CE66B4601AAD91C1A20254B9847F6
:101DC0001A2308289BD16B46019AD9783948234BAE
:101DD0009847019A22492A4B05A8984705A8294BFC
:101DE00098471E23180082E68C9C01007572010042
:101DF000E5090020F96F0100F5020000080200204B
:101E0000B89C0100C9750100DC9C0100E49C010044
:101E1000EC9C0100F49C0100FC9C0100049D01006D
:101E20003C9D0100649D0100809D0100B09D01006A
:101E3000C89D0100F09D0100149E0100389E010024
:101E4000589E0100749E0100949E0100B49E010002
:101E5000D89E0100F5EE0000E09E010059710100DE
:101E6000309E0100149F0100609001002576010062
:101E7000689001003C9F0100C09C0100D49C0100BF
:101E8000ED74010021310000C5190000011A0000A5
:101E9000189F0100349F0100949F0100B89F01002A
:101EA00059190000C09F0100409F0100649F01007C
:101EB000689C01009C9F010001AC584B220000214E
:101EC000193098472378012B00D17DE005A8042B19
:101ED00000D0CBE65248B0475248C7E601AC4F4B62
:101EE00022000021063098472378002B26D14E4847
:101EF000B0474E48BAE601AC002122000830474BFB
:101F0000984721784A487BE601AC444B22000021E7
:101F10002330984723780F2B78D005A8002B00D0CA
:101F2000A4E64448B0474448A0E601AC00212200A2
:101F300007303A4B98472178404861E64048B0471F
:101F4000404893E601AA0021344B20309847019A7B
:101F50003D4811003D4B9847019A3D4982E601AC4E
:101F60000021220021302D4B98472178394847E63F
:101F700001AC22000021294B1830984721883648AF
:101F8000324B9847228835496CE601AC002122008B
:101F90002230224B98472178314831E601AC0021AC
:101FA000220017301D4B984721782E4828E601ACB7
:101FB00022000021194B0C30984721882A48234BD6
:101FC0009847228825494DE62848B04728484DE6DD
:101FD00001AC22000021114B1E3098472188254872
:101FE0001A4B984722881D493CE601AC0B4B220056
:101FF0000021163098472378002B0BD11E48B0479C
:102000000A4833E61D48B04708488DE61C48B047EB
:102010001C482BE61C48B0470A4827E6F5EE0000AE
:10202000249D01005C9C0100509D0100709C0100FA
:102030006C9D01009C9D0100849C0100B49D0100E9
:10204000409D0100689C0100D09D01005971010074
:10205000E89D0100F89D01001C9E0100309E0100DA
:10206000409E01005C9E0100809E01000C9D0100CD
:10207000509C0100A09E0100C89E01007C9F0100B1
:10208000889D0100789C0100B89E0100F0B5C6460D
:1020900000B5144D80462B691A78002A12D000240E
:1020A000114F042603E001341A5D002A0AD0B84714
:1020B0002B691A5D801842781642F4D1122004BCB4
:1020C0009046F0BD1800094B98474346FF21187011
:1020D0000140074B0748984743461B780F2BEDD824
:1020E0001F20ECE7080200203D6F01009D6B0100FE
:1020F00059710100E89F0100F0B54F46D6464646AB
:10210000C0B50700012909D0022932D01A4E1B4858
:10211000B0471CBC90469946A246F0BD10239A4693
:10212000174B01259946174B0024134E984611E092
:1021300037395B5D0901C9B2402B17D9373BDBB298
:10214000C918C9B2395540460134B047E3B2023527
:102150005345DCD24B46DB686200D15C4029E7D8AE
:1021600030395B5D0901C9B2402BE7D8303BDBB2A7
:10217000E6E708239A46D3E7597101005C92010013
:1021800008020020FC9F0100F0B5DE464E464546A1
:102190005746E0B5CD488DB0CD4DA847002310225D
:1021A0000021CC4C04A80193A0471022002108A8CC
:1021B000A0470223C84E04203370C84B9946984765
:1021C0001F281CD00123C64CC64F33700520C847BA
:1021D0001F2800D17AE001233370A3689A46C249D0
:1021E0005046B847002800D193E0337898464046DF
:1021F0000DB03CBC90469946A246AB46F0BDB84CEB
:10220000BA49A368B74F18009A46B84780460028D5
:1022100000D18EE0B6495046B8478046002800D12C
:10222000A4E0B4495046B8478046002800D105E1F3
:10223000B1495046B847002800D1A3E1AF49504604
:10224000B847002800D1D6E1AD495046B84780468E
:10225000002800D138E2AB495046B84780460028F4
:1022600000D154E2A8495046B8478046002800D122
:1022700095E0A6495046B8478046002800D184E240
:10228000A3495046B8478046002800D1D4E2A1496E
:102290005046B8478046002800D16DE39E4950461D
:1022A000B847002800D1A0E39C495046B8472A23EC
:1022B000984600289BD09A495046B847002896D0A7
:1022C00098495046B847002891D07FE7A3689649BF
:1022D00018009A46B8478046002800D07FE7E36898
:1022E0001A78002A00D19EE1042300278F4E9946D8
:1022F00004E00137DA5D002A00D194E1B047494695
:10230000E368DA5D801842781142F2D10A239846D8
:102310006DE7022306303370C8471F285AD00123C7
:1023200033700720C8471F2800D1A0E00123337075
:102330005CE7E7683B78002B00D109E144237B4E42
:10234000994607E001239C46E0444346FB5C002B92
:1023500000D1FDE0B04743464A46E768FB5CC01841
:1023600043781A42EED10323984640E7E3681A788F
:10237000002A00D11AE16D4E442707E0012294465D
:10238000E04442469A5C002A00D10FE1B047424641
:10239000E3689A5C801842781742EFD1E3E7E3687C
:1023A0001A78002A00D1CBE2604E042707E0012210
:1023B0009446E04442469A5C002A00D1C0E2B0470D
:1023C0004246E3689A5C801842781742EFD10F23A7
:1023D00098460CE7E368564918009846B847824685
:1023E000002800D1ECE153494046B847002898D175
:1023F0006B46D81C504B98478046122800D1F6E611
:1024000002AB9A466B4652466469DB784B49200022
:102410001370B847002800D0A9E301235246137176
:10242000474B51461C2098471A239846082800D04D
:10243000DDE64448A8471D239846D8E6E3681A78A5
:10244000002A00D11AE1394E442707E001229446C0
:10245000E04442469A5C002A00D10FE1B047424670
:10246000E3689A5C801842781742EFD17BE73649DF
:10247000E068B847002800D0B7E66B46D81C2E4B62
:1024800098478046122800D1B1E602AB9A466B46C7
:102490005246DB7827001370244B98462B4B9B4603
:1024A00004217B6900261A788946002A05D116E3A3
:1024B00001369A5D002A00D111E3C04749467B6985
:1024C0009A5D801842781142F2D11FE704A0010002
:1024D00075720100F96F0100E5090020F5020000A6
:1024E00008020020C97501003C9F0100B89C010052
:1024F000DC9C0100E49C0100049D01003C9D010066
:10250000B09D0100649D0100D89E0100589E01000D
:10251000149E0100749E0100B49E0100EC9C010019
:10252000F49C0100FC9C0100149F01003D6F010020
:10253000949F0100C89D01008D200000C88F0100FC
:10254000390F010018A30100B89F01009D6B010025
:102550003800C74B9847082800D004E71022002114
:10256000C44B38009847C44B01000190C3489847BA
:1025700001A90220C24B9847082800D11DE31A2365
:10258000984634E6E468BF492000B847002800D0E8
:10259000B1E00123BC490B701920B94B98470828BA
:1025A000EDD1BA48A8471D23984620E61800B04B45
:1025B0009847202800D0D6E6AF4BB5489847E46846
:1025C000B44B20009847B44B0100200098470121EC
:1025D00008A8B24B984708A90520A94B9847082896
:1025E000CDD1AF48A8470223AE4A11780B431370F0
:1025F0001D239846FBE5E168AB489F4B9847E4688C
:10260000AA492000B847002800D099E00123A84932
:102610000B7006209A4B98470828B0D1A548A847C8
:102620001D239846E3E51800A34B9B469847FF21DE
:10263000C3B29A46904B0140A048994698475346EA
:10264000052B00D962E623691A78002A00D14DE1F2
:102650009B4E042707E001229446E04442469A5CE0
:10266000002A00D142E1B047424623699A5C8018B3
:1026700042781742EFD115239846B8E518007C4BF5
:102680009847202800D06EE67B4B8E489847E46838
:10269000804B20009847804B010020009847012183
:1026A00004A87E4B984704A90420754B9847082836
:1026B00000D064E704237B4A834811780B431370EE
:1026C000A8471D23984692E5E3681A78002A42D06D
:1026D0007B4E042706E001229446E04442469A5C81
:1026E000002A38D0B0474246E3689A5C80184278A6
:1026F0001742F0D10AE675492000B8470D239846E5
:10270000002800D073E56049093B0B7044E7E3689B
:102710001A78002A77D06A4E042706E001229446F0
:10272000E04442469A5C002A6DD0B0474246E368D6
:102730009A5C801842781742F0D10823984656E5F3
:1027400063492000B84709239846002800D04EE589
:10275000574908705DE71800574B9847FF215D4CBB
:1027600001402070444B554898472378052B00D9E9
:10277000CCE521000720424B9847082800D0FEE610
:102780005548A8471D23984631E5E3681A78002A82
:1027900000D10CE14A4E042707E001229446E044B0
:1027A00042469A5C002A00D101E1B0474246E36804
:1027B0009A5C801842781742EFD10E23984616E5AE
:1027C0006B46981C454B98478046122800D10EE571
:1027D00063691A78002A00D144E1394E042707E0E2
:1027E00001229446E24452469A5C002A00D139E123
:1027F000B047524663699A5C801842781742EFD11D
:1028000014239846F3E418002B4B9847FF21344CCF
:1028100001402070184B3348984723780A2B8CD8F6
:1028200021000820164B9847082800D0A7E62E481C
:10283000A8471D239846DAE4E3681A78002A00D1F5
:10284000F2E01F4E042507E001229446E044424690
:102850009A5C002A00D1E7E0B0474246E3689A5C00
:10286000801842781542EFD110239846BFE4C04645
:10287000ED7501003979010059710100C09C01001A
:10288000390F0100BCA00100060D0020C4A001000A
:1028900054A0010061790100DD750100F9200000FC
:1028A00068A00100080D0020E8A00100C88F010009
:1028B0000A0D0020FCA001009D6B010024A1010075
:1028C0003D6F010088A001009CA00100C0A0010094
:1028D000CC8F01000B0D002038A101008D200000DD
:1028E0000C0D002058A1010068A101001800D84774
:1028F00001000400B648C8476B46DE1C3200B54BE9
:102900000021232098473378002B00D0DAE01633DB
:102910009846B14BB14AE318934200D967E4534655
:1029200002A90B711520AE4B029498471A239846C2
:10293000082800D05BE4AB48A8471D23984656E41E
:102940001800A94B984702AC20800004010CA74B4B
:10295000A74898472388FF2B00D938E5A04B2100D2
:10296000132098471A239846082800D03FE4A1482E
:10297000A8471D2398463AE4E3681A78002A00D154
:10298000D7E09D4E042507E001229446E0444246EC
:102990009A5C002A00D1CCE0B0474246E3689A5CDA
:1029A000801842781542EFD1112398461FE4180091
:1029B0008D4B984702AC20800004010C8B4B8F4854
:1029C00098472388FF2B00D9F7E6854B2100172075
:1029D00098471A239846082801D0FFF708FC884832
:1029E000A8471D239846FFF702FCE46885492000AC
:1029F000B847002800D0C6E002AB9A4601235246F1
:102A00001370774B5146162098471A23984608288A
:102A100001D0FFF7ECFB53467B481978734B98477E
:102A20001D239846FFF7E3FB18006F4B98476F4C48
:102A3000010002907548A047754B029A9A4200D94E
:102A400012E7674B02A9182098471A2398460828CE
:102A500001D0FFF7CCFB02996E48A0471D23984692
:102A6000FFF7C5FB1800604B9847604B010004005E
:102A7000694898476B46DE1C3200564B00212320E4
:102A800098473378002B00D08AE016339846524B93
:102A9000524AE318934201D9FFF7A9FB6B469B7892
:102AA00002A90B701A204E4B4C6098471A23984687
:102AB000082801D0FFF79BFB5848A8471D239846DC
:102AC000FFF795FB0F2B00D029E707339846544BAF
:102AD000544AE318934200D821E7FFF788FB180017
:102AE000D847FF2106000140404B4F48F6B29847B7
:102AF000052E00D90AE44D4B0437BB4200D0CFE489
:102B00006069D8470600A069D847534600013043A2
:102B100018715146324B1B2098471A2398460828B3
:102B200001D0FFF764FB4248A8471D239846FFF7F2
:102B30005EFB18002C4B98472C4C010002903D483E
:102B4000A047334B029A9A4200D92DE7244B02A9A1
:102B50000C2098471A239846082801D0FFF747FB16
:102B600002993548A0471D239846FFF740FB33499B
:102B70002000B84709239846002801D0FFF737FB0B
:102B8000534618714CE42D492000B8470923984654
:102B9000002801D0FFF72BFB02AB9A46187030E7F4
:102BA0000F2B00D07AE7073398461D4B1D4AE318D8
:102BB000934200D872E7FFF71AFB0121204A21480F
:102BC00013780B431370A8471D239846FFF70FFB9C
:102BD000B0A20100F5EE000040AA8FCCC0CF6A0081
:102BE000390F0100C8A201009D6B0100597101005D
:102BF00088A10100A8A101003D6F0100ECA1010026
:102C000004A20100C88F010094A2010028A20100C3
:102C1000FFFF000044A20100B4A20100F0A20100E5
:102C2000C02571CC80841E0024A101001002002068
:102C30003CA3010068A201007CA20100CC8F01002E
:102C4000080D002034A0010010B50400054B984782
:102C5000054B98472100054B054898470548064B0A
:102C6000984710BD69B80000C155000059710100B6
:102C700064A3010078A301002131000070B5012692
:102C8000224B88B01B6801AD0193214B00200393B8
:102C9000204B2E719847002816D0002304AC667094
:102CA000A670210010201C4E2370B0471120210077
:102CB000B0471A4B98471A4B98472800194B98472A
:102CC000002810D008B070BD174B1848984704A8CA
:102CD0000200174B32CB32C2198811809B78937057
:102CE000144B9847EEE7144B9847144B9847220033
:102CF0000F4B23CB23C21988200011809B7893703F
:102D00000C4B9847084B0E489847DBE7100D002006
:102D1000492C0000F516010091C70000095700007A
:102D2000A9B8000049B400007572010094A3010025
:102D3000A8A301002131000069B80000C1550000BE
:102D400084A30100F8B5174DAB681B78002B10D099
:102D50000024154F042603E001341B5D002B08D02E
:102D6000B847AB681A5D801842781642F4D11B2030
:102D7000F8BD0E4B03209847030001201F2BF7D10D
:102D80000B4BA86898470B4C010020600A4B0B487E
:102D900098470B4A236894460A4A63449342E6D80C
:102DA0001C20E5E7080200203D6F0100F50200004D
:102DB0009D6B0100100D00205971010054A4010009
:102DC00018FCFFFFC8BBCE0710B59AB037220D49DB
:102DD0000D4B6846984768460C4CA0470C4A0D4975
:102DE0000D4B0DA898470DA8A04726220B4B1A7033
:102DF000BFF34F8F0A4A0B4BDA60BFF34F8FC046C9
:102E0000FDE7C0461CA40100C36F01002131000092
:102E1000048B0100108B0100ED740100E509002016
:102E20000400FA0500ED00E000B50E4B8FB0986885
:102E30000D490E4B98470223002802D018000FB00E
:102E400000BD0B4B0330984701231F28F6D1094AD8
:102E500009490A4B01A89847094B01A8984726231E
:102E6000ECE7C0460802002018A40100C975010063
:102E7000F5020000048B0100108B0100ED740100CD
:102E800021310000F0B5C646214B00B521489846D7
:102E900098470223204F214D7E6821493000214C64
:102EA0002B70A047002813D01F493000A0470028EE
:102EB0000AD002201D4B98471F280DD00123012066
:102EC0002B7004BC9046F0BD194B98472870F8E76A
:102ED000184B98472870F4E77E6817493000A047E0
:102EE000002806D015493000A047002809D02878CE
:102EF000E7E7134B9847002805D01A231A202B70B8
:102F0000DFE7104B98471048C0470E4B9847C04624
:102F100075720100B8A3010008020020E509002035
:102F2000ECA30100C975010030990100F502000011
:102F3000292E0000452D0000F4A301003499010062
:102F4000317D0000C92D000004A40100802370B56C
:102F5000304CDB05FF22636300235821A287C13A6E
:102F6000A3540132A3543E3A62540131625459329F
:102F7000A3540132A3548822520322646022A35432
:102F80000132A354002215396352A363E3656366DB
:102F9000A366E3662367A3644F33E254033BE25422
:102FA0000433E254033BE25431390133E154033337
:102FB000E254E1235B0263651748184B984780236E
:102FC0005B032364164B26006366164B164DA366FF
:102FD00001235B42E3662367343684213200C9054E
:102FE0002000A8470028F8D12568104B28009847F2
:102FF0001F2318401E3B83400D4A13602268D3698B
:10300000002BFCD102222B680A4813432B600A4B89
:10301000984770BD140D002068A40100597101008B
:1030200003000400030005006D57000031C10000DB
:1030300000E100E07CA4010075720100F0B5574684
:10304000DE464E464546E0B52B4CA5446B469E1DDC
:103050002A4B00249B462A4B02AF9A460CE00134CF
:10306000A4B2BB54274B284D9946284B9846C847D5
:1030700043461B689868A84731005846D047002847
:10308000F0D1234A944232D833880A2B13D022003D
:10309000202BE4D13919013909782029DFD1012306
:1030A0001C4A13708D239B009D443CBC904699465E
:1030B000A246AB46F0BD0023164A2100137038002B
:1030C000154B9847124A0021144B380098470D4B76
:1030D0000024994698470D4B0B4D98461B689868FD
:1030E000A84731005846D0470028CDD0BFE700217F
:1030F00038000A4B9847D2E7CCFDFFFF140D0020A3
:10310000ED5A00005D720000156D010010000020F6
:1031100026020000E509002015070000F96F0100F4
:1031200010B5044B04009847210082B2024B0348BB
:10313000984710BDED750100595B0000140D00208B
:10314000F0B5C64600B51400B2B01F00002A2DD05D
:10315000174D20222B681B6898466B46D870C043D9
:103160009980830700D010226B462100981D114ED4
:10317000B04769464046104B9847041E04D02000D3
:1031800032B004BC9046F0BD296868460B4B9847A6
:10319000041EF4D1002FF2D06B469B79122BEED98E
:1031A0006B461022D91D3800B047E8E7E224E6E775
:1031B000FC010020C36F0100E1390000093C000060
:1031C00010B504008901C8B22100014CA04710BD10
:1031D00041310000F0B51A4D17002A68B3B01668E7
:1031E000002B15D0002F17D06C46E070A18003286B
:1031F00014D002281AD0002221003000114B984729
:10320000002803D1296820000F4B984733B0F0BD48
:103210006C46E070A180EEE7E220F7E71F2BEAD9C9
:1032200020223900A01D094B9847E4E7032BE2D97F
:1032300004223900A01D054B98470122DCE7C04657
:10324000FC01002011390000093C0000C36F01009F
:10325000F0B5C64600B51400B2B0002B44D0284FDC
:1032600060263A68064015686A4691806946D070C3
:103270009471220ACA71220C0A72220E4A72202EFE
:1032800034D00A2019001F4B6844984698472800FC
:1032900069461D4B9847051E04D0280032B004BC77
:1032A0009046F0BD39686846184B9847051EF4D122
:1032B0002027002E01D1E3051AD4389B002B04D01F
:1032C0006A469279BB1C934214DB399B002BE4D0F5
:1032D0006B469A793B0022339342DEDAF91D69444A
:1032E00020223998C047D8E7E225D6E71022C8E760
:1032F0002037E2E76B463A00D91D3898C047E4E72B
:10330000FC010020C36F01000D3A0000093C0000E1
:10331000F0B5C64600B51C4D1E002B68B2B01F6844
:10332000944603236A460340D07091801422012BF7
:103330000BD9E224032B04D0200032B004BC904609
:10334000F0BD4022830600D420226B46981D0F4B0F
:10335000614698469847694638000D4B9847041EC9
:10336000EAD1296868460B4B9847041EE4D1002E29
:10337000E2D06B469B79222BDED96B462022D91DE9
:103380003000C047D8E7C046FC010020C36F0100F1
:1033900041390000093C000010B502000B00024C4E
:1033A00000210020A04710BD1133000010B5014BD3
:1033B000984710BD9933000070B5134DB2B02B681B
:1033C0006A460600186800236946D37093800F4B45
:1033D0009847041E02D0200032B070BD29686846AC
:1033E0000B4B9847041EF6D16B469B79232B01D0DB
:1033F000E624F0E7002EEED06B462022D91D3000E7
:10340000044B9847E7E7C046FC0100207D390000E7
:10341000093C0000C36F0100F0B557464646DE4642
:10342000C0B5B6B007003EA840C80578002E10D041
:1034300020488046006800688246042D17D0E224A8
:10344000202D08D0200036B01CBC90469A46A346DA
:10345000F0BDE224F6E70E2068440090164C834647
:103460003800A047041EEDD180231F4308E00E2042
:1034700068440090104C83463800A047041EE1D1F8
:103480006B46DF745B466A461B8804A993825046EC
:103490000A4B9847041ED5D1434604A81968084B27
:1034A0009847041ECED117212A0069443000054BED
:1034B0009847C7E7FC010020390200009539000059
:1034C000093C0000C36F010070B505008AB0E2241A
:1034D00000280BD0202302AE01930B4C0096002352
:1034E000002200210020A047041E02D020000AB0C4
:1034F00070BD310004222800044EB047281D05226B
:1035000004A9B047F2E7C04619340000C36F0100B8
:10351000F0B5DE464E4645465746E0B5B5B01E000E
:103520003EAB1B88444C82468B461500002114227A
:1035300008A89946A0472023202200211BA89846CE
:10354000A0470023E2200393002D0DD0002E0BD0C6
:103550004346019313AB0093002200230021002077
:10356000364FB847002806D035B03CBC9046994647
:10357000A246AB46F0BD15A9314B052214A89847C9
:103580001BA908A82F4B98470028EDD14422002101
:1035900023A8A0471022002104A8A04708AB059348
:1035A0001BAB069323AB079304A8274B984700282F
:1035B000DAD115236A4613736B4602225A734A46C0
:1035C0009A734B466A461B0AD3734946042303AADF
:1035D00002301E4FB8470028C6D1182200210DA87E
:1035E000A0476B464A46DA8613AB34220F936B46EC
:1035F0009B18323A1A7003AB119323AB12930DA8A8
:10360000134B109698470028AED14346009501937E
:103610005A46002351468230084CA0470028A3D1C7
:10362000002369468C240919EA5CC95C4A40EA54C3
:103630000133202BF5D197E7F96F01001934000011
:10364000D56F0100AD33000029480000D5310000DE
:10365000F1480000F0B557464E464546DE46E0B517
:103660001F0000238FB004000D00160005930228F0
:1036700007D9E2200FB03CBC90469946A246AB4623
:10368000F0BD02284FD0189B002B4AD0002FF0D05D
:1036900005AA29002000324B98470028EAD1189B40
:1036A000059A9B199342E4D8202292460022934621
:1036B00090467309DAB2B14603975E464746AB4679
:1036C000029255469846A24615E04A46D31A06AAE3
:1036D000D118189AEB1AD41B9C4200D91C00039BEA
:1036E0002200D8191F4B98473F19202D1ED0189B38
:1036F0000136BB4215D9202D23D006AA0092F3B281
:103700000195029A59465046174CA0470028B1D15E
:103710004346DB009B199B009945D6D806A9002398
:10372000D7E70020A6E70F29A3D8ACE701239C46E2
:10373000189BE044BB42F4D943466A461372137A9D
:1037400002934346059A5B01D31A20251F2BD4D838
:103750004B46DE190723B6081E401C3DCDE7C04688
:1037600079020000C36F010019340000F0B5C646AD
:1037700000B51500B2B01E00002A21D0194F44B286
:103780003B681B6898466B46D8709980002C1BDB01
:103790006B460422981D2900134B9847002E11D028
:1037A000E20F69464046114B9847002803D032B0DB
:1037B00004BC9046F0BD396868460D4B9847F6E763
:1037C000E220F4E70022ECE729002022981D064DB4
:1037D000A847002EF6D02620202231006844A847B2
:1037E000DEE7C046FC010020C36F0100AD390000D8
:1037F000093C0000F0B585B004000AA840C80B4D94
:1038000007780E20684400902000A847002808D1BF
:10381000202F08D06B462000D98932000023044CA9
:10382000A04705B0F0BD80231C43F3E73902000038
:103830006D37000070B582B006AC20CC060024784D
:10384000002D06D0042C06D0E220202C03D002B09C
:1038500070BDE220FBE7019400953000014CA047C9
:10386000F5E7C046F5370000002904D000230870B2
:1038700000204B707047E220FCE7C04610B5041EE4
:1038800004D0034B006898470023236010BDC04656
:103890006D6F0100F0B557464E464546DE46E0B531
:1038A0004778023FFBB29946431C9C4698464B46DC
:1038B000CC44002B27D000239A46144D5146424653
:1038C0000120545C082122000240561EB241DF0B49
:1038D0005B009BB2BA4201D06B409BB24000013901
:1038E000C0B20029EFD101229346DA44D145E5D890
:1038F000DAB21B0A61460A704B703CBC904699468E
:10390000A246AB46F0BD00230022F3E70580FFFF8F
:1039100015238B70CB7810B5032B0BD0002A06D162
:1039200007234B700800054B9847002010BD0B2360
:103930004B70F7E724334B70F4E7C046953800002E
:1039400003231620CA7810B513408870012B03D9C1
:10395000E220032B07D010BD1B234B700800064B41
:1039600098470020F7E7930602D547234B70F5E709
:1039700027234B70F2E7C046953800001B2310B593
:103980008B70143B4B700800014B9847002010BD12
:1039900095380000022310B58B7005334B7008007A
:1039A000014B9847002010BD9538000012238B7002
:1039B0000B3B4B70CB7810B57F2B0BD80B234B7088
:1039C000002A02D04B7820334B700800034B9847F5
:1039D000002010BD27234B70F2E7C0469538000049
:1039E0005123CA788B704A3B4B7010B51340032BA0
:1039F00006D017234B700800034B9847002010BDDA
:103A000024334B70F7E7C046953800005623CA7838
:103A10008B700A3310B51340202B07D04B7A0B3331
:103A20004B700800034B9847002010BD053B4B70BE
:103A3000F7E7C04695380000F0B54F464646D646F3
:103A4000C0B507788046023FFBB29C46002B31D0C0
:103A500000239946194E4246494608240120555CE8
:103A60002A000240571EBA41D90B5B009BB28A4222
:103A700001D073409BB24000013CC0B2002CEFD19A
:103A800001229246D144CC45E5D8D9B21B0A424620
:103A90006046145CE5228C4205D010001CBC9046A8
:103AA0009946A246F0BD4746674479789942F4D1D9
:103AB0000022F2E700230021E9E7C0460580FFFF6E
:103AC00002780023042A01D0180070474278072AA0
:103AD0001ED00BD8012A19D0002AF5D0D233032AE0
:103AE000F2D00433052AEFD0E123EDE70F2A0BD003
:103AF00006D9F323112AE7D01F3BFF2AE4D0F3E7CE
:103B0000FA23082AE0D0EFE7F423DDE7D123DBE74F
:103B1000D723D9E770B5041E16D00068002803D05B
:103B200040680B4B984720680A4B984720684368C9
:103B3000002B0AD01800084DA847002223685A60BD
:103B40002068A8470023236070BD034DF9E7C046F5
:103B5000F13D00007D3800006D6F010070B505007B
:103B60000C0000280ED000290CD00968E2200029A2
:103B700007D06368002B04D06878064B984700286C
:103B800002D070BDE220FCE761682800024B984734
:103B9000F7E7C04669380000693E0000F8B5061E28
:103BA0001DD00820154DA847041E18D00420A84792
:103BB000071E206015D02820A8476060002815D077
:103BC000210030000E4B9847002801D12000F8BD9D
:103BD00060680C4DA8472068A8472000A84700242B
:103BE000F4E72000074B98470024EFE73800054D25
:103BF000A8472000A8470024E8E7C046596F010005
:103C00005D3B00006D6F0100F0B5DE464E46454657
:103C10005746E0B5254B83B006004868884698476C
:103C2000041E0BD043465868214B9847200003B030
:103C30003CBC90469946A246AB46F0BD43467278DE
:103C4000586831001B4B9847041EEBD11A4B0120DA
:103C500099469847194B06369B466B469F1D184B55
:103C6000184D9A4604E00220013DC847002DD9D0E6
:103C7000C02200213000D847C0233B8043463A0091
:103C800031005868D047041EEDD13B88032B03D880
:103C90005C425C41E634C5E730000B4B9847041E9C
:103CA000C0D13000094B98470400BBE7B53D000088
:103CB000D53D0000A53D00000D480000F96F010052
:103CC000AD3D0000E3040000393A0000C13A0000B5
:103CD000F0B5DE4657464E464546E0B583B09446BD
:103CE0000193002958D00123984620234718012624
:103CF00000219B4612E08A46E244092C37D9140081
:103D0000613C052C2CD8573A1401E5B253461D707E
:103D100043465E40F6B20130B84233D00278140018
:103D2000303CE4B2092C05D915005B469D43413D6A
:103D3000052DF0D8019B1B688B4231D9002EDAD1BA
:103D4000092C05D91400613C052C13D8573AD4B27C
:103D500063465D182B78013199464C442C70D7E7A7
:103D60001400413C0025052CD0D8373A140024011A
:103D7000E5B2CBE71500413D1024052DE8D8373AD0
:103D8000D4B2E5E7E220002E06D103B03CBC904659
:103D90009946A246AB46F0BD019B00201960F4E7AE
:103DA000ED20F2E710B50369984710BD10B54369DF
:103DB000984710BD10B5836904009847D02800D0FB
:103DC00010BDB738024B9847A36920009847F7E722
:103DD0000D48000010B5C36998470400024B01204C
:103DE0009847200010BDC0460D480000406870474D
:103DF000030010B5E220002B03D0596A1878014B5C
:103E0000984710BD3D42000070B50D0004000A4BFC
:103E1000406898472B680020A3606B68E360AB683C
:103E20002361EB6863612B69A361AB6923626B69F2
:103E3000E3612B6A636270BDED41000010B50400C0
:103E40008AB001A9074B9847616801A8A368984701
:103E5000002804D1099B20006362E36898470AB0F8
:103E600010BDC046093E0000030010B5E220002B43
:103E700007D0002905D01A7808004B600A70014B62
:103E8000984710BD3D3E000070B50E0005001400BF
:103E9000B0B06846064B9847320029006846054B8B
:103EA000984768462100044B9847002030B070BD09
:103EB00079400000DD4000006D410000F0B5DE46B5
:103EC00057464E464546E0B5D3B0002A00D1C8E07B
:103ED00092018B18079388239C4684446346A8303C
:103EE0000993089040239C468C44634612A8039390
:103EF000644603000A78DA704A789A708A785A70B1
:103F0000CA7804311A7004338C42F3D14268072412
:103F100013001225E3411400EC416340446AD208C7
:103F2000A44653400268816B62449B1811240A0026
:103F3000E2410C000135EC41890A62404A409B187D
:103F40000364043042AB8342E0D1099A0AAB08987B
:103F50000692059302CA02C39042FBD104920D9AC5
:103F60000C9B93469C46424A0F9B924698465A4663
:103F700002924246109B60469946119B0A9D0B9FF8
:103F80000E9C002600929C460BE03A4ACC46B25862
:103F900002909246009A380000942F0091464446C1
:103FA0001D000B212300CB41984623000539CB414E
:103FB000414619224B402100D1414B4000992140FC
:103FC0008B464946A1438846594642465140884659
:103FD00020210AAA52189259434490460192029A0B
:103FE000434490462A001339CA41634494462A0048
:103FF0000B39CA4161464A40534429009246162271
:10400000D1415246514002008C4601007A402A407C
:1040100039404A4062449844D31880220436520002
:104020009642B2D11A00009B414698464B461193E6
:1040300043460E9110930D900F940C970B950A9296
:1040400004980599069B00E00A681C680431A446A0
:10405000624404C39842F7D10399079B994200D068
:1040600040E753B03CBC90469946A246AB46F0BDF3
:10407000982F8A42A0A4010010B5A82200210E4B5F
:104080000400984788230D4AE2500D4A0433E25059
:104090000C4A0433E2500C4A0433E2500B4A043316
:1040A000E2500B4A0433E2500A4A0433E2500A4A0F
:1040B0000433E25010BDC046F96F010067E6096A9B
:1040C00085AE67BB72F36E3C3AF54FA57F520E5139
:1040D0008C68059BABD9831F19CDE05BF8B55746BB
:1040E0004E464546DE46E0B54026050040680F00D6
:1040F0001400361A964200D916001A4B08302818B8
:1041000032003900984698476B68E3183F2B06D871
:104110006B603CBC90469946A246AB46F8BD08236E
:104120009946114BA944A41B4946280001229A46EE
:104130009847A3099B46B9191A002800D0472A6856
:104140005B46944601339B0163442B603F2321006F
:104150001A009943224089196A6079184846C04775
:10416000D7E7C046C36F0100BD3E0000F8B50500AB
:1041700040682B683F26C718092380225B421B1A20
:104180001E40431C6B602B1809302F6028181A72D0
:104190000C00321D0021134B98476B68FF009C46B2
:1041A0006644AB193A0E1A733A0C5A733A0A9A7368
:1041B0003200290008326A602800DF739209083152
:1041C000094B98472800A835883003220368A35478
:1041D00003681B0A0360013AF9D204300434A84290
:1041E000F3D1F8BDF96F0100BD3E00000378F02067
:1041F000002B00D07047094A0B620A60084A002071
:104200004A60084ACA60084A8A60084A8A61084ABD
:104210000A61084A4A61084ACA61EBE7A142000004
:104220003D440000954400004144000081470000E7
:10423000414600002D470000D547000010B500287A
:1042400001D0E12010BD0800014B9847FAE7C046B5
:10425000D547000030B5104B85B01A685B68040084
:10426000029201930393D020042901D005B030BD00
:10427000042202A92000094DA84703000020002BBA
:10428000F4D0042203A92000A8470300D020002B6B
:10429000ECD10730EAE7C046A0A50100A56F0100F8
:1042A000F8B557464E464546DE46E0B54C79070020
:1042B0000E00F025052C06D928003CBC90469946F6
:1042C000A246AB46F8BD342060434D4B8346994629
:1042D000D94498464B46DB6A002B06DD4A4601333B
:1042E000D3624B4600253B62E6E7464B9A46524670
:1042F000454B51465360002393601373137680221D
:1043000092030A6101225242CA8224228B542C2237
:104310008B5401328B540132CB610B628B628B5414
:10432000D7330B861E33FF338B82FA21374B89003C
:10433000B0689847534618607379052BBCD8344A47
:104340009B00D3589F463423424663433149D150A2
:1043500052465846304B0430D361304B40441362D0
:104360002F4B984734230722634343445D68EB692E
:104370001A42FCD13421022261432B684144134389
:104380002B604868274B8A4698471F2318401E3BDE
:1043900083405146244A102013600A31002303E071
:1043A0000A880133934229D26A8B1042F8D0342311
:1043B0005C437379444423630123E36291E734232C
:1043C000424663431949D150C2E73423424663430E
:1043D0001749D150BCE73423424663431549D150B5
:1043E000B6E73423842142466343C905D150AFE781
:1043F0003423424663431049D150A9E76883D6E786
:104400006C02002038020020480D0000113B010022
:10441000A8A50100001000420200160002001700CB
:10442000714A000031C1000000E100E0000C0042D0
:1044300000080042000400420004004300207047CE
:1044400030B5114B85B00D0014009847037901A9D0
:104450005B080B80002301340B724B728B720333A9
:104460004D602B704C80437934205843074B043007
:104470001818074B984703005A1E9341F0205B42DF
:10448000184005B030BDC046ED3D00006C02002074
:104490000D520000F0B5DE46574645464E46924660
:1044A000E0B52A4B87B08B46984753461B8803AC30
:1044B00001931900037905005B08238001236380C1
:1044C0005B46826A63605046002323726372A37264
:1044D0000380002907D1ED2007B03CBC90469946E7
:1044E000A246AB46F0BD561E002A2CDD184B3427E1
:1044F0009846184B99466879210078430430404427
:10450000C84700281BD15B461B78E420032BE3D966
:10451000019A9BB29A42DED3013B63805B46013332
:10452000636068792100784304304044C84700281C
:1045300007D15B4652461B7800201380CCE7013E32
:10454000D9D2F020C8E70120C6E7C046ED3D000003
:104550006C020020ED510000F0B5D6464F464646AD
:104560002F4BC0B589469847342345792D4E6B4370
:104570009A46B2441A1D53465C682B4F2000904661
:10458000B8471F2318401E3B834080222749B04470
:104590008B5053465968793ACB691A42FCD1832330
:1045A0000222237523762368FA2193432360204B4C
:1045B00034249A4652461F4B8900D38248461E4BEC
:1045C000984753466C4318605246315940461B4B3E
:1045D0009847072234196468E3691A42FCD13421F0
:1045E00002224D4323687519134323606868B84756
:1045F0001F2318401E3B83400C4A102013600A35CD
:10460000002303E02A880133934207D2628B1042D1
:10461000F8D01CBC90469946A246F0BD6083F8E7EE
:10462000ED3D00006C02002031C1000000E100E01F
:104630003802002010270000113B0100714A0000E1
:10464000F0B5DE4657464E464546E0B52F4B87B09F
:104650000400019098472E4983680700866A9B46AC
:104660008B4202D020002B4B98470023002234209D
:1046700003AD2B726B72AB72274B2A8098466A800F
:1046800002AA6A607B79290058430430234B4044D6
:104690009847234BB88C98473B79741E5B082B8056
:1046A00004236B8002AB6B60002E1DDD1D4B9A4610
:1046B0003423994601E000281FD04B467879290021
:1046C000584304304044D0470600013CF3D2104B1D
:1046D0009B450DD1002E13D0F02007B03CBC904676
:1046E0009946A246AB46F0BD094B9B45F4D0012646
:1046F00059460198074B9847ECE7054B9B45F7D186
:10470000042102A8084B9847E7E7C046ED3D0000AA
:10471000A0860100594500006C0200200D520000E7
:10472000F9470000ED5100005542000000B5114B63
:1047300085B09847037901A95B080B8001234B8062
:104740006B464B6000236A460B724B728B720233CE
:104750001370437934205843074B04301818074B23
:10476000984703005A1E9341F0205B42184005B061
:1047700000BDC046ED3D00006C0200200D5200005F
:1047800000B5114B85B09847037901A95B080B80F0
:1047900001234B806B464B6000236A460B724B72C1
:1047A0008B7201231370437934205843074B043034
:1047B0001818074B984703005A1E9341F0205B429C
:1047C000184005B000BDC046ED3D00006C02002061
:1047D0000D52000010B5041E04D0C36A013BC36231
:1047E000002B01DD002010BD024B04309847002350
:1047F000E362F7E7914D000010B5002800D10120D9
:10480000014B984710BDC046C5C2000010B5002836
:1048100003D10120024B984710BD024B9847FBE79C
:10482000C5C20000F5C20000F0B5CE46474680B5CF
:10483000C6688FB00400002E10D04768002F0DD03E
:10484000037800259846032342461340012B07D9DD
:1048500028000FB00CBC90469946F0BDE225F7E762
:1048600081680029FAD00222835E2022002B37DBE8
:104870001D4B6846994698471422390008A8C84736
:10488000162234236946CA546A4641460133D1543C
:104890000133D55437213200144B684698474023E2
:1048A0001020E168CA5C8243CA54E1680138CA5CDE
:1048B0008243CA54E1681130CA5C8243CA547F22E1
:1048C000E168C85C0240CA540121E36840335A7869
:1048D0000A435A7000214223E2680025D154B7E709
:1048E0003000014B9847F5E7C36F0100893E000097
:1048F000F0B5D6464F464646C0B5856898B0040028
:10490000002D15D04769002F12D00678032E16D03F
:10491000C16800290CD0022E00D17DE0E220052ED6
:1049200007D8504B20226846E8469A4698477FE0D1
:10493000E22018B01CBC90469946A246F0BD016921
:10494000E2200029F5D06388E84699461BB2202270
:10495000002B00DBE168434B40469A4698474146AE
:1049600015222023CA540133CE544246494601330E
:10497000D1544B4641461A0A23232720CA542A7A87
:104980000133CA542A780133CA546A780133CA54AD
:10499000684419220021344B9847032E1CD102226F
:1049A000A35E002B18DB2022216910A8D04717E056
:1049B0000422216908A8D0474146242327202A7AC7
:1049C0006844CA542A780133CA546A780133CA54F5
:1049D00019220021244B98472022390010A8D047E3
:1049E0003A006021214B40469847012163694020ED
:1049F00040335A780A435A702378022B20D0402340
:104A000020206169CA5C8243CA5461691138CA5C5A
:104A10008243CA5400208CE70379002B0BD1114B41
:104A2000202268469A4698472379E846002BBFD152
:104A30006388994693E72369E220002BEFD178E75A
:104A400063880F2BDBD820216269135C0B4313545E
:104A5000616962880F240B5C2240A34313430B540B
:104A6000002066E7C36F0100F96F0100893E000076
:104A7000F0B5DE464E4645465746E0B50500AC4B20
:104A800089B02960080014000E009B469847A94A87
:104A9000052800D1EFE001238340D16912300B4398
:104AA000D361C7B2237B06AA137011003800A24B52
:104AB00098473800A14B9847A14B207B002198478D
:104AC00033681C209B0706D509B03CBC904699462C
:104AD000A246AB46F0BD0127336817383B409846E5
:104AE000F2D12868D84782469649974B9847534653
:104AF000964A9B009D5043462B766B7600239A4640
:104B0000434652466B83AB832523EA5443462B62CC
:104B1000142333602B6807AE18009946D8478023CA
:104B2000337053460090E069B7707370F370276A72
:104B3000002800D1B4E0022330707370000C844B65
:104B4000C0B231009B469847002F00D1ADE0022350
:104B500037703F0C3100F8B29A467370D847A38A79
:104B60008021EB80E38A2B81237E002B00D188E01B
:104B7000A268236913430B432421615C002902D0FE
:104B80008021C9050B43A16A0B432C21615C0029DC
:104B900000D17FE08022120513432D22A25C002A5F
:104BA00002D08022120413432E22A25C002A02D0DB
:104BB0008022D20313434A461268009813434A46A0
:104BC0001360802312305B00FA255360C0B2614B42
:104BD00098472368AD005D435F4B05909B4698471F
:104BE000009001916800D84702900391208ED84729
:104BF0005A4B06009A460F0000980199584A594BA3
:104C0000D04702000B0030003900D0470022564B3D
:104C1000564FB847060028000F00D84702000B0087
:104C200030003900D047524D02000B000098019926
:104C3000A847029E039F4D4D32003B00A84700222B
:104C40004C4B4B4DA84732003B004B4DA8474B4FB8
:104C5000B8478023A26806009B049A422BD04020CC
:104C6000FF2E00D930E70023424613431E434B4634
:104C70000020DE6028E70221136A18270B43136225
:104C800010E752463E4B9B781A4013005A1E934140
:104C9000D9016DE7802189048A4200D07DE779E758
:104CA00000214846374B984745E701214846354B98
:104CB000984707004BE7FA2361689B004B43009835
:104CC0000199984602000B00284CA047040040467A
:104CD0000D00D84700222C4BD04702000B002000CB
:104CE0002900254CA0470022224B214CA047B84761
:104CF000041E13D0254B4146059898470238031BE4
:104D00004020FF2E00D9DFE6FF2B00D9DCE6FF2292
:104D10001B041204134098462306A5E74346590096
:104D2000059B481E9C46194B60449847431EE7E785
:104D3000F16700000004004099CD000029CD00007B
:104D400065660000E1520000EDC000009C130020E9
:104D5000CDCE0000BDCD0000356A01001D5E010012
:104D600095D626E80B2E113E00002440954F0100F9
:104D70001D6301000000F03FB555010049690100C5
:104D800000200041AD66000000000840113B01001A
:104D900070B5072205000468E3691A42FCD12000BF
:104DA000124EB0471F2318401E3B802283401049FB
:104DB0008B502968793ACB691A42FCD183230222AD
:104DC000237523762368934323600A4B984728680A
:104DD000B047094B9847094B984707222968CB6988
:104DE0001A42FCD10123236070BDC04631C10000CE
:104DF00000E100E0E9C60000EDCD000025C700009D
:104E0000802370B50668DB02726801241343736067
:104E1000716202680023022507E0117E0D4207D16E
:104E2000013301899BB2994206D9117E0C42F4D01C
:104E300000200123337670BD1220FAE7F0B5574603
:104E40004E464546DE46E0B54B88066898463368D0
:104E500083B01B01DB0F01934B7A04000F00002B82
:104E600000D0F2E07368884A134073603B7A002BED
:104E700034D03B887A7A5B0092031343802212027B
:104E800013437362226800230120022508E0117E8B
:104E90000D4208D1013321899BB2994200D8ECE040
:104EA000117E0842F3D07368774A13400222736080
:104EB0002368197E0A4200D1D3E01A765B8B1A422E
:104EC00000D0A7E0782201213B881B0A13437A7A9D
:104ED0005B0092030A431343736207E03B887A7ACC
:104EE0005B00920313430122134373622268002381
:104EF0000120022508E0117E0D4208D101332189ED
:104F00009BB2994200D8A4E0117E0842F3D000235E
:104F10000093019B002B00D072E073685A4A134043
:104F20007360009B002B63D102222368197E0A4222
:104F300000D191E01A765B8B1A426BD14546534AF9
:104F4000013DABB29246202298469346193A9446C8
:104F500042460023B04601200225B94616005645B8
:104F60002CD042465946528B114253D0E27A002A45
:104F700004D0019A002A50D0012E50D021686746F3
:104F8000CA691742FBD128214246525C494649680A
:104F90005F1CCA54BFB22268002307E0117E0D4295
:104FA00007D1013321899BB2994244D9117E08422D
:104FB000F4D03B00013EB6B25645D2D14F46994699
:104FC000A37A46462268002B09D00721D3691942EB
:104FD000FCD1C02372689B021343736022680721CF
:104FE000D3691942FCD128234946F25C7B685A54A4
:104FF000009803B03CBC90469946A246AB46F0BD33
:105000007B88012B00D088E780237268DB02134382
:10501000736086E741230093EAE7002EAED1424653
:1050200051688022D2020A431F004146013E4A6075
:10503000B6B23B00C0E74B46B9461F0012230093AF
:10504000A37A4646002BCAD0BFE7897A104B98470F
:1050500008E7122300935CE75A8B520700D46DE7F0
:1050600003E05A8B520700D42CE7C0225968920201
:105070000A435A6018230093BAE77368024A134040
:10508000736012230093B3E7FFFFFBFFFFFF0000F5
:10509000014E0000F0B54546DE4657464E46E0B5A7
:1050A00083B001914B880400984607220568EB699C
:1050B0001A42FCD1019B5B7A002B00D089E06B681F
:1050C000484A1340019A6B60137A002B55D013881D
:1050D000527A5B00920313438022120213436B62E5
:1050E000226800230120022607E0117E0E4207D12C
:1050F000013321899BB2994269D9117E0842F4D0CB
:105100000223117E0B4240D01376528B134246D1BC
:105110000023994620339A4608339B46019BAC46B0
:1051200007264D46012002279946A84557D06346D9
:1051300052465B8B1A4232D02268D3691E42FCD1A0
:105140004B46624659465B685B5D535422680023B8
:1051500007E0117E0F4207D1013321899BB29942AA
:1051600025D9117E0842F4D0634604225B8B0135B9
:105170001A42DAD065461E201BE0019A1388527A43
:105180005B00920313436B62AAE7538B5B07BFD5A7
:10519000C02351689B020B435360182000E041205C
:1051A00003B03CBC90469946A246AB46F0BD65466E
:1051B0001220A37A002BF3D007222168CB691A4270
:1051C000FCD1C0236A689B0213436B60E8E712209E
:1051D000E6E7019B2000997A034B98476FE7654605
:1051E0000020E6E7FFFFFBFF014E000010B5828BB9
:1051F00003000520002A00D010BD01329A72DA7235
:105200001800014B9847F7E73D4E000010B5828B20
:1052100003000520002A00D010BD01329A72DA7214
:105220001800014B9847F7E79550000030B5056826
:105230002A68448B838BE41A838BA4B2013B9BB214
:10524000838313011ED5C37A2A00002B28D1838BB8
:10525000002B0CD1837A002B09D00721D369194286
:10526000FCD1C0236A689B0213436B60026807216C
:10527000D3691942FCD1036A1C192823EB5CDBB209
:10528000237030BDC37A2A00002BE0D0838B002B23
:10529000DDD180236A68DB0213436B600268D6E7C6
:1052A000838B012BD3D1F4E710B50268538B5B07D6
:1052B00012D40721448B838BE41A838BA4B2013B65
:1052C0009BB28383D3691942FCD12821036A1C193C
:1052D0002378DBB2535410BD1E222523C254FAE7B3
:1052E00070B56B4B8000C45826683368627E257E9B
:1052F0001B011540628BDB0F002A03D1A28B002A11
:1053000000D06AE0628B002A07D0A28B002A04D169
:105310002532A15C052900D18CE0628B002A0FD0D8
:10532000A28B002A0CD0728B920600D57AE0002B5B
:1053300003D0A38B012B00D174E041222523E2543A
:10534000638B002B02D0A38B002B1ED02523E25CA5
:10535000052A19D0E25C002A16D0032232750022F9
:105360006283A283E35C412B0CD0A37A002B09D08B
:1053700021680732CB691A42FCD1E0237268DB0254
:10538000134373606B0724D470BD2533E35C052B96
:10539000DCD11F33E35C012BD8D1327E01331342C1
:1053A00000D0337603233375002300226383253333
:1053B000E254AB0703D52423E35C012B63D0EB0756
:1053C000C4D52423E35C002BC0D1E36820009847B8
:1053D000BCE7636920009847D6E70123327E134279
:1053E00018D03376728B0133134045D1728B52073C
:1053F00010D518212522A154A383A37A002B09D00C
:1054000021681E3ACB691A42FCD1C02372689B0204
:1054100013437360A38B9BB263832523E35C052B4B
:1054200000D08DE72423E35C2000002B21D0194B12
:10543000984785E71F31615CC9B2002900D06CE74D
:105440000323337500236183A354A37A002B17D061
:1054500021681E3ACB691A42FCD1C02372689B02B4
:1054600013437360EB0700D46AE7E36820009847B2
:1054700066E7094B984763E741222523E254C9E7D1
:1054800001233376EEE72369200098475EE7C046A4
:105490009C1300202D520000A9520000F0B5C64612
:1054A0000C0000B59046002812D1002A0DDD0A4EEE
:1054B0000A4D8F18210030682B6801349847BC4290
:1054C000F8D1404604BC9046F0BD00239846F8E76A
:1054D00001235B429846F4E7900D0020880D0020E0
:1054E000F0B5C646013800B50E001500022810D8E8
:1054F0000024002A0FD00A4B0A4F984602E00134DC
:10550000A54208D04346315D18683B68984700289B
:10551000F5DA01246442200004BC9046F0BDC04688
:10552000900D00208C0D0020F0B583B06B469C1DC3
:10553000002306000F00054D238021003000A847FE
:105540000028FAD123883B7003B0F0BDED5A00006B
:1055500070B50600034D8CB221003000A84700282A
:10556000FAD170BDC95A000030B583B06B46DC1D5E
:10557000012221000D4B0E48984772B6BFF35F8F92
:1055800000200C4925780C4A0B780C4C1070E5541F
:105590009B2B08D001330B7001231370BFF35F8F77
:1055A00062B603B030BD0870F6E7C046115C00007B
:1055B000A4030020740400200C000020D803002065
:1055C000F0B591B06946FF2280230A81012524228B
:1055D000DB05009300238D5401328D5401328B542E
:1055E00001328B5405328B5401328B548B72CB7247
:1055F0000B8201930A93059313238B7680235B031D
:105600000393314B00220C93304B314C0D9301230B
:105610005B420E930F93E1235B0208932D4BCA76F6
:105620000A760A774A764A771C602B4A2B4B2C491C
:105630001A602C4A2C4B20001A606A462B4B984764
:105640002B4F2C4E3B6800219868B0473B680021E7
:105650005868B0472668284B300098471F231840E9
:105660008540264B1D602268D369002BFCD10222A5
:105670003368134333602368DA69002AFCD180223F
:10568000596852020A435A600122E271DA69002A1B
:10569000FCD1DA69002AFCD18022596892020A43BF
:1056A0005A600122A271DA69002AFCD11449012052
:1056B000144B984704220A4B9A75104BFD32FF3267
:1056C0001A6011B0F0BDC0460200100002001100C7
:1056D000A4030020900D0020515500008C0D0020E7
:1056E0000004004229550000880D00206D5700007D
:1056F000100000208173010031C1000000E100E0D2
:1057000069550000EDC0000070B5134C134B2568BF
:10571000280098471F2318401E3B802283401049D1
:105720008B502268D369002BFCD102222B68934353
:105730002B602368DA69002AFCD1596809480140C6
:105740005960E271DA69002AFCD1596806480140C3
:105750005960A27170BDC046A403002031C1000091
:1057600000E100E0FFFFFEFFFFFFFDFFF0B5454653
:10577000DE464E465746E0B50500C54B91B0296060
:10578000080099460C00904698470300052800D170
:1057900002E10600070012360122216805200A42B4
:1057A00006D011B03CBC90469946A246AB46F0BD2F
:1057B000216817308907F4D4052B00D134E1BA40B1
:1057C000B44BD9690A43DA612D274346DB5D0AA948
:1057D000F6B20B703000B04B98473000AF4B984793
:1057E00043460021D85DAE4B98474346DB7A42469C
:1057F0006B712423D35CAB712523D35CEB71D37E17
:105800002B72137F6B722B6818009A46C8470528C5
:1058100000D107E1123000230CAE338043461A8AD0
:1058200080230292DB019A4200D108E100D8F0E027
:10583000C023029ADB019A4200D1B0E080231B0210
:105840009A4200D0F6E003230993002308934346CD
:105850001B68424603934346DB68049343465B69F7
:10586000059343461B7E06932623D35C0793536818
:105870009B46002B00D1B8E080235B059B4500D000
:10588000B1E02723D25C0023002A00D1F3E0424696
:10589000527E002A03D042465146927E8A73524677
:1058A0009381049A039B029F1343059A13435A461C
:1058B00013431F43069B42461B021F43079B5B0784
:1058C0001F432723D35C002B01D104331F434346DE
:1058D00042465B7E127F9B02520213434246527F36
:1058E00041461202134324228A5C520413432522A8
:1058F0008A5C120413438A7AC97A0A431A434346DC
:1059000019891000FF2900D19EE080235B041F430A
:1059100008432C214346595C002903D1614B9B78F5
:105920009B0701D580231F432A68D369002BFCD134
:10593000534658602A68D369002BFCD1524608A907
:1059400017604B73CB738B734346186B5B6B802272
:10595000736043469B6B0027B3604346DB6B0A735F
:10596000F360514B0C909B46504BF9B29A4600287D
:105970000FD0431C05D008AB1873000CC0B20BA9A4
:10598000D0470137042F0FD0BB00F058F9B20028E0
:10599000EFD12000D847ECE718260127FCE60823C2
:1059A0000993073B089352E700230022EB85EB6045
:1059B0002B616B61AB61EB612B62AB626B62AB85A0
:1059C0003033EA540133EA540133EA540133EA54E0
:1059D0002868C8470400364B36499847364BA40020
:1059E000E5500020DDE6002351E727234246D35C43
:1059F000002B32D041464046099B32000093896A11
:105A0000089B006A2D4FB847002800D0C9E63388AC
:105A10003DE780239B019A420CD1102309930F3B51
:105A2000089314E71820F6E6BA401A4B196A0A439D
:105A30001A62C9E6102309930023089307E7082395
:105A400009930023089302E74346DB7E002B00D135
:105A50005FE78023DB041F435BE7136AC0B21F00CC
:105A6000174B9847099B010000933200089B3800B0
:105A7000124FB847C8E743461B6AC0B21F00104B1D
:105A80009847320001000F4B38009847BCE7C046EA
:105A9000F16700000004004099CD000029CD00000E
:105AA0006566000000200041AD660000CDCE00001C
:105AB000EDC00000C15C00009C130020A564000044
:105AC000BDCD00007D640000C2791C23002A01D1F5
:105AD00018007047C28D173B002AF9D10268118562
